{
	"contracts/LiskGarden.sol": {
		"LiskGarden": {
			"abi": [
				{
					"inputs": [],
					"stateMutability": "nonpayable",
					"type": "constructor"
				},
				{
					"anonymous": false,
					"inputs": [
						{
							"indexed": true,
							"internalType": "uint256",
							"name": "plantId",
							"type": "uint256"
						}
					],
					"name": "PlantDied",
					"type": "event"
				},
				{
					"anonymous": false,
					"inputs": [
						{
							"indexed": true,
							"internalType": "uint256",
							"name": "plantId",
							"type": "uint256"
						},
						{
							"indexed": true,
							"internalType": "address",
							"name": "owner",
							"type": "address"
						},
						{
							"indexed": false,
							"internalType": "uint256",
							"name": "reward",
							"type": "uint256"
						}
					],
					"name": "PlantHarvested",
					"type": "event"
				},
				{
					"anonymous": false,
					"inputs": [
						{
							"indexed": true,
							"internalType": "address",
							"name": "owner",
							"type": "address"
						},
						{
							"indexed": true,
							"internalType": "uint256",
							"name": "plantId",
							"type": "uint256"
						}
					],
					"name": "PlantSeeded",
					"type": "event"
				},
				{
					"anonymous": false,
					"inputs": [
						{
							"indexed": true,
							"internalType": "uint256",
							"name": "plantId",
							"type": "uint256"
						},
						{
							"indexed": false,
							"internalType": "uint8",
							"name": "newWaterLevel",
							"type": "uint8"
						}
					],
					"name": "PlantWatered",
					"type": "event"
				},
				{
					"anonymous": false,
					"inputs": [
						{
							"indexed": true,
							"internalType": "uint256",
							"name": "plantId",
							"type": "uint256"
						},
						{
							"indexed": false,
							"internalType": "enum LiskGarden.GrowthStage",
							"name": "newStage",
							"type": "uint8"
						}
					],
					"name": "StageAdvanced",
					"type": "event"
				},
				{
					"inputs": [],
					"name": "HARVEST_REWARD",
					"outputs": [
						{
							"internalType": "uint256",
							"name": "",
							"type": "uint256"
						}
					],
					"stateMutability": "view",
					"type": "function"
				},
				{
					"inputs": [],
					"name": "PLANT_PRICE",
					"outputs": [
						{
							"internalType": "uint256",
							"name": "",
							"type": "uint256"
						}
					],
					"stateMutability": "view",
					"type": "function"
				},
				{
					"inputs": [],
					"name": "STAGE_DURATION",
					"outputs": [
						{
							"internalType": "uint256",
							"name": "",
							"type": "uint256"
						}
					],
					"stateMutability": "view",
					"type": "function"
				},
				{
					"inputs": [],
					"name": "WATER_DEPLETION_INTERVAL",
					"outputs": [
						{
							"internalType": "uint256",
							"name": "",
							"type": "uint256"
						}
					],
					"stateMutability": "view",
					"type": "function"
				},
				{
					"inputs": [],
					"name": "WATER_DEPLETION_RATE",
					"outputs": [
						{
							"internalType": "uint8",
							"name": "",
							"type": "uint8"
						}
					],
					"stateMutability": "view",
					"type": "function"
				},
				{
					"inputs": [
						{
							"internalType": "uint256",
							"name": "plantId",
							"type": "uint256"
						}
					],
					"name": "calculateWaterLevel",
					"outputs": [
						{
							"internalType": "uint256",
							"name": "",
							"type": "uint256"
						}
					],
					"stateMutability": "view",
					"type": "function"
				},
				{
					"inputs": [],
					"name": "deposit",
					"outputs": [],
					"stateMutability": "payable",
					"type": "function"
				},
				{
					"inputs": [
						{
							"internalType": "uint256",
							"name": "plantId",
							"type": "uint256"
						}
					],
					"name": "getPlant",
					"outputs": [
						{
							"components": [
								{
									"internalType": "uint256",
									"name": "id",
									"type": "uint256"
								},
								{
									"internalType": "address",
									"name": "owner",
									"type": "address"
								},
								{
									"internalType": "enum LiskGarden.GrowthStage",
									"name": "stage",
									"type": "uint8"
								},
								{
									"internalType": "uint256",
									"name": "waterLevel",
									"type": "uint256"
								},
								{
									"internalType": "uint256",
									"name": "plantedDate",
									"type": "uint256"
								},
								{
									"internalType": "uint256",
									"name": "lastWatered",
									"type": "uint256"
								},
								{
									"internalType": "bool",
									"name": "exists",
									"type": "bool"
								},
								{
									"internalType": "bool",
									"name": "isDead",
									"type": "bool"
								}
							],
							"internalType": "struct LiskGarden.Plant",
							"name": "",
							"type": "tuple"
						}
					],
					"stateMutability": "view",
					"type": "function"
				},
				{
					"inputs": [
						{
							"internalType": "address",
							"name": "user",
							"type": "address"
						}
					],
					"name": "getUserPlants",
					"outputs": [
						{
							"internalType": "uint256[]",
							"name": "",
							"type": "uint256[]"
						}
					],
					"stateMutability": "view",
					"type": "function"
				},
				{
					"inputs": [
						{
							"internalType": "uint256",
							"name": "plantId",
							"type": "uint256"
						}
					],
					"name": "harvestPlant",
					"outputs": [],
					"stateMutability": "nonpayable",
					"type": "function"
				},
				{
					"inputs": [],
					"name": "myPlant",
					"outputs": [
						{
							"internalType": "uint256",
							"name": "id",
							"type": "uint256"
						},
						{
							"internalType": "address",
							"name": "owner",
							"type": "address"
						},
						{
							"internalType": "enum LiskGarden.GrowthStage",
							"name": "stage",
							"type": "uint8"
						},
						{
							"internalType": "uint256",
							"name": "waterLevel",
							"type": "uint256"
						},
						{
							"internalType": "uint256",
							"name": "plantedDate",
							"type": "uint256"
						},
						{
							"internalType": "uint256",
							"name": "lastWatered",
							"type": "uint256"
						},
						{
							"internalType": "bool",
							"name": "exists",
							"type": "bool"
						},
						{
							"internalType": "bool",
							"name": "isDead",
							"type": "bool"
						}
					],
					"stateMutability": "view",
					"type": "function"
				},
				{
					"inputs": [],
					"name": "owner",
					"outputs": [
						{
							"internalType": "address",
							"name": "",
							"type": "address"
						}
					],
					"stateMutability": "view",
					"type": "function"
				},
				{
					"inputs": [],
					"name": "plantCounter",
					"outputs": [
						{
							"internalType": "uint256",
							"name": "",
							"type": "uint256"
						}
					],
					"stateMutability": "view",
					"type": "function"
				},
				{
					"inputs": [],
					"name": "plantSeed",
					"outputs": [
						{
							"internalType": "uint256",
							"name": "",
							"type": "uint256"
						}
					],
					"stateMutability": "payable",
					"type": "function"
				},
				{
					"inputs": [
						{
							"internalType": "uint256",
							"name": "",
							"type": "uint256"
						}
					],
					"name": "plants",
					"outputs": [
						{
							"internalType": "uint256",
							"name": "id",
							"type": "uint256"
						},
						{
							"internalType": "address",
							"name": "owner",
							"type": "address"
						},
						{
							"internalType": "enum LiskGarden.GrowthStage",
							"name": "stage",
							"type": "uint8"
						},
						{
							"internalType": "uint256",
							"name": "waterLevel",
							"type": "uint256"
						},
						{
							"internalType": "uint256",
							"name": "plantedDate",
							"type": "uint256"
						},
						{
							"internalType": "uint256",
							"name": "lastWatered",
							"type": "uint256"
						},
						{
							"internalType": "bool",
							"name": "exists",
							"type": "bool"
						},
						{
							"internalType": "bool",
							"name": "isDead",
							"type": "bool"
						}
					],
					"stateMutability": "view",
					"type": "function"
				},
				{
					"inputs": [
						{
							"internalType": "uint256",
							"name": "plantId",
							"type": "uint256"
						}
					],
					"name": "updatePlantStage",
					"outputs": [],
					"stateMutability": "nonpayable",
					"type": "function"
				},
				{
					"inputs": [
						{
							"internalType": "address",
							"name": "",
							"type": "address"
						},
						{
							"internalType": "uint256",
							"name": "",
							"type": "uint256"
						}
					],
					"name": "userPlants",
					"outputs": [
						{
							"internalType": "uint256",
							"name": "",
							"type": "uint256"
						}
					],
					"stateMutability": "view",
					"type": "function"
				},
				{
					"inputs": [
						{
							"internalType": "uint256",
							"name": "plantId",
							"type": "uint256"
						}
					],
					"name": "waterPlant",
					"outputs": [],
					"stateMutability": "nonpayable",
					"type": "function"
				},
				{
					"inputs": [],
					"name": "withdraw",
					"outputs": [],
					"stateMutability": "nonpayable",
					"type": "function"
				},
				{
					"stateMutability": "payable",
					"type": "receive"
				}
			],
			"devdoc": {
				"kind": "dev",
				"methods": {},
				"version": 1
			},
			"evm": {
				"assembly": "    /* \"contracts/LiskGarden.sol\":61:10813  contract LiskGarden {... */\n  mstore(0x40, 0x80)\n    /* \"contracts/LiskGarden.sol\":3709:3760  constructor() {... */\n  callvalue\n  dup1\n  iszero\n  tag_1\n  jumpi\n  revert(0x00, 0x00)\ntag_1:\n  pop\n    /* \"contracts/LiskGarden.sol\":3742:3752  msg.sender */\n  caller\n    /* \"contracts/LiskGarden.sol\":3734:3739  owner */\n  0x03\n  0x00\n    /* \"contracts/LiskGarden.sol\":3734:3752  owner = msg.sender */\n  0x0100\n  exp\n  dup2\n  sload\n  dup2\n  0xffffffffffffffffffffffffffffffffffffffff\n  mul\n  not\n  and\n  swap1\n  dup4\n  0xffffffffffffffffffffffffffffffffffffffff\n  and\n  mul\n  or\n  swap1\n  sstore\n  pop\n    /* \"contracts/LiskGarden.sol\":61:10813  contract LiskGarden {... */\n  dataSize(sub_0)\n  dup1\n  dataOffset(sub_0)\n  0x00\n  codecopy\n  0x00\n  return\nstop\n\nsub_0: assembly {\n        /* \"contracts/LiskGarden.sol\":61:10813  contract LiskGarden {... */\n      mstore(0x40, 0x80)\n      jumpi(tag_1, lt(calldatasize, 0x04))\n      shr(0xe0, calldataload(0x00))\n      dup1\n      0x8dd2361c\n      gt\n      tag_22\n      jumpi\n      dup1\n      0xcfc9a5f8\n      gt\n      tag_23\n      jumpi\n      dup1\n      0xcfc9a5f8\n      eq\n      tag_17\n      jumpi\n      dup1\n      0xd0e30db0\n      eq\n      tag_18\n      jumpi\n      dup1\n      0xddd42596\n      eq\n      tag_19\n      jumpi\n      dup1\n      0xe38f8448\n      eq\n      tag_20\n      jumpi\n      dup1\n      0xed0b1f5f\n      eq\n      tag_21\n      jumpi\n      jump(tag_2)\n    tag_23:\n      dup1\n      0x8dd2361c\n      eq\n      tag_12\n      jumpi\n      dup1\n      0x90fd1ed4\n      eq\n      tag_13\n      jumpi\n      dup1\n      0x9886bcfa\n      eq\n      tag_14\n      jumpi\n      dup1\n      0x9c471749\n      eq\n      tag_15\n      jumpi\n      dup1\n      0xbacb5ebd\n      eq\n      tag_16\n      jumpi\n      jump(tag_2)\n    tag_22:\n      dup1\n      0x74119a38\n      gt\n      tag_24\n      jumpi\n      dup1\n      0x74119a38\n      eq\n      tag_7\n      jumpi\n      dup1\n      0x754e150d\n      eq\n      tag_8\n      jumpi\n      dup1\n      0x891c0785\n      eq\n      tag_9\n      jumpi\n      dup1\n      0x8aee578b\n      eq\n      tag_10\n      jumpi\n      dup1\n      0x8da5cb5b\n      eq\n      tag_11\n      jumpi\n      jump(tag_2)\n    tag_24:\n      dup1\n      0x30cec0eb\n      eq\n      tag_3\n      jumpi\n      dup1\n      0x3a8fdff0\n      eq\n      tag_4\n      jumpi\n      dup1\n      0x3ccfd60b\n      eq\n      tag_5\n      jumpi\n      dup1\n      0x51f9efde\n      eq\n      tag_6\n      jumpi\n      jump(tag_2)\n    tag_1:\n      jumpi(tag_2, calldatasize)\n      stop\n    tag_2:\n      revert(0x00, 0x00)\n        /* \"contracts/LiskGarden.sol\":10435:10555  function getUserPlants(address user) external view returns (uint256[] memory) {... */\n    tag_3:\n      callvalue\n      dup1\n      iszero\n      tag_27\n      jumpi\n      revert(0x00, 0x00)\n    tag_27:\n      pop\n      tag_28\n      0x04\n      dup1\n      calldatasize\n      sub\n      dup2\n      add\n      swap1\n      tag_29\n      swap2\n      swap1\n      tag_30\n      jump\t// in\n    tag_29:\n      tag_31\n      jump\t// in\n    tag_28:\n      mload(0x40)\n      tag_32\n      swap2\n      swap1\n      tag_33\n      jump\t// in\n    tag_32:\n      mload(0x40)\n      dup1\n      swap2\n      sub\n      swap1\n      return\n        /* \"contracts/LiskGarden.sol\":4273:4293  Plant public myPlant */\n    tag_4:\n      callvalue\n      dup1\n      iszero\n      tag_34\n      jumpi\n      revert(0x00, 0x00)\n    tag_34:\n      pop\n      tag_35\n      tag_36\n      jump\t// in\n    tag_35:\n      mload(0x40)\n      tag_37\n      swap9\n      swap8\n      swap7\n      swap6\n      swap5\n      swap4\n      swap3\n      swap2\n      swap1\n      tag_38\n      jump\t// in\n    tag_37:\n      mload(0x40)\n      dup1\n      swap2\n      sub\n      swap1\n      return\n        /* \"contracts/LiskGarden.sol\":10563:10773  function withdraw() external {... */\n    tag_5:\n      callvalue\n      dup1\n      iszero\n      tag_39\n      jumpi\n      revert(0x00, 0x00)\n    tag_39:\n      pop\n      tag_40\n      tag_41\n      jump\t// in\n    tag_40:\n      stop\n        /* \"contracts/LiskGarden.sol\":2280:2330  uint256 public constant STAGE_DURATION = 1 minutes */\n    tag_6:\n      callvalue\n      dup1\n      iszero\n      tag_42\n      jumpi\n      revert(0x00, 0x00)\n    tag_42:\n      pop\n      tag_43\n      tag_44\n      jump\t// in\n    tag_43:\n      mload(0x40)\n      tag_45\n      swap2\n      swap1\n      tag_46\n      jump\t// in\n    tag_45:\n      mload(0x40)\n      dup1\n      swap2\n      sub\n      swap1\n      return\n        /* \"contracts/LiskGarden.sol\":4300:5037  function plantSeed() external payable returns (uint256) {... */\n    tag_7:\n      tag_47\n      tag_48\n      jump\t// in\n    tag_47:\n      mload(0x40)\n      tag_49\n      swap2\n      swap1\n      tag_46\n      jump\t// in\n    tag_49:\n      mload(0x40)\n      dup1\n      swap2\n      sub\n      swap1\n      return\n        /* \"contracts/LiskGarden.sol\":5669:6215  function calculateWaterLevel(uint256 plantId) public view returns (uint256) {... */\n    tag_8:\n      callvalue\n      dup1\n      iszero\n      tag_50\n      jumpi\n      revert(0x00, 0x00)\n    tag_50:\n      pop\n      tag_51\n      0x04\n      dup1\n      calldatasize\n      sub\n      dup2\n      add\n      swap1\n      tag_52\n      swap2\n      swap1\n      tag_53\n      jump\t// in\n    tag_52:\n      tag_54\n      jump\t// in\n    tag_51:\n      mload(0x40)\n      tag_55\n      swap2\n      swap1\n      tag_46\n      jump\t// in\n    tag_55:\n      mload(0x40)\n      dup1\n      swap2\n      sub\n      swap1\n      return\n        /* \"contracts/LiskGarden.sol\":2108:2160  uint256 public constant HARVEST_REWARD = 0.003 ether */\n    tag_9:\n      callvalue\n      dup1\n      iszero\n      tag_56\n      jumpi\n      revert(0x00, 0x00)\n    tag_56:\n      pop\n      tag_57\n      tag_58\n      jump\t// in\n    tag_57:\n      mload(0x40)\n      tag_59\n      swap2\n      swap1\n      tag_46\n      jump\t// in\n    tag_59:\n      mload(0x40)\n      dup1\n      swap2\n      sub\n      swap1\n      return\n        /* \"contracts/LiskGarden.sol\":1451:1498  mapping(address => uint256[]) public userPlants */\n    tag_10:\n      callvalue\n      dup1\n      iszero\n      tag_60\n      jumpi\n      revert(0x00, 0x00)\n    tag_60:\n      pop\n      tag_61\n      0x04\n      dup1\n      calldatasize\n      sub\n      dup2\n      add\n      swap1\n      tag_62\n      swap2\n      swap1\n      tag_63\n      jump\t// in\n    tag_62:\n      tag_64\n      jump\t// in\n    tag_61:\n      mload(0x40)\n      tag_65\n      swap2\n      swap1\n      tag_46\n      jump\t// in\n    tag_65:\n      mload(0x40)\n      dup1\n      swap2\n      sub\n      swap1\n      return\n        /* \"contracts/LiskGarden.sol\":1715:1735  address public owner */\n    tag_11:\n      callvalue\n      dup1\n      iszero\n      tag_66\n      jumpi\n      revert(0x00, 0x00)\n    tag_66:\n      pop\n      tag_67\n      tag_68\n      jump\t// in\n    tag_67:\n      mload(0x40)\n      tag_69\n      swap2\n      swap1\n      tag_70\n      jump\t// in\n    tag_69:\n      mload(0x40)\n      dup1\n      swap2\n      sub\n      swap1\n      return\n        /* \"contracts/LiskGarden.sol\":1266:1305  mapping(uint256 => Plant) public plants */\n    tag_12:\n      callvalue\n      dup1\n      iszero\n      tag_71\n      jumpi\n      revert(0x00, 0x00)\n    tag_71:\n      pop\n      tag_72\n      0x04\n      dup1\n      calldatasize\n      sub\n      dup2\n      add\n      swap1\n      tag_73\n      swap2\n      swap1\n      tag_53\n      jump\t// in\n    tag_73:\n      tag_74\n      jump\t// in\n    tag_72:\n      mload(0x40)\n      tag_75\n      swap9\n      swap8\n      swap7\n      swap6\n      swap5\n      swap4\n      swap3\n      swap2\n      swap1\n      tag_38\n      jump\t// in\n    tag_75:\n      mload(0x40)\n      dup1\n      swap2\n      sub\n      swap1\n      return\n        /* \"contracts/LiskGarden.sol\":2388:2449  uint256 public constant WATER_DEPLETION_INTERVAL = 30 seconds */\n    tag_13:\n      callvalue\n      dup1\n      iszero\n      tag_76\n      jumpi\n      revert(0x00, 0x00)\n    tag_76:\n      pop\n      tag_77\n      tag_78\n      jump\t// in\n    tag_77:\n      mload(0x40)\n      tag_79\n      swap2\n      swap1\n      tag_46\n      jump\t// in\n    tag_79:\n      mload(0x40)\n      dup1\n      swap2\n      sub\n      swap1\n      return\n        /* \"contracts/LiskGarden.sol\":7169:7623  function waterPlant(uint256 plantId) external {... */\n    tag_14:\n      callvalue\n      dup1\n      iszero\n      tag_80\n      jumpi\n      revert(0x00, 0x00)\n    tag_80:\n      pop\n      tag_81\n      0x04\n      dup1\n      calldatasize\n      sub\n      dup2\n      add\n      swap1\n      tag_82\n      swap2\n      swap1\n      tag_53\n      jump\t// in\n    tag_82:\n      tag_83\n      jump\t// in\n    tag_81:\n      stop\n        /* \"contracts/LiskGarden.sol\":1600:1627  uint256 public plantCounter */\n    tag_15:\n      callvalue\n      dup1\n      iszero\n      tag_84\n      jumpi\n      revert(0x00, 0x00)\n    tag_84:\n      pop\n      tag_85\n      tag_86\n      jump\t// in\n    tag_85:\n      mload(0x40)\n      tag_87\n      swap2\n      swap1\n      tag_46\n      jump\t// in\n    tag_87:\n      mload(0x40)\n      dup1\n      swap2\n      sub\n      swap1\n      return\n        /* \"contracts/LiskGarden.sol\":2576:2622  uint8 public constant WATER_DEPLETION_RATE = 2 */\n    tag_16:\n      callvalue\n      dup1\n      iszero\n      tag_88\n      jumpi\n      revert(0x00, 0x00)\n    tag_88:\n      pop\n      tag_89\n      tag_90\n      jump\t// in\n    tag_89:\n      mload(0x40)\n      tag_91\n      swap2\n      swap1\n      tag_92\n      jump\t// in\n    tag_91:\n      mload(0x40)\n      dup1\n      swap2\n      sub\n      swap1\n      return\n        /* \"contracts/LiskGarden.sol\":2005:2054  uint256 public constant PLANT_PRICE = 0.001 ether */\n    tag_17:\n      callvalue\n      dup1\n      iszero\n      tag_93\n      jumpi\n      revert(0x00, 0x00)\n    tag_93:\n      pop\n      tag_94\n      tag_95\n      jump\t// in\n    tag_94:\n      mload(0x40)\n      tag_96\n      swap2\n      swap1\n      tag_46\n      jump\t// in\n    tag_96:\n      mload(0x40)\n      dup1\n      swap2\n      sub\n      swap1\n      return\n        /* \"contracts/LiskGarden.sol\":10391:10427  function deposit() public payable {} */\n    tag_18:\n      tag_97\n      tag_98\n      jump\t// in\n    tag_97:\n      stop\n        /* \"contracts/LiskGarden.sol\":8107:9002  function updatePlantStage(uint256 plantId) public {... */\n    tag_19:\n      callvalue\n      dup1\n      iszero\n      tag_99\n      jumpi\n      revert(0x00, 0x00)\n    tag_99:\n      pop\n      tag_100\n      0x04\n      dup1\n      calldatasize\n      sub\n      dup2\n      add\n      swap1\n      tag_101\n      swap2\n      swap1\n      tag_53\n      jump\t// in\n    tag_101:\n      tag_102\n      jump\t// in\n    tag_100:\n      stop\n        /* \"contracts/LiskGarden.sol\":9353:10018  function harvestPlant(uint256 plantId) external {... */\n    tag_20:\n      callvalue\n      dup1\n      iszero\n      tag_103\n      jumpi\n      revert(0x00, 0x00)\n    tag_103:\n      pop\n      tag_104\n      0x04\n      dup1\n      calldatasize\n      sub\n      dup2\n      add\n      swap1\n      tag_105\n      swap2\n      swap1\n      tag_53\n      jump\t// in\n    tag_105:\n      tag_106\n      jump\t// in\n    tag_104:\n      stop\n        /* \"contracts/LiskGarden.sol\":10175:10383  function getPlant(uint256 plantId) external view returns (Plant memory) {... */\n    tag_21:\n      callvalue\n      dup1\n      iszero\n      tag_107\n      jumpi\n      revert(0x00, 0x00)\n    tag_107:\n      pop\n      tag_108\n      0x04\n      dup1\n      calldatasize\n      sub\n      dup2\n      add\n      swap1\n      tag_109\n      swap2\n      swap1\n      tag_53\n      jump\t// in\n    tag_109:\n      tag_110\n      jump\t// in\n    tag_108:\n      mload(0x40)\n      tag_111\n      swap2\n      swap1\n      tag_112\n      jump\t// in\n    tag_111:\n      mload(0x40)\n      dup1\n      swap2\n      sub\n      swap1\n      return\n        /* \"contracts/LiskGarden.sol\":10435:10555  function getUserPlants(address user) external view returns (uint256[] memory) {... */\n    tag_31:\n        /* \"contracts/LiskGarden.sol\":10495:10511  uint256[] memory */\n      0x60\n        /* \"contracts/LiskGarden.sol\":10531:10541  userPlants */\n      0x01\n        /* \"contracts/LiskGarden.sol\":10531:10547  userPlants[user] */\n      0x00\n        /* \"contracts/LiskGarden.sol\":10542:10546  user */\n      dup4\n        /* \"contracts/LiskGarden.sol\":10531:10547  userPlants[user] */\n      0xffffffffffffffffffffffffffffffffffffffff\n      and\n      0xffffffffffffffffffffffffffffffffffffffff\n      and\n      dup2\n      mstore\n      0x20\n      add\n      swap1\n      dup2\n      mstore\n      0x20\n      add\n      0x00\n      keccak256\n        /* \"contracts/LiskGarden.sol\":10524:10547  return userPlants[user] */\n      dup1\n      sload\n      dup1\n      0x20\n      mul\n      0x20\n      add\n      mload(0x40)\n      swap1\n      dup2\n      add\n      0x40\n      mstore\n      dup1\n      swap3\n      swap2\n      swap1\n      dup2\n      dup2\n      mstore\n      0x20\n      add\n      dup3\n      dup1\n      sload\n      dup1\n      iszero\n      tag_114\n      jumpi\n      0x20\n      mul\n      dup3\n      add\n      swap2\n      swap1\n      0x00\n      mstore\n      keccak256(0x00, 0x20)\n      swap1\n    tag_115:\n      dup2\n      sload\n      dup2\n      mstore\n      0x20\n      add\n      swap1\n      0x01\n      add\n      swap1\n      dup1\n      dup4\n      gt\n      tag_115\n      jumpi\n    tag_114:\n      pop\n      pop\n      pop\n      pop\n      pop\n      swap1\n      pop\n        /* \"contracts/LiskGarden.sol\":10435:10555  function getUserPlants(address user) external view returns (uint256[] memory) {... */\n      swap2\n      swap1\n      pop\n      jump\t// out\n        /* \"contracts/LiskGarden.sol\":4273:4293  Plant public myPlant */\n    tag_36:\n      0x04\n      dup1\n      0x00\n      add\n      sload\n      swap1\n      dup1\n      0x01\n      add\n      0x00\n      swap1\n      sload\n      swap1\n      0x0100\n      exp\n      swap1\n      div\n      0xffffffffffffffffffffffffffffffffffffffff\n      and\n      swap1\n      dup1\n      0x01\n      add\n      0x14\n      swap1\n      sload\n      swap1\n      0x0100\n      exp\n      swap1\n      div\n      0xff\n      and\n      swap1\n      dup1\n      0x02\n      add\n      sload\n      swap1\n      dup1\n      0x03\n      add\n      sload\n      swap1\n      dup1\n      0x04\n      add\n      sload\n      swap1\n      dup1\n      0x05\n      add\n      0x00\n      swap1\n      sload\n      swap1\n      0x0100\n      exp\n      swap1\n      div\n      0xff\n      and\n      swap1\n      dup1\n      0x05\n      add\n      0x01\n      swap1\n      sload\n      swap1\n      0x0100\n      exp\n      swap1\n      div\n      0xff\n      and\n      swap1\n      pop\n      dup9\n      jump\t// out\n        /* \"contracts/LiskGarden.sol\":10563:10773  function withdraw() external {... */\n    tag_41:\n        /* \"contracts/LiskGarden.sol\":10625:10630  owner */\n      0x03\n      0x00\n      swap1\n      sload\n      swap1\n      0x0100\n      exp\n      swap1\n      div\n      0xffffffffffffffffffffffffffffffffffffffff\n      and\n        /* \"contracts/LiskGarden.sol\":10611:10630  msg.sender == owner */\n      0xffffffffffffffffffffffffffffffffffffffff\n      and\n        /* \"contracts/LiskGarden.sol\":10611:10621  msg.sender */\n      caller\n        /* \"contracts/LiskGarden.sol\":10611:10630  msg.sender == owner */\n      0xffffffffffffffffffffffffffffffffffffffff\n      and\n      eq\n        /* \"contracts/LiskGarden.sol\":10603:10646  require(msg.sender == owner, \"Bukan owner\") */\n      tag_117\n      jumpi\n      mload(0x40)\n      0x08c379a000000000000000000000000000000000000000000000000000000000\n      dup2\n      mstore\n      0x04\n      add\n      tag_118\n      swap1\n      tag_119\n      jump\t// in\n    tag_118:\n      mload(0x40)\n      dup1\n      swap2\n      sub\n      swap1\n      revert\n    tag_117:\n        /* \"contracts/LiskGarden.sol\":10658:10670  bool success */\n      0x00\n        /* \"contracts/LiskGarden.sol\":10676:10681  owner */\n      0x03\n      0x00\n      swap1\n      sload\n      swap1\n      0x0100\n      exp\n      swap1\n      div\n      0xffffffffffffffffffffffffffffffffffffffff\n      and\n        /* \"contracts/LiskGarden.sol\":10676:10686  owner.call */\n      0xffffffffffffffffffffffffffffffffffffffff\n      and\n        /* \"contracts/LiskGarden.sol\":10694:10715  address(this).balance */\n      selfbalance\n        /* \"contracts/LiskGarden.sol\":10676:10720  owner.call{value: address(this).balance}(\"\") */\n      mload(0x40)\n      tag_120\n      swap1\n      tag_121\n      jump\t// in\n    tag_120:\n      0x00\n      mload(0x40)\n      dup1\n      dup4\n      sub\n      dup2\n      dup6\n      dup8\n      gas\n      call\n      swap3\n      pop\n      pop\n      pop\n      returndatasize\n      dup1\n      0x00\n      dup2\n      eq\n      tag_124\n      jumpi\n      mload(0x40)\n      swap2\n      pop\n      and(add(returndatasize, 0x3f), not(0x1f))\n      dup3\n      add\n      0x40\n      mstore\n      returndatasize\n      dup3\n      mstore\n      returndatasize\n      0x00\n      0x20\n      dup5\n      add\n      returndatacopy\n      jump(tag_123)\n    tag_124:\n      0x60\n      swap2\n      pop\n    tag_123:\n      pop\n        /* \"contracts/LiskGarden.sol\":10657:10720  (bool success, ) = owner.call{value: address(this).balance}(\"\") */\n      pop\n      swap1\n      pop\n        /* \"contracts/LiskGarden.sol\":10739:10746  success */\n      dup1\n        /* \"contracts/LiskGarden.sol\":10731:10765  require(success, \"Transfer gagal\") */\n      tag_125\n      jumpi\n      mload(0x40)\n      0x08c379a000000000000000000000000000000000000000000000000000000000\n      dup2\n      mstore\n      0x04\n      add\n      tag_126\n      swap1\n      tag_127\n      jump\t// in\n    tag_126:\n      mload(0x40)\n      dup1\n      swap2\n      sub\n      swap1\n      revert\n    tag_125:\n        /* \"contracts/LiskGarden.sol\":10592:10773  {... */\n      pop\n        /* \"contracts/LiskGarden.sol\":10563:10773  function withdraw() external {... */\n      jump\t// out\n        /* \"contracts/LiskGarden.sol\":2280:2330  uint256 public constant STAGE_DURATION = 1 minutes */\n    tag_44:\n        /* \"contracts/LiskGarden.sol\":2321:2330  1 minutes */\n      0x3c\n        /* \"contracts/LiskGarden.sol\":2280:2330  uint256 public constant STAGE_DURATION = 1 minutes */\n      dup2\n      jump\t// out\n        /* \"contracts/LiskGarden.sol\":4300:5037  function plantSeed() external payable returns (uint256) {... */\n    tag_48:\n        /* \"contracts/LiskGarden.sol\":4347:4354  uint256 */\n      0x00\n        /* \"contracts/LiskGarden.sol\":2043:2054  0.001 ether */\n      0x038d7ea4c68000\n        /* \"contracts/LiskGarden.sol\":4459:4468  msg.value */\n      callvalue\n        /* \"contracts/LiskGarden.sol\":4459:4483  msg.value >= PLANT_PRICE */\n      lt\n      iszero\n        /* \"contracts/LiskGarden.sol\":4451:4520  require(msg.value >= PLANT_PRICE, \"Insufficient funds to plant seed\") */\n      tag_129\n      jumpi\n      mload(0x40)\n      0x08c379a000000000000000000000000000000000000000000000000000000000\n      dup2\n      mstore\n      0x04\n      add\n      tag_130\n      swap1\n      tag_131\n      jump\t// in\n    tag_130:\n      mload(0x40)\n      dup1\n      swap2\n      sub\n      swap1\n      revert\n    tag_129:\n        /* \"contracts/LiskGarden.sol\":4531:4543  plantCounter */\n      0x02\n      0x00\n        /* \"contracts/LiskGarden.sol\":4531:4545  plantCounter++ */\n      dup2\n      sload\n      dup1\n      swap3\n      swap2\n      swap1\n      tag_132\n      swap1\n      tag_133\n      jump\t// in\n    tag_132:\n      swap2\n      swap1\n      pop\n      sstore\n      pop\n        /* \"contracts/LiskGarden.sol\":4566:4855  Plant({... */\n      mload(0x40)\n      dup1\n      0x0100\n      add\n      0x40\n      mstore\n      dup1\n        /* \"contracts/LiskGarden.sol\":4591:4603  plantCounter */\n      sload(0x02)\n        /* \"contracts/LiskGarden.sol\":4566:4855  Plant({... */\n      dup2\n      mstore\n      0x20\n      add\n        /* \"contracts/LiskGarden.sol\":4625:4635  msg.sender */\n      caller\n        /* \"contracts/LiskGarden.sol\":4566:4855  Plant({... */\n      0xffffffffffffffffffffffffffffffffffffffff\n      and\n      dup2\n      mstore\n      0x20\n      add\n        /* \"contracts/LiskGarden.sol\":4772:4788  GrowthStage.SEED */\n      0x00\n        /* \"contracts/LiskGarden.sol\":4566:4855  Plant({... */\n      0x03\n      dup2\n      gt\n      iszero\n      tag_134\n      jumpi\n      tag_135\n      tag_136\n      jump\t// in\n    tag_135:\n    tag_134:\n      dup2\n      mstore\n      0x20\n      add\n        /* \"contracts/LiskGarden.sol\":4748:4750  50 */\n      0x32\n        /* \"contracts/LiskGarden.sol\":4566:4855  Plant({... */\n      dup2\n      mstore\n      0x20\n      add\n        /* \"contracts/LiskGarden.sol\":4663:4678  block.timestamp */\n      timestamp\n        /* \"contracts/LiskGarden.sol\":4566:4855  Plant({... */\n      dup2\n      mstore\n      0x20\n      add\n        /* \"contracts/LiskGarden.sol\":4706:4721  block.timestamp */\n      timestamp\n        /* \"contracts/LiskGarden.sol\":4566:4855  Plant({... */\n      dup2\n      mstore\n      0x20\n      add\n        /* \"contracts/LiskGarden.sol\":4839:4843  true */\n      0x01\n        /* \"contracts/LiskGarden.sol\":4566:4855  Plant({... */\n      iszero\n      iszero\n      dup2\n      mstore\n      0x20\n      add\n        /* \"contracts/LiskGarden.sol\":4811:4816  false */\n      0x00\n        /* \"contracts/LiskGarden.sol\":4566:4855  Plant({... */\n      iszero\n      iszero\n      dup2\n      mstore\n      pop\n        /* \"contracts/LiskGarden.sol\":4556:4563  myPlant */\n      0x04\n        /* \"contracts/LiskGarden.sol\":4556:4855  myPlant = Plant({... */\n      0x00\n      dup3\n      add\n      mload\n      dup2\n      0x00\n      add\n      sstore\n      0x20\n      dup3\n      add\n      mload\n      dup2\n      0x01\n      add\n      exp(0x0100, 0x00)\n      dup2\n      sload\n      dup2\n      0xffffffffffffffffffffffffffffffffffffffff\n      mul\n      not\n      and\n      swap1\n      dup4\n      0xffffffffffffffffffffffffffffffffffffffff\n      and\n      mul\n      or\n      swap1\n      sstore\n      pop\n      0x40\n      dup3\n      add\n      mload\n      dup2\n      0x01\n      add\n      exp(0x0100, 0x14)\n      dup2\n      sload\n      dup2\n      0xff\n      mul\n      not\n      and\n      swap1\n      dup4\n      0x03\n      dup2\n      gt\n      iszero\n      tag_137\n      jumpi\n      tag_138\n      tag_136\n      jump\t// in\n    tag_138:\n    tag_137:\n      mul\n      or\n      swap1\n      sstore\n      pop\n      0x60\n      dup3\n      add\n      mload\n      dup2\n      0x02\n      add\n      sstore\n      0x80\n      dup3\n      add\n      mload\n      dup2\n      0x03\n      add\n      sstore\n      0xa0\n      dup3\n      add\n      mload\n      dup2\n      0x04\n      add\n      sstore\n      0xc0\n      dup3\n      add\n      mload\n      dup2\n      0x05\n      add\n      exp(0x0100, 0x00)\n      dup2\n      sload\n      dup2\n      0xff\n      mul\n      not\n      and\n      swap1\n      dup4\n      iszero\n      iszero\n      mul\n      or\n      swap1\n      sstore\n      pop\n      0xe0\n      dup3\n      add\n      mload\n      dup2\n      0x05\n      add\n      exp(0x0100, 0x01)\n      dup2\n      sload\n      dup2\n      0xff\n      mul\n      not\n      and\n      swap1\n      dup4\n      iszero\n      iszero\n      mul\n      or\n      swap1\n      sstore\n      pop\n      swap1\n      pop\n      pop\n        /* \"contracts/LiskGarden.sol\":4891:4898  myPlant */\n      0x04\n        /* \"contracts/LiskGarden.sol\":4868:4874  plants */\n      0x00\n        /* \"contracts/LiskGarden.sol\":4868:4888  plants[plantCounter] */\n      0x00\n        /* \"contracts/LiskGarden.sol\":4875:4887  plantCounter */\n      sload(0x02)\n        /* \"contracts/LiskGarden.sol\":4868:4888  plants[plantCounter] */\n      dup2\n      mstore\n      0x20\n      add\n      swap1\n      dup2\n      mstore\n      0x20\n      add\n      0x00\n      keccak256\n        /* \"contracts/LiskGarden.sol\":4868:4898  plants[plantCounter] = myPlant */\n      0x00\n      dup3\n      add\n      sload\n      dup2\n      0x00\n      add\n      sstore\n      0x01\n      dup3\n      add\n      0x00\n      swap1\n      sload\n      swap1\n      0x0100\n      exp\n      swap1\n      div\n      0xffffffffffffffffffffffffffffffffffffffff\n      and\n      dup2\n      0x01\n      add\n      exp(0x0100, 0x00)\n      dup2\n      sload\n      dup2\n      0xffffffffffffffffffffffffffffffffffffffff\n      mul\n      not\n      and\n      swap1\n      dup4\n      0xffffffffffffffffffffffffffffffffffffffff\n      and\n      mul\n      or\n      swap1\n      sstore\n      pop\n      0x01\n      dup3\n      add\n      0x14\n      swap1\n      sload\n      swap1\n      0x0100\n      exp\n      swap1\n      div\n      0xff\n      and\n      dup2\n      0x01\n      add\n      exp(0x0100, 0x14)\n      dup2\n      sload\n      dup2\n      0xff\n      mul\n      not\n      and\n      swap1\n      dup4\n      0x03\n      dup2\n      gt\n      iszero\n      tag_139\n      jumpi\n      tag_140\n      tag_136\n      jump\t// in\n    tag_140:\n    tag_139:\n      mul\n      or\n      swap1\n      sstore\n      pop\n      0x02\n      dup3\n      add\n      sload\n      dup2\n      0x02\n      add\n      sstore\n      0x03\n      dup3\n      add\n      sload\n      dup2\n      0x03\n      add\n      sstore\n      0x04\n      dup3\n      add\n      sload\n      dup2\n      0x04\n      add\n      sstore\n      0x05\n      dup3\n      add\n      0x00\n      swap1\n      sload\n      swap1\n      0x0100\n      exp\n      swap1\n      div\n      0xff\n      and\n      dup2\n      0x05\n      add\n      exp(0x0100, 0x00)\n      dup2\n      sload\n      dup2\n      0xff\n      mul\n      not\n      and\n      swap1\n      dup4\n      iszero\n      iszero\n      mul\n      or\n      swap1\n      sstore\n      pop\n      0x05\n      dup3\n      add\n      0x01\n      swap1\n      sload\n      swap1\n      0x0100\n      exp\n      swap1\n      div\n      0xff\n      and\n      dup2\n      0x05\n      add\n      exp(0x0100, 0x01)\n      dup2\n      sload\n      dup2\n      0xff\n      mul\n      not\n      and\n      swap1\n      dup4\n      iszero\n      iszero\n      mul\n      or\n      swap1\n      sstore\n      pop\n      swap1\n      pop\n      pop\n        /* \"contracts/LiskGarden.sol\":4911:4921  userPlants */\n      0x01\n        /* \"contracts/LiskGarden.sol\":4911:4928  userPlants[owner] */\n      0x00\n        /* \"contracts/LiskGarden.sol\":4922:4927  owner */\n      0x03\n      0x00\n      swap1\n      sload\n      swap1\n      0x0100\n      exp\n      swap1\n      div\n      0xffffffffffffffffffffffffffffffffffffffff\n      and\n        /* \"contracts/LiskGarden.sol\":4911:4928  userPlants[owner] */\n      0xffffffffffffffffffffffffffffffffffffffff\n      and\n      0xffffffffffffffffffffffffffffffffffffffff\n      and\n      dup2\n      mstore\n      0x20\n      add\n      swap1\n      dup2\n      mstore\n      0x20\n      add\n      0x00\n      keccak256\n        /* \"contracts/LiskGarden.sol\":4934:4946  plantCounter */\n      sload(0x02)\n        /* \"contracts/LiskGarden.sol\":4911:4947  userPlants[owner].push(plantCounter) */\n      swap1\n      dup1\n      0x01\n      dup2\n      sload\n      add\n      dup1\n      dup3\n      sstore\n      dup1\n      swap2\n      pop\n      pop\n      0x01\n      swap1\n      sub\n      swap1\n      0x00\n      mstore\n      keccak256(0x00, 0x20)\n      add\n      0x00\n      swap1\n      swap2\n      swap1\n      swap2\n      swap1\n      swap2\n      pop\n      sstore\n        /* \"contracts/LiskGarden.sol\":4984:4996  plantCounter */\n      sload(0x02)\n        /* \"contracts/LiskGarden.sol\":4977:4982  owner */\n      0x03\n      0x00\n      swap1\n      sload\n      swap1\n      0x0100\n      exp\n      swap1\n      div\n      0xffffffffffffffffffffffffffffffffffffffff\n      and\n        /* \"contracts/LiskGarden.sol\":4965:4997  PlantSeeded(owner, plantCounter) */\n      0xffffffffffffffffffffffffffffffffffffffff\n      and\n      0x4f5b22082ac57121703b0b6c1203ef527cfbfa5069616fee6deb979d124adbf0\n      mload(0x40)\n      mload(0x40)\n      dup1\n      swap2\n      sub\n      swap1\n      log3\n        /* \"contracts/LiskGarden.sol\":5017:5029  plantCounter */\n      sload(0x02)\n        /* \"contracts/LiskGarden.sol\":5010:5029  return plantCounter */\n      swap1\n      pop\n        /* \"contracts/LiskGarden.sol\":4300:5037  function plantSeed() external payable returns (uint256) {... */\n      swap1\n      jump\t// out\n        /* \"contracts/LiskGarden.sol\":5669:6215  function calculateWaterLevel(uint256 plantId) public view returns (uint256) {... */\n    tag_54:\n        /* \"contracts/LiskGarden.sol\":5736:5743  uint256 */\n      0x00\n        /* \"contracts/LiskGarden.sol\":5784:5803  Plant storage plant */\n      0x00\n        /* \"contracts/LiskGarden.sol\":5806:5812  plants */\n      0x00\n        /* \"contracts/LiskGarden.sol\":5806:5821  plants[plantId] */\n      0x00\n        /* \"contracts/LiskGarden.sol\":5813:5820  plantId */\n      dup5\n        /* \"contracts/LiskGarden.sol\":5806:5821  plants[plantId] */\n      dup2\n      mstore\n      0x20\n      add\n      swap1\n      dup2\n      mstore\n      0x20\n      add\n      0x00\n      keccak256\n        /* \"contracts/LiskGarden.sol\":5784:5821  Plant storage plant = plants[plantId] */\n      swap1\n      pop\n        /* \"contracts/LiskGarden.sol\":5836:5841  plant */\n      dup1\n        /* \"contracts/LiskGarden.sol\":5836:5848  plant.exists */\n      0x05\n      add\n      0x00\n      swap1\n      sload\n      swap1\n      0x0100\n      exp\n      swap1\n      div\n      0xff\n      and\n        /* \"contracts/LiskGarden.sol\":5835:5848  !plant.exists */\n      iszero\n        /* \"contracts/LiskGarden.sol\":5835:5864  !plant.exists || plant.isDead */\n      dup1\n      tag_143\n      jumpi\n      pop\n        /* \"contracts/LiskGarden.sol\":5852:5857  plant */\n      dup1\n        /* \"contracts/LiskGarden.sol\":5852:5864  plant.isDead */\n      0x05\n      add\n      0x01\n      swap1\n      sload\n      swap1\n      0x0100\n      exp\n      swap1\n      div\n      0xff\n      and\n        /* \"contracts/LiskGarden.sol\":5835:5864  !plant.exists || plant.isDead */\n    tag_143:\n        /* \"contracts/LiskGarden.sol\":5832:5874  if(!plant.exists || plant.isDead) return 0 */\n      iszero\n      tag_144\n      jumpi\n        /* \"contracts/LiskGarden.sol\":5873:5874  0 */\n      0x00\n        /* \"contracts/LiskGarden.sol\":5866:5874  return 0 */\n      swap2\n      pop\n      pop\n      jump(tag_142)\n        /* \"contracts/LiskGarden.sol\":5832:5874  if(!plant.exists || plant.isDead) return 0 */\n    tag_144:\n        /* \"contracts/LiskGarden.sol\":5885:5909  uint256 timeSinceWatered */\n      0x00\n        /* \"contracts/LiskGarden.sol\":5930:5935  plant */\n      dup2\n        /* \"contracts/LiskGarden.sol\":5930:5947  plant.lastWatered */\n      0x04\n      add\n      sload\n        /* \"contracts/LiskGarden.sol\":5912:5927  block.timestamp */\n      timestamp\n        /* \"contracts/LiskGarden.sol\":5912:5947  block.timestamp - plant.lastWatered */\n      tag_145\n      swap2\n      swap1\n      tag_146\n      jump\t// in\n    tag_145:\n        /* \"contracts/LiskGarden.sol\":5885:5947  uint256 timeSinceWatered = block.timestamp - plant.lastWatered */\n      swap1\n      pop\n        /* \"contracts/LiskGarden.sol\":5958:5984  uint256 depletionIntervals */\n      0x00\n        /* \"contracts/LiskGarden.sol\":2439:2449  30 seconds */\n      0x1e\n        /* \"contracts/LiskGarden.sol\":5987:6003  timeSinceWatered */\n      dup3\n        /* \"contracts/LiskGarden.sol\":5987:6030  timeSinceWatered / WATER_DEPLETION_INTERVAL */\n      tag_147\n      swap2\n      swap1\n      tag_148\n      jump\t// in\n    tag_147:\n        /* \"contracts/LiskGarden.sol\":5958:6030  uint256 depletionIntervals = timeSinceWatered / WATER_DEPLETION_INTERVAL */\n      swap1\n      pop\n        /* \"contracts/LiskGarden.sol\":6041:6058  uint256 waterLost */\n      0x00\n        /* \"contracts/LiskGarden.sol\":2621:2622  2 */\n      0x02\n        /* \"contracts/LiskGarden.sol\":6061:6102  depletionIntervals * WATER_DEPLETION_RATE */\n      0xff\n      and\n        /* \"contracts/LiskGarden.sol\":6061:6079  depletionIntervals */\n      dup3\n        /* \"contracts/LiskGarden.sol\":6061:6102  depletionIntervals * WATER_DEPLETION_RATE */\n      tag_149\n      swap2\n      swap1\n      tag_150\n      jump\t// in\n    tag_149:\n        /* \"contracts/LiskGarden.sol\":6041:6102  uint256 waterLost = depletionIntervals * WATER_DEPLETION_RATE */\n      swap1\n      pop\n        /* \"contracts/LiskGarden.sol\":6129:6134  plant */\n      dup4\n        /* \"contracts/LiskGarden.sol\":6129:6145  plant.waterLevel */\n      0x02\n      add\n      sload\n        /* \"contracts/LiskGarden.sol\":6116:6125  waterLost */\n      dup2\n        /* \"contracts/LiskGarden.sol\":6116:6145  waterLost >= plant.waterLevel */\n      lt\n        /* \"contracts/LiskGarden.sol\":6113:6155  if(waterLost >= plant.waterLevel) return 0 */\n      tag_151\n      jumpi\n        /* \"contracts/LiskGarden.sol\":6154:6155  0 */\n      0x00\n        /* \"contracts/LiskGarden.sol\":6147:6155  return 0 */\n      swap5\n      pop\n      pop\n      pop\n      pop\n      pop\n      jump(tag_142)\n        /* \"contracts/LiskGarden.sol\":6113:6155  if(waterLost >= plant.waterLevel) return 0 */\n    tag_151:\n        /* \"contracts/LiskGarden.sol\":6192:6201  waterLost */\n      dup1\n        /* \"contracts/LiskGarden.sol\":6173:6178  plant */\n      dup5\n        /* \"contracts/LiskGarden.sol\":6173:6189  plant.waterLevel */\n      0x02\n      add\n      sload\n        /* \"contracts/LiskGarden.sol\":6173:6201  plant.waterLevel - waterLost */\n      tag_152\n      swap2\n      swap1\n      tag_146\n      jump\t// in\n    tag_152:\n        /* \"contracts/LiskGarden.sol\":6166:6201  return plant.waterLevel - waterLost */\n      swap5\n      pop\n      pop\n      pop\n      pop\n      pop\n        /* \"contracts/LiskGarden.sol\":5669:6215  function calculateWaterLevel(uint256 plantId) public view returns (uint256) {... */\n    tag_142:\n      swap2\n      swap1\n      pop\n      jump\t// out\n        /* \"contracts/LiskGarden.sol\":2108:2160  uint256 public constant HARVEST_REWARD = 0.003 ether */\n    tag_58:\n        /* \"contracts/LiskGarden.sol\":2149:2160  0.003 ether */\n      0x0aa87bee538000\n        /* \"contracts/LiskGarden.sol\":2108:2160  uint256 public constant HARVEST_REWARD = 0.003 ether */\n      dup2\n      jump\t// out\n        /* \"contracts/LiskGarden.sol\":1451:1498  mapping(address => uint256[]) public userPlants */\n    tag_64:\n      mstore(0x20, 0x01)\n      dup2\n      0x00\n      mstore\n      keccak256(0x00, 0x40)\n      dup2\n      dup2\n      sload\n      dup2\n      lt\n      tag_153\n      jumpi\n      0x00\n      dup1\n      revert\n    tag_153:\n      swap1\n      0x00\n      mstore\n      keccak256(0x00, 0x20)\n      add\n      0x00\n      swap2\n      pop\n      swap2\n      pop\n      pop\n      sload\n      dup2\n      jump\t// out\n        /* \"contracts/LiskGarden.sol\":1715:1735  address public owner */\n    tag_68:\n      0x03\n      0x00\n      swap1\n      sload\n      swap1\n      0x0100\n      exp\n      swap1\n      div\n      0xffffffffffffffffffffffffffffffffffffffff\n      and\n      dup2\n      jump\t// out\n        /* \"contracts/LiskGarden.sol\":1266:1305  mapping(uint256 => Plant) public plants */\n    tag_74:\n      mstore(0x20, 0x00)\n      dup1\n      0x00\n      mstore\n      keccak256(0x00, 0x40)\n      0x00\n      swap2\n      pop\n      swap1\n      pop\n      dup1\n      0x00\n      add\n      sload\n      swap1\n      dup1\n      0x01\n      add\n      0x00\n      swap1\n      sload\n      swap1\n      0x0100\n      exp\n      swap1\n      div\n      0xffffffffffffffffffffffffffffffffffffffff\n      and\n      swap1\n      dup1\n      0x01\n      add\n      0x14\n      swap1\n      sload\n      swap1\n      0x0100\n      exp\n      swap1\n      div\n      0xff\n      and\n      swap1\n      dup1\n      0x02\n      add\n      sload\n      swap1\n      dup1\n      0x03\n      add\n      sload\n      swap1\n      dup1\n      0x04\n      add\n      sload\n      swap1\n      dup1\n      0x05\n      add\n      0x00\n      swap1\n      sload\n      swap1\n      0x0100\n      exp\n      swap1\n      div\n      0xff\n      and\n      swap1\n      dup1\n      0x05\n      add\n      0x01\n      swap1\n      sload\n      swap1\n      0x0100\n      exp\n      swap1\n      div\n      0xff\n      and\n      swap1\n      pop\n      dup9\n      jump\t// out\n        /* \"contracts/LiskGarden.sol\":2388:2449  uint256 public constant WATER_DEPLETION_INTERVAL = 30 seconds */\n    tag_78:\n        /* \"contracts/LiskGarden.sol\":2439:2449  30 seconds */\n      0x1e\n        /* \"contracts/LiskGarden.sol\":2388:2449  uint256 public constant WATER_DEPLETION_INTERVAL = 30 seconds */\n      dup2\n      jump\t// out\n        /* \"contracts/LiskGarden.sol\":7169:7623  function waterPlant(uint256 plantId) external {... */\n    tag_83:\n        /* \"contracts/LiskGarden.sol\":7254:7273  Plant storage plant */\n      0x00\n        /* \"contracts/LiskGarden.sol\":7276:7282  plants */\n      0x00\n        /* \"contracts/LiskGarden.sol\":7276:7291  plants[plantId] */\n      0x00\n        /* \"contracts/LiskGarden.sol\":7283:7290  plantId */\n      dup4\n        /* \"contracts/LiskGarden.sol\":7276:7291  plants[plantId] */\n      dup2\n      mstore\n      0x20\n      add\n      swap1\n      dup2\n      mstore\n      0x20\n      add\n      0x00\n      keccak256\n        /* \"contracts/LiskGarden.sol\":7254:7291  Plant storage plant = plants[plantId] */\n      swap1\n      pop\n        /* \"contracts/LiskGarden.sol\":7310:7315  plant */\n      dup1\n        /* \"contracts/LiskGarden.sol\":7310:7322  plant.exists */\n      0x05\n      add\n      0x00\n      swap1\n      sload\n      swap1\n      0x0100\n      exp\n      swap1\n      div\n      0xff\n      and\n        /* \"contracts/LiskGarden.sol\":7302:7339  require(plant.exists, \"Tanaman Mati\") */\n      tag_156\n      jumpi\n      mload(0x40)\n      0x08c379a000000000000000000000000000000000000000000000000000000000\n      dup2\n      mstore\n      0x04\n      add\n      tag_157\n      swap1\n      tag_158\n      jump\t// in\n    tag_157:\n      mload(0x40)\n      dup1\n      swap2\n      sub\n      swap1\n      revert\n    tag_156:\n        /* \"contracts/LiskGarden.sol\":7373:7383  msg.sender */\n      caller\n        /* \"contracts/LiskGarden.sol\":7358:7383  plant.owner == msg.sender */\n      0xffffffffffffffffffffffffffffffffffffffff\n      and\n        /* \"contracts/LiskGarden.sol\":7358:7363  plant */\n      dup2\n        /* \"contracts/LiskGarden.sol\":7358:7369  plant.owner */\n      0x01\n      add\n      0x00\n      swap1\n      sload\n      swap1\n      0x0100\n      exp\n      swap1\n      div\n      0xffffffffffffffffffffffffffffffffffffffff\n      and\n        /* \"contracts/LiskGarden.sol\":7358:7383  plant.owner == msg.sender */\n      0xffffffffffffffffffffffffffffffffffffffff\n      and\n      eq\n        /* \"contracts/LiskGarden.sol\":7350:7407  require(plant.owner == msg.sender, \"Bukan tanaman Anda!\") */\n      tag_159\n      jumpi\n      mload(0x40)\n      0x08c379a000000000000000000000000000000000000000000000000000000000\n      dup2\n      mstore\n      0x04\n      add\n      tag_160\n      swap1\n      tag_161\n      jump\t// in\n    tag_160:\n      mload(0x40)\n      dup1\n      swap2\n      sub\n      swap1\n      revert\n    tag_159:\n        /* \"contracts/LiskGarden.sol\":7427:7432  plant */\n      dup1\n        /* \"contracts/LiskGarden.sol\":7427:7439  plant.isDead */\n      0x05\n      add\n      0x01\n      swap1\n      sload\n      swap1\n      0x0100\n      exp\n      swap1\n      div\n      0xff\n      and\n        /* \"contracts/LiskGarden.sol\":7426:7439  !plant.isDead */\n      iszero\n        /* \"contracts/LiskGarden.sol\":7418:7456  require(!plant.isDead, \"Tanaman Mati\") */\n      tag_162\n      jumpi\n      mload(0x40)\n      0x08c379a000000000000000000000000000000000000000000000000000000000\n      dup2\n      mstore\n      0x04\n      add\n      tag_163\n      swap1\n      tag_158\n      jump\t// in\n    tag_163:\n      mload(0x40)\n      dup1\n      swap2\n      sub\n      swap1\n      revert\n    tag_162:\n        /* \"contracts/LiskGarden.sol\":7486:7489  100 */\n      0x64\n        /* \"contracts/LiskGarden.sol\":7467:7472  plant */\n      dup2\n        /* \"contracts/LiskGarden.sol\":7467:7483  plant.waterLevel */\n      0x02\n      add\n        /* \"contracts/LiskGarden.sol\":7467:7489  plant.waterLevel = 100 */\n      dup2\n      swap1\n      sstore\n      pop\n        /* \"contracts/LiskGarden.sol\":7520:7535  block.timestamp */\n      timestamp\n        /* \"contracts/LiskGarden.sol\":7500:7505  plant */\n      dup2\n        /* \"contracts/LiskGarden.sol\":7500:7517  plant.lastWatered */\n      0x04\n      add\n        /* \"contracts/LiskGarden.sol\":7500:7535  plant.lastWatered = block.timestamp */\n      dup2\n      swap1\n      sstore\n      pop\n        /* \"contracts/LiskGarden.sol\":7564:7571  plantId */\n      dup2\n        /* \"contracts/LiskGarden.sol\":7551:7577  PlantWatered(plantId, 100) */\n      0xd4b742b9ba48fffa1f14267075a7793851770764117c423fd0a6550dfc8cb574\n        /* \"contracts/LiskGarden.sol\":7573:7576  100 */\n      0x64\n        /* \"contracts/LiskGarden.sol\":7551:7577  PlantWatered(plantId, 100) */\n      mload(0x40)\n      tag_164\n      swap2\n      swap1\n      tag_165\n      jump\t// in\n    tag_164:\n      mload(0x40)\n      dup1\n      swap2\n      sub\n      swap1\n      log2\n        /* \"contracts/LiskGarden.sol\":7588:7613  updatePlantStage(plantId) */\n      tag_166\n        /* \"contracts/LiskGarden.sol\":7605:7612  plantId */\n      dup3\n        /* \"contracts/LiskGarden.sol\":7588:7604  updatePlantStage */\n      tag_102\n        /* \"contracts/LiskGarden.sol\":7588:7613  updatePlantStage(plantId) */\n      jump\t// in\n    tag_166:\n        /* \"contracts/LiskGarden.sol\":7215:7623  {... */\n      pop\n        /* \"contracts/LiskGarden.sol\":7169:7623  function waterPlant(uint256 plantId) external {... */\n      pop\n      jump\t// out\n        /* \"contracts/LiskGarden.sol\":1600:1627  uint256 public plantCounter */\n    tag_86:\n      sload(0x02)\n      dup2\n      jump\t// out\n        /* \"contracts/LiskGarden.sol\":2576:2622  uint8 public constant WATER_DEPLETION_RATE = 2 */\n    tag_90:\n        /* \"contracts/LiskGarden.sol\":2621:2622  2 */\n      0x02\n        /* \"contracts/LiskGarden.sol\":2576:2622  uint8 public constant WATER_DEPLETION_RATE = 2 */\n      dup2\n      jump\t// out\n        /* \"contracts/LiskGarden.sol\":2005:2054  uint256 public constant PLANT_PRICE = 0.001 ether */\n    tag_95:\n        /* \"contracts/LiskGarden.sol\":2043:2054  0.001 ether */\n      0x038d7ea4c68000\n        /* \"contracts/LiskGarden.sol\":2005:2054  uint256 public constant PLANT_PRICE = 0.001 ether */\n      dup2\n      jump\t// out\n        /* \"contracts/LiskGarden.sol\":10391:10427  function deposit() public payable {} */\n    tag_98:\n      jump\t// out\n        /* \"contracts/LiskGarden.sol\":8107:9002  function updatePlantStage(uint256 plantId) public {... */\n    tag_102:\n        /* \"contracts/LiskGarden.sol\":8196:8215  Plant storage plant */\n      0x00\n        /* \"contracts/LiskGarden.sol\":8218:8224  plants */\n      0x00\n        /* \"contracts/LiskGarden.sol\":8218:8233  plants[plantId] */\n      0x00\n        /* \"contracts/LiskGarden.sol\":8225:8232  plantId */\n      dup4\n        /* \"contracts/LiskGarden.sol\":8218:8233  plants[plantId] */\n      dup2\n      mstore\n      0x20\n      add\n      swap1\n      dup2\n      mstore\n      0x20\n      add\n      0x00\n      keccak256\n        /* \"contracts/LiskGarden.sol\":8196:8233  Plant storage plant = plants[plantId] */\n      swap1\n      pop\n        /* \"contracts/LiskGarden.sol\":8254:8259  plant */\n      dup1\n        /* \"contracts/LiskGarden.sol\":8254:8266  plant.exists */\n      0x05\n      add\n      0x00\n      swap1\n      sload\n      swap1\n      0x0100\n      exp\n      swap1\n      div\n      0xff\n      and\n        /* \"contracts/LiskGarden.sol\":8246:8283  require(plant.exists, \"Tanaman Mati\") */\n      tag_169\n      jumpi\n      mload(0x40)\n      0x08c379a000000000000000000000000000000000000000000000000000000000\n      dup2\n      mstore\n      0x04\n      add\n      tag_170\n      swap1\n      tag_158\n      jump\t// in\n    tag_170:\n      mload(0x40)\n      dup1\n      swap2\n      sub\n      swap1\n      revert\n    tag_169:\n        /* \"contracts/LiskGarden.sol\":8294:8319  updateWaterLevel(plantId) */\n      tag_171\n        /* \"contracts/LiskGarden.sol\":8311:8318  plantId */\n      dup3\n        /* \"contracts/LiskGarden.sol\":8294:8310  updateWaterLevel */\n      tag_172\n        /* \"contracts/LiskGarden.sol\":8294:8319  updateWaterLevel(plantId) */\n      jump\t// in\n    tag_171:\n        /* \"contracts/LiskGarden.sol\":8333:8338  plant */\n      dup1\n        /* \"contracts/LiskGarden.sol\":8333:8345  plant.isDead */\n      0x05\n      add\n      0x01\n      swap1\n      sload\n      swap1\n      0x0100\n      exp\n      swap1\n      div\n      0xff\n      and\n        /* \"contracts/LiskGarden.sol\":8330:8354  if(plant.isDead) return; */\n      iszero\n      tag_173\n      jumpi\n        /* \"contracts/LiskGarden.sol\":8347:8354  return; */\n      pop\n      jump(tag_168)\n        /* \"contracts/LiskGarden.sol\":8330:8354  if(plant.isDead) return; */\n    tag_173:\n        /* \"contracts/LiskGarden.sol\":8364:8388  uint256 timeSincePlanted */\n      0x00\n        /* \"contracts/LiskGarden.sol\":8410:8415  plant */\n      dup2\n        /* \"contracts/LiskGarden.sol\":8410:8427  plant.plantedDate */\n      0x03\n      add\n      sload\n        /* \"contracts/LiskGarden.sol\":8392:8407  block.timestamp */\n      timestamp\n        /* \"contracts/LiskGarden.sol\":8392:8427  block.timestamp - plant.plantedDate */\n      tag_174\n      swap2\n      swap1\n      tag_146\n      jump\t// in\n    tag_174:\n        /* \"contracts/LiskGarden.sol\":8364:8427  uint256 timeSincePlanted =  block.timestamp - plant.plantedDate */\n      swap1\n      pop\n        /* \"contracts/LiskGarden.sol\":8438:8458  GrowthStage oldStage */\n      0x00\n        /* \"contracts/LiskGarden.sol\":8461:8466  plant */\n      dup3\n        /* \"contracts/LiskGarden.sol\":8461:8472  plant.stage */\n      0x01\n      add\n      0x14\n      swap1\n      sload\n      swap1\n      0x0100\n      exp\n      swap1\n      div\n      0xff\n      and\n        /* \"contracts/LiskGarden.sol\":8438:8472  GrowthStage oldStage = plant.stage */\n      swap1\n      pop\n        /* \"contracts/LiskGarden.sol\":8499:8515  GrowthStage.SEED */\n      0x00\n        /* \"contracts/LiskGarden.sol\":8487:8515  oldStage == GrowthStage.SEED */\n      0x03\n      dup2\n      gt\n      iszero\n      tag_175\n      jumpi\n      tag_176\n      tag_136\n      jump\t// in\n    tag_176:\n    tag_175:\n        /* \"contracts/LiskGarden.sol\":8487:8495  oldStage */\n      dup2\n        /* \"contracts/LiskGarden.sol\":8487:8515  oldStage == GrowthStage.SEED */\n      0x03\n      dup2\n      gt\n      iszero\n      tag_177\n      jumpi\n      tag_178\n      tag_136\n      jump\t// in\n    tag_178:\n    tag_177:\n      sub\n        /* \"contracts/LiskGarden.sol\":8483:8989  if (oldStage == GrowthStage.SEED) {... */\n      tag_179\n      jumpi\n        /* \"contracts/LiskGarden.sol\":8546:8564  GrowthStage.SPROUT */\n      0x01\n        /* \"contracts/LiskGarden.sol\":8532:8537  plant */\n      dup4\n        /* \"contracts/LiskGarden.sol\":8532:8543  plant.stage */\n      0x01\n      add\n      0x14\n        /* \"contracts/LiskGarden.sol\":8532:8564  plant.stage = GrowthStage.SPROUT */\n      0x0100\n      exp\n      dup2\n      sload\n      dup2\n      0xff\n      mul\n      not\n      and\n      swap1\n      dup4\n      0x03\n      dup2\n      gt\n      iszero\n      tag_180\n      jumpi\n      tag_181\n      tag_136\n      jump\t// in\n    tag_181:\n    tag_180:\n      mul\n      or\n      swap1\n      sstore\n      pop\n        /* \"contracts/LiskGarden.sol\":8598:8605  plantId */\n      dup4\n        /* \"contracts/LiskGarden.sol\":8584:8626  StageAdvanced(plantId, GrowthStage.SPROUT) */\n      0x338b8976706f9da67298dddfa1ea4ff7d99cce68b9ca39c4f348994f8e2124a8\n        /* \"contracts/LiskGarden.sol\":8607:8625  GrowthStage.SPROUT */\n      0x01\n        /* \"contracts/LiskGarden.sol\":8584:8626  StageAdvanced(plantId, GrowthStage.SPROUT) */\n      mload(0x40)\n      tag_182\n      swap2\n      swap1\n      tag_183\n      jump\t// in\n    tag_182:\n      mload(0x40)\n      dup1\n      swap2\n      sub\n      swap1\n      log2\n        /* \"contracts/LiskGarden.sol\":8483:8989  if (oldStage == GrowthStage.SEED) {... */\n      jump(tag_184)\n    tag_179:\n        /* \"contracts/LiskGarden.sol\":8669:8687  GrowthStage.SPROUT */\n      0x01\n        /* \"contracts/LiskGarden.sol\":8657:8687  oldStage == GrowthStage.SPROUT */\n      0x03\n      dup2\n      gt\n      iszero\n      tag_185\n      jumpi\n      tag_186\n      tag_136\n      jump\t// in\n    tag_186:\n    tag_185:\n        /* \"contracts/LiskGarden.sol\":8657:8665  oldStage */\n      dup2\n        /* \"contracts/LiskGarden.sol\":8657:8687  oldStage == GrowthStage.SPROUT */\n      0x03\n      dup2\n      gt\n      iszero\n      tag_187\n      jumpi\n      tag_188\n      tag_136\n      jump\t// in\n    tag_188:\n    tag_187:\n      sub\n        /* \"contracts/LiskGarden.sol\":8653:8989  if (oldStage == GrowthStage.SPROUT) {... */\n      tag_189\n      jumpi\n        /* \"contracts/LiskGarden.sol\":8718:8737  GrowthStage.GROWING */\n      0x02\n        /* \"contracts/LiskGarden.sol\":8704:8709  plant */\n      dup4\n        /* \"contracts/LiskGarden.sol\":8704:8715  plant.stage */\n      0x01\n      add\n      0x14\n        /* \"contracts/LiskGarden.sol\":8704:8737  plant.stage = GrowthStage.GROWING */\n      0x0100\n      exp\n      dup2\n      sload\n      dup2\n      0xff\n      mul\n      not\n      and\n      swap1\n      dup4\n      0x03\n      dup2\n      gt\n      iszero\n      tag_190\n      jumpi\n      tag_191\n      tag_136\n      jump\t// in\n    tag_191:\n    tag_190:\n      mul\n      or\n      swap1\n      sstore\n      pop\n        /* \"contracts/LiskGarden.sol\":8771:8778  plantId */\n      dup4\n        /* \"contracts/LiskGarden.sol\":8757:8800  StageAdvanced(plantId, GrowthStage.GROWING) */\n      0x338b8976706f9da67298dddfa1ea4ff7d99cce68b9ca39c4f348994f8e2124a8\n        /* \"contracts/LiskGarden.sol\":8780:8799  GrowthStage.GROWING */\n      0x02\n        /* \"contracts/LiskGarden.sol\":8757:8800  StageAdvanced(plantId, GrowthStage.GROWING) */\n      mload(0x40)\n      tag_192\n      swap2\n      swap1\n      tag_183\n      jump\t// in\n    tag_192:\n      mload(0x40)\n      dup1\n      swap2\n      sub\n      swap1\n      log2\n        /* \"contracts/LiskGarden.sol\":8653:8989  if (oldStage == GrowthStage.SPROUT) {... */\n      jump(tag_193)\n    tag_189:\n        /* \"contracts/LiskGarden.sol\":8843:8862  GrowthStage.GROWING */\n      0x02\n        /* \"contracts/LiskGarden.sol\":8831:8862  oldStage == GrowthStage.GROWING */\n      0x03\n      dup2\n      gt\n      iszero\n      tag_194\n      jumpi\n      tag_195\n      tag_136\n      jump\t// in\n    tag_195:\n    tag_194:\n        /* \"contracts/LiskGarden.sol\":8831:8839  oldStage */\n      dup2\n        /* \"contracts/LiskGarden.sol\":8831:8862  oldStage == GrowthStage.GROWING */\n      0x03\n      dup2\n      gt\n      iszero\n      tag_196\n      jumpi\n      tag_197\n      tag_136\n      jump\t// in\n    tag_197:\n    tag_196:\n      sub\n        /* \"contracts/LiskGarden.sol\":8827:8989  if (oldStage == GrowthStage.GROWING) {... */\n      tag_198\n      jumpi\n        /* \"contracts/LiskGarden.sol\":8893:8913  GrowthStage.BLOOMING */\n      0x03\n        /* \"contracts/LiskGarden.sol\":8879:8884  plant */\n      dup4\n        /* \"contracts/LiskGarden.sol\":8879:8890  plant.stage */\n      0x01\n      add\n      0x14\n        /* \"contracts/LiskGarden.sol\":8879:8913  plant.stage = GrowthStage.BLOOMING */\n      0x0100\n      exp\n      dup2\n      sload\n      dup2\n      0xff\n      mul\n      not\n      and\n      swap1\n      dup4\n      0x03\n      dup2\n      gt\n      iszero\n      tag_199\n      jumpi\n      tag_200\n      tag_136\n      jump\t// in\n    tag_200:\n    tag_199:\n      mul\n      or\n      swap1\n      sstore\n      pop\n        /* \"contracts/LiskGarden.sol\":8947:8954  plantId */\n      dup4\n        /* \"contracts/LiskGarden.sol\":8933:8977  StageAdvanced(plantId, GrowthStage.BLOOMING) */\n      0x338b8976706f9da67298dddfa1ea4ff7d99cce68b9ca39c4f348994f8e2124a8\n        /* \"contracts/LiskGarden.sol\":8956:8976  GrowthStage.BLOOMING */\n      0x03\n        /* \"contracts/LiskGarden.sol\":8933:8977  StageAdvanced(plantId, GrowthStage.BLOOMING) */\n      mload(0x40)\n      tag_201\n      swap2\n      swap1\n      tag_183\n      jump\t// in\n    tag_201:\n      mload(0x40)\n      dup1\n      swap2\n      sub\n      swap1\n      log2\n        /* \"contracts/LiskGarden.sol\":8827:8989  if (oldStage == GrowthStage.GROWING) {... */\n    tag_198:\n        /* \"contracts/LiskGarden.sol\":8653:8989  if (oldStage == GrowthStage.SPROUT) {... */\n    tag_193:\n        /* \"contracts/LiskGarden.sol\":8483:8989  if (oldStage == GrowthStage.SEED) {... */\n    tag_184:\n        /* \"contracts/LiskGarden.sol\":8157:9002  {... */\n      pop\n      pop\n      pop\n        /* \"contracts/LiskGarden.sol\":8107:9002  function updatePlantStage(uint256 plantId) public {... */\n    tag_168:\n      pop\n      jump\t// out\n        /* \"contracts/LiskGarden.sol\":9353:10018  function harvestPlant(uint256 plantId) external {... */\n    tag_106:\n        /* \"contracts/LiskGarden.sol\":9440:9459  Plant storage plant */\n      0x00\n        /* \"contracts/LiskGarden.sol\":9462:9468  plants */\n      0x00\n        /* \"contracts/LiskGarden.sol\":9462:9477  plants[plantId] */\n      0x00\n        /* \"contracts/LiskGarden.sol\":9469:9476  plantId */\n      dup4\n        /* \"contracts/LiskGarden.sol\":9462:9477  plants[plantId] */\n      dup2\n      mstore\n      0x20\n      add\n      swap1\n      dup2\n      mstore\n      0x20\n      add\n      0x00\n      keccak256\n        /* \"contracts/LiskGarden.sol\":9440:9477  Plant storage plant = plants[plantId] */\n      swap1\n      pop\n        /* \"contracts/LiskGarden.sol\":9498:9503  plant */\n      dup1\n        /* \"contracts/LiskGarden.sol\":9498:9510  plant.exists */\n      0x05\n      add\n      0x00\n      swap1\n      sload\n      swap1\n      0x0100\n      exp\n      swap1\n      div\n      0xff\n      and\n        /* \"contracts/LiskGarden.sol\":9490:9527  require(plant.exists, \"Tanaman Mati\") */\n      tag_203\n      jumpi\n      mload(0x40)\n      0x08c379a000000000000000000000000000000000000000000000000000000000\n      dup2\n      mstore\n      0x04\n      add\n      tag_204\n      swap1\n      tag_158\n      jump\t// in\n    tag_204:\n      mload(0x40)\n      dup1\n      swap2\n      sub\n      swap1\n      revert\n    tag_203:\n        /* \"contracts/LiskGarden.sol\":9561:9571  msg.sender */\n      caller\n        /* \"contracts/LiskGarden.sol\":9546:9571  plant.owner == msg.sender */\n      0xffffffffffffffffffffffffffffffffffffffff\n      and\n        /* \"contracts/LiskGarden.sol\":9546:9551  plant */\n      dup2\n        /* \"contracts/LiskGarden.sol\":9546:9557  plant.owner */\n      0x01\n      add\n      0x00\n      swap1\n      sload\n      swap1\n      0x0100\n      exp\n      swap1\n      div\n      0xffffffffffffffffffffffffffffffffffffffff\n      and\n        /* \"contracts/LiskGarden.sol\":9546:9571  plant.owner == msg.sender */\n      0xffffffffffffffffffffffffffffffffffffffff\n      and\n      eq\n        /* \"contracts/LiskGarden.sol\":9538:9595  require(plant.owner == msg.sender, \"Bukan tanaman Anda!\") */\n      tag_205\n      jumpi\n      mload(0x40)\n      0x08c379a000000000000000000000000000000000000000000000000000000000\n      dup2\n      mstore\n      0x04\n      add\n      tag_206\n      swap1\n      tag_161\n      jump\t// in\n    tag_206:\n      mload(0x40)\n      dup1\n      swap2\n      sub\n      swap1\n      revert\n    tag_205:\n        /* \"contracts/LiskGarden.sol\":9615:9620  plant */\n      dup1\n        /* \"contracts/LiskGarden.sol\":9615:9627  plant.isDead */\n      0x05\n      add\n      0x01\n      swap1\n      sload\n      swap1\n      0x0100\n      exp\n      swap1\n      div\n      0xff\n      and\n        /* \"contracts/LiskGarden.sol\":9614:9627  !plant.isDead */\n      iszero\n        /* \"contracts/LiskGarden.sol\":9606:9644  require(!plant.isDead, \"Tanaman Mati\") */\n      tag_207\n      jumpi\n      mload(0x40)\n      0x08c379a000000000000000000000000000000000000000000000000000000000\n      dup2\n      mstore\n      0x04\n      add\n      tag_208\n      swap1\n      tag_158\n      jump\t// in\n    tag_208:\n      mload(0x40)\n      dup1\n      swap2\n      sub\n      swap1\n      revert\n    tag_207:\n        /* \"contracts/LiskGarden.sol\":9655:9680  updatePlantStage(plantId) */\n      tag_209\n        /* \"contracts/LiskGarden.sol\":9672:9679  plantId */\n      dup3\n        /* \"contracts/LiskGarden.sol\":9655:9671  updatePlantStage */\n      tag_102\n        /* \"contracts/LiskGarden.sol\":9655:9680  updatePlantStage(plantId) */\n      jump\t// in\n    tag_209:\n        /* \"contracts/LiskGarden.sol\":9714:9734  GrowthStage.BLOOMING */\n      0x03\n        /* \"contracts/LiskGarden.sol\":9699:9734  plant.stage == GrowthStage.BLOOMING */\n      dup1\n      dup2\n      gt\n      iszero\n      tag_210\n      jumpi\n      tag_211\n      tag_136\n      jump\t// in\n    tag_211:\n    tag_210:\n        /* \"contracts/LiskGarden.sol\":9699:9704  plant */\n      dup2\n        /* \"contracts/LiskGarden.sol\":9699:9710  plant.stage */\n      0x01\n      add\n      0x14\n      swap1\n      sload\n      swap1\n      0x0100\n      exp\n      swap1\n      div\n      0xff\n      and\n        /* \"contracts/LiskGarden.sol\":9699:9734  plant.stage == GrowthStage.BLOOMING */\n      0x03\n      dup2\n      gt\n      iszero\n      tag_212\n      jumpi\n      tag_213\n      tag_136\n      jump\t// in\n    tag_213:\n    tag_212:\n      eq\n        /* \"contracts/LiskGarden.sol\":9691:9759  require(plant.stage == GrowthStage.BLOOMING, \"Stage harus blooming\") */\n      tag_214\n      jumpi\n      mload(0x40)\n      0x08c379a000000000000000000000000000000000000000000000000000000000\n      dup2\n      mstore\n      0x04\n      add\n      tag_215\n      swap1\n      tag_216\n      jump\t// in\n    tag_215:\n      mload(0x40)\n      dup1\n      swap2\n      sub\n      swap1\n      revert\n    tag_214:\n        /* \"contracts/LiskGarden.sol\":9785:9790  false */\n      0x00\n        /* \"contracts/LiskGarden.sol\":9770:9775  plant */\n      dup2\n        /* \"contracts/LiskGarden.sol\":9770:9782  plant.exists */\n      0x05\n      add\n      0x00\n        /* \"contracts/LiskGarden.sol\":9770:9790  plant.exists = false */\n      0x0100\n      exp\n      dup2\n      sload\n      dup2\n      0xff\n      mul\n      not\n      and\n      swap1\n      dup4\n      iszero\n      iszero\n      mul\n      or\n      swap1\n      sstore\n      pop\n        /* \"contracts/LiskGarden.sol\":9801:9815  uint256 reward */\n      0x00\n        /* \"contracts/LiskGarden.sol\":2149:2160  0.003 ether */\n      0x0aa87bee538000\n        /* \"contracts/LiskGarden.sol\":9801:9832  uint256 reward = HARVEST_REWARD */\n      swap1\n      pop\n        /* \"contracts/LiskGarden.sol\":9872:9877  owner */\n      0x03\n      0x00\n      swap1\n      sload\n      swap1\n      0x0100\n      exp\n      swap1\n      div\n      0xffffffffffffffffffffffffffffffffffffffff\n      and\n        /* \"contracts/LiskGarden.sol\":9848:9886  PlantHarvested(plantId, owner, reward) */\n      0xffffffffffffffffffffffffffffffffffffffff\n      and\n        /* \"contracts/LiskGarden.sol\":9863:9870  plantId */\n      dup4\n        /* \"contracts/LiskGarden.sol\":9848:9886  PlantHarvested(plantId, owner, reward) */\n      0x79f2138ea100070ff95b59c265da7aa3c7a0f61595fe1bb2f5fda2762f398847\n        /* \"contracts/LiskGarden.sol\":9879:9885  reward */\n      dup4\n        /* \"contracts/LiskGarden.sol\":9848:9886  PlantHarvested(plantId, owner, reward) */\n      mload(0x40)\n      tag_217\n      swap2\n      swap1\n      tag_46\n      jump\t// in\n    tag_217:\n      mload(0x40)\n      dup1\n      swap2\n      sub\n      swap1\n      log3\n        /* \"contracts/LiskGarden.sol\":9900:9912  bool success */\n      0x00\n        /* \"contracts/LiskGarden.sol\":9918:9928  msg.sender */\n      caller\n        /* \"contracts/LiskGarden.sol\":9918:9933  msg.sender.call */\n      0xffffffffffffffffffffffffffffffffffffffff\n      and\n        /* \"contracts/LiskGarden.sol\":9941:9952  0.003 ether */\n      0x0aa87bee538000\n        /* \"contracts/LiskGarden.sol\":9918:9957  msg.sender.call{value: 0.003 ether}(\"\") */\n      mload(0x40)\n      tag_218\n      swap1\n      tag_121\n      jump\t// in\n    tag_218:\n      0x00\n      mload(0x40)\n      dup1\n      dup4\n      sub\n      dup2\n      dup6\n      dup8\n      gas\n      call\n      swap3\n      pop\n      pop\n      pop\n      returndatasize\n      dup1\n      0x00\n      dup2\n      eq\n      tag_221\n      jumpi\n      mload(0x40)\n      swap2\n      pop\n      and(add(returndatasize, 0x3f), not(0x1f))\n      dup3\n      add\n      0x40\n      mstore\n      returndatasize\n      dup3\n      mstore\n      returndatasize\n      0x00\n      0x20\n      dup5\n      add\n      returndatacopy\n      jump(tag_220)\n    tag_221:\n      0x60\n      swap2\n      pop\n    tag_220:\n      pop\n        /* \"contracts/LiskGarden.sol\":9899:9957  (bool success, ) = msg.sender.call{value: 0.003 ether}(\"\") */\n      pop\n      swap1\n      pop\n        /* \"contracts/LiskGarden.sol\":9976:9983  success */\n      dup1\n        /* \"contracts/LiskGarden.sol\":9968:10002  require(success, \"Transfer gagal\") */\n      tag_222\n      jumpi\n      mload(0x40)\n      0x08c379a000000000000000000000000000000000000000000000000000000000\n      dup2\n      mstore\n      0x04\n      add\n      tag_223\n      swap1\n      tag_127\n      jump\t// in\n    tag_223:\n      mload(0x40)\n      dup1\n      swap2\n      sub\n      swap1\n      revert\n    tag_222:\n        /* \"contracts/LiskGarden.sol\":9401:10018  {... */\n      pop\n      pop\n      pop\n        /* \"contracts/LiskGarden.sol\":9353:10018  function harvestPlant(uint256 plantId) external {... */\n      pop\n      jump\t// out\n        /* \"contracts/LiskGarden.sol\":10175:10383  function getPlant(uint256 plantId) external view returns (Plant memory) {... */\n    tag_110:\n        /* \"contracts/LiskGarden.sol\":10233:10245  Plant memory */\n      tag_224\n      tag_225\n      jump\t// in\n    tag_224:\n        /* \"contracts/LiskGarden.sol\":10258:10276  Plant memory plant */\n      0x00\n        /* \"contracts/LiskGarden.sol\":10279:10285  plants */\n      0x00\n        /* \"contracts/LiskGarden.sol\":10279:10294  plants[plantId] */\n      0x00\n        /* \"contracts/LiskGarden.sol\":10286:10293  plantId */\n      dup5\n        /* \"contracts/LiskGarden.sol\":10279:10294  plants[plantId] */\n      dup2\n      mstore\n      0x20\n      add\n      swap1\n      dup2\n      mstore\n      0x20\n      add\n      0x00\n      keccak256\n        /* \"contracts/LiskGarden.sol\":10258:10294  Plant memory plant = plants[plantId] */\n      mload(0x40)\n      dup1\n      0x0100\n      add\n      0x40\n      mstore\n      swap1\n      dup2\n      0x00\n      dup3\n      add\n      sload\n      dup2\n      mstore\n      0x20\n      add\n      0x01\n      dup3\n      add\n      0x00\n      swap1\n      sload\n      swap1\n      0x0100\n      exp\n      swap1\n      div\n      0xffffffffffffffffffffffffffffffffffffffff\n      and\n      0xffffffffffffffffffffffffffffffffffffffff\n      and\n      0xffffffffffffffffffffffffffffffffffffffff\n      and\n      dup2\n      mstore\n      0x20\n      add\n      0x01\n      dup3\n      add\n      0x14\n      swap1\n      sload\n      swap1\n      0x0100\n      exp\n      swap1\n      div\n      0xff\n      and\n      0x03\n      dup2\n      gt\n      iszero\n      tag_227\n      jumpi\n      tag_228\n      tag_136\n      jump\t// in\n    tag_228:\n    tag_227:\n      0x03\n      dup2\n      gt\n      iszero\n      tag_229\n      jumpi\n      tag_230\n      tag_136\n      jump\t// in\n    tag_230:\n    tag_229:\n      dup2\n      mstore\n      0x20\n      add\n      0x02\n      dup3\n      add\n      sload\n      dup2\n      mstore\n      0x20\n      add\n      0x03\n      dup3\n      add\n      sload\n      dup2\n      mstore\n      0x20\n      add\n      0x04\n      dup3\n      add\n      sload\n      dup2\n      mstore\n      0x20\n      add\n      0x05\n      dup3\n      add\n      0x00\n      swap1\n      sload\n      swap1\n      0x0100\n      exp\n      swap1\n      div\n      0xff\n      and\n      iszero\n      iszero\n      iszero\n      iszero\n      dup2\n      mstore\n      0x20\n      add\n      0x05\n      dup3\n      add\n      0x01\n      swap1\n      sload\n      swap1\n      0x0100\n      exp\n      swap1\n      div\n      0xff\n      and\n      iszero\n      iszero\n      iszero\n      iszero\n      dup2\n      mstore\n      pop\n      pop\n      swap1\n      pop\n        /* \"contracts/LiskGarden.sol\":10324:10352  calculateWaterLevel(plantId) */\n      tag_231\n        /* \"contracts/LiskGarden.sol\":10344:10351  plantId */\n      dup4\n        /* \"contracts/LiskGarden.sol\":10324:10343  calculateWaterLevel */\n      tag_54\n        /* \"contracts/LiskGarden.sol\":10324:10352  calculateWaterLevel(plantId) */\n      jump\t// in\n    tag_231:\n        /* \"contracts/LiskGarden.sol\":10305:10310  plant */\n      dup2\n        /* \"contracts/LiskGarden.sol\":10305:10321  plant.waterLevel */\n      0x60\n      add\n        /* \"contracts/LiskGarden.sol\":10305:10352  plant.waterLevel = calculateWaterLevel(plantId) */\n      dup2\n      dup2\n      mstore\n      pop\n      pop\n        /* \"contracts/LiskGarden.sol\":10370:10375  plant */\n      dup1\n        /* \"contracts/LiskGarden.sol\":10363:10375  return plant */\n      swap2\n      pop\n      pop\n        /* \"contracts/LiskGarden.sol\":10175:10383  function getPlant(uint256 plantId) external view returns (Plant memory) {... */\n      swap2\n      swap1\n      pop\n      jump\t// out\n        /* \"contracts/LiskGarden.sol\":6498:6873  function updateWaterLevel(uint256 plantId) internal {... */\n    tag_172:\n        /* \"contracts/LiskGarden.sol\":6589:6608  Plant storage plant */\n      0x00\n        /* \"contracts/LiskGarden.sol\":6611:6617  plants */\n      0x00\n        /* \"contracts/LiskGarden.sol\":6611:6626  plants[plantId] */\n      0x00\n        /* \"contracts/LiskGarden.sol\":6618:6625  plantId */\n      dup4\n        /* \"contracts/LiskGarden.sol\":6611:6626  plants[plantId] */\n      dup2\n      mstore\n      0x20\n      add\n      swap1\n      dup2\n      mstore\n      0x20\n      add\n      0x00\n      keccak256\n        /* \"contracts/LiskGarden.sol\":6589:6626  Plant storage plant = plants[plantId] */\n      swap1\n      pop\n        /* \"contracts/LiskGarden.sol\":6637:6657  uint256 currentWater */\n      0x00\n        /* \"contracts/LiskGarden.sol\":6660:6688  calculateWaterLevel(plantId) */\n      tag_233\n        /* \"contracts/LiskGarden.sol\":6680:6687  plantId */\n      dup4\n        /* \"contracts/LiskGarden.sol\":6660:6679  calculateWaterLevel */\n      tag_54\n        /* \"contracts/LiskGarden.sol\":6660:6688  calculateWaterLevel(plantId) */\n      jump\t// in\n    tag_233:\n        /* \"contracts/LiskGarden.sol\":6637:6688  uint256 currentWater = calculateWaterLevel(plantId) */\n      swap1\n      pop\n        /* \"contracts/LiskGarden.sol\":6718:6730  currentWater */\n      dup1\n        /* \"contracts/LiskGarden.sol\":6699:6704  plant */\n      dup3\n        /* \"contracts/LiskGarden.sol\":6699:6715  plant.waterLevel */\n      0x02\n      add\n        /* \"contracts/LiskGarden.sol\":6699:6730  plant.waterLevel = currentWater */\n      dup2\n      swap1\n      sstore\n      pop\n        /* \"contracts/LiskGarden.sol\":6760:6761  0 */\n      0x00\n        /* \"contracts/LiskGarden.sol\":6744:6756  currentWater */\n      dup2\n        /* \"contracts/LiskGarden.sol\":6744:6761  currentWater == 0 */\n      eq\n        /* \"contracts/LiskGarden.sol\":6744:6778  currentWater == 0 && !plant.isDead */\n      dup1\n      iszero\n      tag_234\n      jumpi\n      pop\n        /* \"contracts/LiskGarden.sol\":6766:6771  plant */\n      dup2\n        /* \"contracts/LiskGarden.sol\":6766:6778  plant.isDead */\n      0x05\n      add\n      0x01\n      swap1\n      sload\n      swap1\n      0x0100\n      exp\n      swap1\n      div\n      0xff\n      and\n        /* \"contracts/LiskGarden.sol\":6765:6778  !plant.isDead */\n      iszero\n        /* \"contracts/LiskGarden.sol\":6744:6778  currentWater == 0 && !plant.isDead */\n    tag_234:\n        /* \"contracts/LiskGarden.sol\":6741:6826  if(currentWater == 0 && !plant.isDead) {... */\n      iszero\n      tag_235\n      jumpi\n        /* \"contracts/LiskGarden.sol\":6808:6812  true */\n      0x01\n        /* \"contracts/LiskGarden.sol\":6793:6798  plant */\n      dup3\n        /* \"contracts/LiskGarden.sol\":6793:6805  plant.isDead */\n      0x05\n      add\n      0x01\n        /* \"contracts/LiskGarden.sol\":6793:6812  plant.isDead = true */\n      0x0100\n      exp\n      dup2\n      sload\n      dup2\n      0xff\n      mul\n      not\n      and\n      swap1\n      dup4\n      iszero\n      iszero\n      mul\n      or\n      swap1\n      sstore\n      pop\n        /* \"contracts/LiskGarden.sol\":6741:6826  if(currentWater == 0 && !plant.isDead) {... */\n    tag_235:\n        /* \"contracts/LiskGarden.sol\":6853:6860  plantId */\n      dup3\n        /* \"contracts/LiskGarden.sol\":6843:6861  PlantDied(plantId) */\n      0xcc296a21951f3e57f21afb08547d835a0a9f0f06cc2867009cbe0cae44d36be9\n      mload(0x40)\n      mload(0x40)\n      dup1\n      swap2\n      sub\n      swap1\n      log2\n        /* \"contracts/LiskGarden.sol\":6550:6873  {... */\n      pop\n      pop\n        /* \"contracts/LiskGarden.sol\":6498:6873  function updateWaterLevel(uint256 plantId) internal {... */\n      pop\n      jump\t// out\n    tag_225:\n      mload(0x40)\n      dup1\n      0x0100\n      add\n      0x40\n      mstore\n      dup1\n      0x00\n      dup2\n      mstore\n      0x20\n      add\n      and(0xffffffffffffffffffffffffffffffffffffffff, 0x00)\n      dup2\n      mstore\n      0x20\n      add\n      0x00\n      0x03\n      dup2\n      gt\n      iszero\n      tag_236\n      jumpi\n      tag_237\n      tag_136\n      jump\t// in\n    tag_237:\n    tag_236:\n      dup2\n      mstore\n      0x20\n      add\n      0x00\n      dup2\n      mstore\n      0x20\n      add\n      0x00\n      dup2\n      mstore\n      0x20\n      add\n      0x00\n      dup2\n      mstore\n      0x20\n      add\n      iszero(iszero(0x00))\n      dup2\n      mstore\n      0x20\n      add\n      iszero(iszero(0x00))\n      dup2\n      mstore\n      pop\n      swap1\n      jump\t// out\n        /* \"#utility.yul\":88:205   */\n    tag_239:\n        /* \"#utility.yul\":197:198   */\n      0x00\n        /* \"#utility.yul\":194:195   */\n      0x00\n        /* \"#utility.yul\":187:199   */\n      revert\n        /* \"#utility.yul\":334:460   */\n    tag_241:\n        /* \"#utility.yul\":371:378   */\n      0x00\n        /* \"#utility.yul\":411:453   */\n      0xffffffffffffffffffffffffffffffffffffffff\n        /* \"#utility.yul\":404:409   */\n      dup3\n        /* \"#utility.yul\":400:454   */\n      and\n        /* \"#utility.yul\":389:454   */\n      swap1\n      pop\n        /* \"#utility.yul\":334:460   */\n      swap2\n      swap1\n      pop\n      jump\t// out\n        /* \"#utility.yul\":466:562   */\n    tag_242:\n        /* \"#utility.yul\":503:510   */\n      0x00\n        /* \"#utility.yul\":532:556   */\n      tag_297\n        /* \"#utility.yul\":550:555   */\n      dup3\n        /* \"#utility.yul\":532:556   */\n      tag_241\n      jump\t// in\n    tag_297:\n        /* \"#utility.yul\":521:556   */\n      swap1\n      pop\n        /* \"#utility.yul\":466:562   */\n      swap2\n      swap1\n      pop\n      jump\t// out\n        /* \"#utility.yul\":568:690   */\n    tag_243:\n        /* \"#utility.yul\":641:665   */\n      tag_299\n        /* \"#utility.yul\":659:664   */\n      dup2\n        /* \"#utility.yul\":641:665   */\n      tag_242\n      jump\t// in\n    tag_299:\n        /* \"#utility.yul\":634:639   */\n      dup2\n        /* \"#utility.yul\":631:666   */\n      eq\n        /* \"#utility.yul\":621:684   */\n      tag_300\n      jumpi\n        /* \"#utility.yul\":680:681   */\n      0x00\n        /* \"#utility.yul\":677:678   */\n      0x00\n        /* \"#utility.yul\":670:682   */\n      revert\n        /* \"#utility.yul\":621:684   */\n    tag_300:\n        /* \"#utility.yul\":568:690   */\n      pop\n      jump\t// out\n        /* \"#utility.yul\":696:835   */\n    tag_244:\n        /* \"#utility.yul\":742:747   */\n      0x00\n        /* \"#utility.yul\":780:786   */\n      dup2\n        /* \"#utility.yul\":767:787   */\n      calldataload\n        /* \"#utility.yul\":758:787   */\n      swap1\n      pop\n        /* \"#utility.yul\":796:829   */\n      tag_302\n        /* \"#utility.yul\":823:828   */\n      dup2\n        /* \"#utility.yul\":796:829   */\n      tag_243\n      jump\t// in\n    tag_302:\n        /* \"#utility.yul\":696:835   */\n      swap3\n      swap2\n      pop\n      pop\n      jump\t// out\n        /* \"#utility.yul\":841:1170   */\n    tag_30:\n        /* \"#utility.yul\":900:906   */\n      0x00\n        /* \"#utility.yul\":949:951   */\n      0x20\n        /* \"#utility.yul\":937:946   */\n      dup3\n        /* \"#utility.yul\":928:935   */\n      dup5\n        /* \"#utility.yul\":924:947   */\n      sub\n        /* \"#utility.yul\":920:952   */\n      slt\n        /* \"#utility.yul\":917:1036   */\n      iszero\n      tag_304\n      jumpi\n        /* \"#utility.yul\":955:1034   */\n      tag_305\n      tag_239\n      jump\t// in\n    tag_305:\n        /* \"#utility.yul\":917:1036   */\n    tag_304:\n        /* \"#utility.yul\":1075:1076   */\n      0x00\n        /* \"#utility.yul\":1100:1153   */\n      tag_306\n        /* \"#utility.yul\":1145:1152   */\n      dup5\n        /* \"#utility.yul\":1136:1142   */\n      dup3\n        /* \"#utility.yul\":1125:1134   */\n      dup6\n        /* \"#utility.yul\":1121:1143   */\n      add\n        /* \"#utility.yul\":1100:1153   */\n      tag_244\n      jump\t// in\n    tag_306:\n        /* \"#utility.yul\":1090:1153   */\n      swap2\n      pop\n        /* \"#utility.yul\":1046:1163   */\n      pop\n        /* \"#utility.yul\":841:1170   */\n      swap3\n      swap2\n      pop\n      pop\n      jump\t// out\n        /* \"#utility.yul\":1176:1290   */\n    tag_245:\n        /* \"#utility.yul\":1243:1249   */\n      0x00\n        /* \"#utility.yul\":1277:1282   */\n      dup2\n        /* \"#utility.yul\":1271:1283   */\n      mload\n        /* \"#utility.yul\":1261:1283   */\n      swap1\n      pop\n        /* \"#utility.yul\":1176:1290   */\n      swap2\n      swap1\n      pop\n      jump\t// out\n        /* \"#utility.yul\":1296:1480   */\n    tag_246:\n        /* \"#utility.yul\":1395:1406   */\n      0x00\n        /* \"#utility.yul\":1429:1435   */\n      dup3\n        /* \"#utility.yul\":1424:1427   */\n      dup3\n        /* \"#utility.yul\":1417:1436   */\n      mstore\n        /* \"#utility.yul\":1469:1473   */\n      0x20\n        /* \"#utility.yul\":1464:1467   */\n      dup3\n        /* \"#utility.yul\":1460:1474   */\n      add\n        /* \"#utility.yul\":1445:1474   */\n      swap1\n      pop\n        /* \"#utility.yul\":1296:1480   */\n      swap3\n      swap2\n      pop\n      pop\n      jump\t// out\n        /* \"#utility.yul\":1486:1618   */\n    tag_247:\n        /* \"#utility.yul\":1553:1557   */\n      0x00\n        /* \"#utility.yul\":1576:1579   */\n      dup2\n        /* \"#utility.yul\":1568:1579   */\n      swap1\n      pop\n        /* \"#utility.yul\":1606:1610   */\n      0x20\n        /* \"#utility.yul\":1601:1604   */\n      dup3\n        /* \"#utility.yul\":1597:1611   */\n      add\n        /* \"#utility.yul\":1589:1611   */\n      swap1\n      pop\n        /* \"#utility.yul\":1486:1618   */\n      swap2\n      swap1\n      pop\n      jump\t// out\n        /* \"#utility.yul\":1624:1701   */\n    tag_248:\n        /* \"#utility.yul\":1661:1668   */\n      0x00\n        /* \"#utility.yul\":1690:1695   */\n      dup2\n        /* \"#utility.yul\":1679:1695   */\n      swap1\n      pop\n        /* \"#utility.yul\":1624:1701   */\n      swap2\n      swap1\n      pop\n      jump\t// out\n        /* \"#utility.yul\":1707:1815   */\n    tag_249:\n        /* \"#utility.yul\":1784:1808   */\n      tag_312\n        /* \"#utility.yul\":1802:1807   */\n      dup2\n        /* \"#utility.yul\":1784:1808   */\n      tag_248\n      jump\t// in\n    tag_312:\n        /* \"#utility.yul\":1779:1782   */\n      dup3\n        /* \"#utility.yul\":1772:1809   */\n      mstore\n        /* \"#utility.yul\":1707:1815   */\n      pop\n      pop\n      jump\t// out\n        /* \"#utility.yul\":1821:2000   */\n    tag_250:\n        /* \"#utility.yul\":1890:1900   */\n      0x00\n        /* \"#utility.yul\":1911:1957   */\n      tag_314\n        /* \"#utility.yul\":1953:1956   */\n      dup4\n        /* \"#utility.yul\":1945:1951   */\n      dup4\n        /* \"#utility.yul\":1911:1957   */\n      tag_249\n      jump\t// in\n    tag_314:\n        /* \"#utility.yul\":1989:1993   */\n      0x20\n        /* \"#utility.yul\":1984:1987   */\n      dup4\n        /* \"#utility.yul\":1980:1994   */\n      add\n        /* \"#utility.yul\":1966:1994   */\n      swap1\n      pop\n        /* \"#utility.yul\":1821:2000   */\n      swap3\n      swap2\n      pop\n      pop\n      jump\t// out\n        /* \"#utility.yul\":2006:2119   */\n    tag_251:\n        /* \"#utility.yul\":2076:2080   */\n      0x00\n        /* \"#utility.yul\":2108:2112   */\n      0x20\n        /* \"#utility.yul\":2103:2106   */\n      dup3\n        /* \"#utility.yul\":2099:2113   */\n      add\n        /* \"#utility.yul\":2091:2113   */\n      swap1\n      pop\n        /* \"#utility.yul\":2006:2119   */\n      swap2\n      swap1\n      pop\n      jump\t// out\n        /* \"#utility.yul\":2155:2887   */\n    tag_252:\n        /* \"#utility.yul\":2274:2277   */\n      0x00\n        /* \"#utility.yul\":2303:2357   */\n      tag_317\n        /* \"#utility.yul\":2351:2356   */\n      dup3\n        /* \"#utility.yul\":2303:2357   */\n      tag_245\n      jump\t// in\n    tag_317:\n        /* \"#utility.yul\":2373:2459   */\n      tag_318\n        /* \"#utility.yul\":2452:2458   */\n      dup2\n        /* \"#utility.yul\":2447:2450   */\n      dup6\n        /* \"#utility.yul\":2373:2459   */\n      tag_246\n      jump\t// in\n    tag_318:\n        /* \"#utility.yul\":2366:2459   */\n      swap4\n      pop\n        /* \"#utility.yul\":2483:2539   */\n      tag_319\n        /* \"#utility.yul\":2533:2538   */\n      dup4\n        /* \"#utility.yul\":2483:2539   */\n      tag_247\n      jump\t// in\n    tag_319:\n        /* \"#utility.yul\":2562:2569   */\n      dup1\n        /* \"#utility.yul\":2593:2594   */\n      0x00\n        /* \"#utility.yul\":2578:2862   */\n    tag_320:\n        /* \"#utility.yul\":2603:2609   */\n      dup4\n        /* \"#utility.yul\":2600:2601   */\n      dup2\n        /* \"#utility.yul\":2597:2610   */\n      lt\n        /* \"#utility.yul\":2578:2862   */\n      iszero\n      tag_322\n      jumpi\n        /* \"#utility.yul\":2679:2685   */\n      dup2\n        /* \"#utility.yul\":2673:2686   */\n      mload\n        /* \"#utility.yul\":2706:2769   */\n      tag_323\n        /* \"#utility.yul\":2765:2768   */\n      dup9\n        /* \"#utility.yul\":2750:2763   */\n      dup3\n        /* \"#utility.yul\":2706:2769   */\n      tag_250\n      jump\t// in\n    tag_323:\n        /* \"#utility.yul\":2699:2769   */\n      swap8\n      pop\n        /* \"#utility.yul\":2792:2852   */\n      tag_324\n        /* \"#utility.yul\":2845:2851   */\n      dup4\n        /* \"#utility.yul\":2792:2852   */\n      tag_251\n      jump\t// in\n    tag_324:\n        /* \"#utility.yul\":2782:2852   */\n      swap3\n      pop\n        /* \"#utility.yul\":2638:2862   */\n      pop\n        /* \"#utility.yul\":2625:2626   */\n      0x01\n        /* \"#utility.yul\":2622:2623   */\n      dup2\n        /* \"#utility.yul\":2618:2627   */\n      add\n        /* \"#utility.yul\":2613:2627   */\n      swap1\n      pop\n        /* \"#utility.yul\":2578:2862   */\n      jump(tag_320)\n    tag_322:\n        /* \"#utility.yul\":2582:2596   */\n      pop\n        /* \"#utility.yul\":2878:2881   */\n      dup6\n        /* \"#utility.yul\":2871:2881   */\n      swap4\n      pop\n        /* \"#utility.yul\":2279:2887   */\n      pop\n      pop\n      pop\n        /* \"#utility.yul\":2155:2887   */\n      swap3\n      swap2\n      pop\n      pop\n      jump\t// out\n        /* \"#utility.yul\":2893:3266   */\n    tag_33:\n        /* \"#utility.yul\":3036:3040   */\n      0x00\n        /* \"#utility.yul\":3074:3076   */\n      0x20\n        /* \"#utility.yul\":3063:3072   */\n      dup3\n        /* \"#utility.yul\":3059:3077   */\n      add\n        /* \"#utility.yul\":3051:3077   */\n      swap1\n      pop\n        /* \"#utility.yul\":3123:3132   */\n      dup2\n        /* \"#utility.yul\":3117:3121   */\n      dup2\n        /* \"#utility.yul\":3113:3133   */\n      sub\n        /* \"#utility.yul\":3109:3110   */\n      0x00\n        /* \"#utility.yul\":3098:3107   */\n      dup4\n        /* \"#utility.yul\":3094:3111   */\n      add\n        /* \"#utility.yul\":3087:3134   */\n      mstore\n        /* \"#utility.yul\":3151:3259   */\n      tag_326\n        /* \"#utility.yul\":3254:3258   */\n      dup2\n        /* \"#utility.yul\":3245:3251   */\n      dup5\n        /* \"#utility.yul\":3151:3259   */\n      tag_252\n      jump\t// in\n    tag_326:\n        /* \"#utility.yul\":3143:3259   */\n      swap1\n      pop\n        /* \"#utility.yul\":2893:3266   */\n      swap3\n      swap2\n      pop\n      pop\n      jump\t// out\n        /* \"#utility.yul\":3272:3390   */\n    tag_253:\n        /* \"#utility.yul\":3359:3383   */\n      tag_328\n        /* \"#utility.yul\":3377:3382   */\n      dup2\n        /* \"#utility.yul\":3359:3383   */\n      tag_248\n      jump\t// in\n    tag_328:\n        /* \"#utility.yul\":3354:3357   */\n      dup3\n        /* \"#utility.yul\":3347:3384   */\n      mstore\n        /* \"#utility.yul\":3272:3390   */\n      pop\n      pop\n      jump\t// out\n        /* \"#utility.yul\":3396:3514   */\n    tag_254:\n        /* \"#utility.yul\":3483:3507   */\n      tag_330\n        /* \"#utility.yul\":3501:3506   */\n      dup2\n        /* \"#utility.yul\":3483:3507   */\n      tag_242\n      jump\t// in\n    tag_330:\n        /* \"#utility.yul\":3478:3481   */\n      dup3\n        /* \"#utility.yul\":3471:3508   */\n      mstore\n        /* \"#utility.yul\":3396:3514   */\n      pop\n      pop\n      jump\t// out\n        /* \"#utility.yul\":3520:3700   */\n    tag_136:\n        /* \"#utility.yul\":3568:3645   */\n      0x4e487b7100000000000000000000000000000000000000000000000000000000\n        /* \"#utility.yul\":3565:3566   */\n      0x00\n        /* \"#utility.yul\":3558:3646   */\n      mstore\n        /* \"#utility.yul\":3665:3669   */\n      0x21\n        /* \"#utility.yul\":3662:3663   */\n      0x04\n        /* \"#utility.yul\":3655:3670   */\n      mstore\n        /* \"#utility.yul\":3689:3693   */\n      0x24\n        /* \"#utility.yul\":3686:3687   */\n      0x00\n        /* \"#utility.yul\":3679:3694   */\n      revert\n        /* \"#utility.yul\":3706:3824   */\n    tag_255:\n        /* \"#utility.yul\":3792:3793   */\n      0x04\n        /* \"#utility.yul\":3785:3790   */\n      dup2\n        /* \"#utility.yul\":3782:3794   */\n      lt\n        /* \"#utility.yul\":3772:3818   */\n      tag_333\n      jumpi\n        /* \"#utility.yul\":3798:3816   */\n      tag_334\n      tag_136\n      jump\t// in\n    tag_334:\n        /* \"#utility.yul\":3772:3818   */\n    tag_333:\n        /* \"#utility.yul\":3706:3824   */\n      pop\n      jump\t// out\n        /* \"#utility.yul\":3830:3967   */\n    tag_256:\n        /* \"#utility.yul\":3880:3887   */\n      0x00\n        /* \"#utility.yul\":3909:3914   */\n      dup2\n        /* \"#utility.yul\":3898:3914   */\n      swap1\n      pop\n        /* \"#utility.yul\":3915:3961   */\n      tag_336\n        /* \"#utility.yul\":3955:3960   */\n      dup3\n        /* \"#utility.yul\":3915:3961   */\n      tag_255\n      jump\t// in\n    tag_336:\n        /* \"#utility.yul\":3830:3967   */\n      swap2\n      swap1\n      pop\n      jump\t// out\n        /* \"#utility.yul\":3973:4110   */\n    tag_257:\n        /* \"#utility.yul\":4034:4043   */\n      0x00\n        /* \"#utility.yul\":4067:4104   */\n      tag_338\n        /* \"#utility.yul\":4098:4103   */\n      dup3\n        /* \"#utility.yul\":4067:4104   */\n      tag_256\n      jump\t// in\n    tag_338:\n        /* \"#utility.yul\":4054:4104   */\n      swap1\n      pop\n        /* \"#utility.yul\":3973:4110   */\n      swap2\n      swap1\n      pop\n      jump\t// out\n        /* \"#utility.yul\":4116:4269   */\n    tag_258:\n        /* \"#utility.yul\":4214:4262   */\n      tag_340\n        /* \"#utility.yul\":4256:4261   */\n      dup2\n        /* \"#utility.yul\":4214:4262   */\n      tag_257\n      jump\t// in\n    tag_340:\n        /* \"#utility.yul\":4209:4212   */\n      dup3\n        /* \"#utility.yul\":4202:4263   */\n      mstore\n        /* \"#utility.yul\":4116:4269   */\n      pop\n      pop\n      jump\t// out\n        /* \"#utility.yul\":4275:4365   */\n    tag_259:\n        /* \"#utility.yul\":4309:4316   */\n      0x00\n        /* \"#utility.yul\":4352:4357   */\n      dup2\n        /* \"#utility.yul\":4345:4358   */\n      iszero\n        /* \"#utility.yul\":4338:4359   */\n      iszero\n        /* \"#utility.yul\":4327:4359   */\n      swap1\n      pop\n        /* \"#utility.yul\":4275:4365   */\n      swap2\n      swap1\n      pop\n      jump\t// out\n        /* \"#utility.yul\":4371:4480   */\n    tag_260:\n        /* \"#utility.yul\":4452:4473   */\n      tag_343\n        /* \"#utility.yul\":4467:4472   */\n      dup2\n        /* \"#utility.yul\":4452:4473   */\n      tag_259\n      jump\t// in\n    tag_343:\n        /* \"#utility.yul\":4447:4450   */\n      dup3\n        /* \"#utility.yul\":4440:4474   */\n      mstore\n        /* \"#utility.yul\":4371:4480   */\n      pop\n      pop\n      jump\t// out\n        /* \"#utility.yul\":4486:5481   */\n    tag_38:\n        /* \"#utility.yul\":4774:4778   */\n      0x00\n        /* \"#utility.yul\":4812:4815   */\n      0x0100\n        /* \"#utility.yul\":4801:4810   */\n      dup3\n        /* \"#utility.yul\":4797:4816   */\n      add\n        /* \"#utility.yul\":4789:4816   */\n      swap1\n      pop\n        /* \"#utility.yul\":4826:4897   */\n      tag_345\n        /* \"#utility.yul\":4894:4895   */\n      0x00\n        /* \"#utility.yul\":4883:4892   */\n      dup4\n        /* \"#utility.yul\":4879:4896   */\n      add\n        /* \"#utility.yul\":4870:4876   */\n      dup12\n        /* \"#utility.yul\":4826:4897   */\n      tag_253\n      jump\t// in\n    tag_345:\n        /* \"#utility.yul\":4907:4979   */\n      tag_346\n        /* \"#utility.yul\":4975:4977   */\n      0x20\n        /* \"#utility.yul\":4964:4973   */\n      dup4\n        /* \"#utility.yul\":4960:4978   */\n      add\n        /* \"#utility.yul\":4951:4957   */\n      dup11\n        /* \"#utility.yul\":4907:4979   */\n      tag_254\n      jump\t// in\n    tag_346:\n        /* \"#utility.yul\":4989:5072   */\n      tag_347\n        /* \"#utility.yul\":5068:5070   */\n      0x40\n        /* \"#utility.yul\":5057:5066   */\n      dup4\n        /* \"#utility.yul\":5053:5071   */\n      add\n        /* \"#utility.yul\":5044:5050   */\n      dup10\n        /* \"#utility.yul\":4989:5072   */\n      tag_258\n      jump\t// in\n    tag_347:\n        /* \"#utility.yul\":5082:5154   */\n      tag_348\n        /* \"#utility.yul\":5150:5152   */\n      0x60\n        /* \"#utility.yul\":5139:5148   */\n      dup4\n        /* \"#utility.yul\":5135:5153   */\n      add\n        /* \"#utility.yul\":5126:5132   */\n      dup9\n        /* \"#utility.yul\":5082:5154   */\n      tag_253\n      jump\t// in\n    tag_348:\n        /* \"#utility.yul\":5164:5237   */\n      tag_349\n        /* \"#utility.yul\":5232:5235   */\n      0x80\n        /* \"#utility.yul\":5221:5230   */\n      dup4\n        /* \"#utility.yul\":5217:5236   */\n      add\n        /* \"#utility.yul\":5208:5214   */\n      dup8\n        /* \"#utility.yul\":5164:5237   */\n      tag_253\n      jump\t// in\n    tag_349:\n        /* \"#utility.yul\":5247:5320   */\n      tag_350\n        /* \"#utility.yul\":5315:5318   */\n      0xa0\n        /* \"#utility.yul\":5304:5313   */\n      dup4\n        /* \"#utility.yul\":5300:5319   */\n      add\n        /* \"#utility.yul\":5291:5297   */\n      dup7\n        /* \"#utility.yul\":5247:5320   */\n      tag_253\n      jump\t// in\n    tag_350:\n        /* \"#utility.yul\":5330:5397   */\n      tag_351\n        /* \"#utility.yul\":5392:5395   */\n      0xc0\n        /* \"#utility.yul\":5381:5390   */\n      dup4\n        /* \"#utility.yul\":5377:5396   */\n      add\n        /* \"#utility.yul\":5368:5374   */\n      dup6\n        /* \"#utility.yul\":5330:5397   */\n      tag_260\n      jump\t// in\n    tag_351:\n        /* \"#utility.yul\":5407:5474   */\n      tag_352\n        /* \"#utility.yul\":5469:5472   */\n      0xe0\n        /* \"#utility.yul\":5458:5467   */\n      dup4\n        /* \"#utility.yul\":5454:5473   */\n      add\n        /* \"#utility.yul\":5445:5451   */\n      dup5\n        /* \"#utility.yul\":5407:5474   */\n      tag_260\n      jump\t// in\n    tag_352:\n        /* \"#utility.yul\":4486:5481   */\n      swap10\n      swap9\n      pop\n      pop\n      pop\n      pop\n      pop\n      pop\n      pop\n      pop\n      pop\n      jump\t// out\n        /* \"#utility.yul\":5487:5709   */\n    tag_46:\n        /* \"#utility.yul\":5580:5584   */\n      0x00\n        /* \"#utility.yul\":5618:5620   */\n      0x20\n        /* \"#utility.yul\":5607:5616   */\n      dup3\n        /* \"#utility.yul\":5603:5621   */\n      add\n        /* \"#utility.yul\":5595:5621   */\n      swap1\n      pop\n        /* \"#utility.yul\":5631:5702   */\n      tag_354\n        /* \"#utility.yul\":5699:5700   */\n      0x00\n        /* \"#utility.yul\":5688:5697   */\n      dup4\n        /* \"#utility.yul\":5684:5701   */\n      add\n        /* \"#utility.yul\":5675:5681   */\n      dup5\n        /* \"#utility.yul\":5631:5702   */\n      tag_253\n      jump\t// in\n    tag_354:\n        /* \"#utility.yul\":5487:5709   */\n      swap3\n      swap2\n      pop\n      pop\n      jump\t// out\n        /* \"#utility.yul\":5715:5837   */\n    tag_261:\n        /* \"#utility.yul\":5788:5812   */\n      tag_356\n        /* \"#utility.yul\":5806:5811   */\n      dup2\n        /* \"#utility.yul\":5788:5812   */\n      tag_248\n      jump\t// in\n    tag_356:\n        /* \"#utility.yul\":5781:5786   */\n      dup2\n        /* \"#utility.yul\":5778:5813   */\n      eq\n        /* \"#utility.yul\":5768:5831   */\n      tag_357\n      jumpi\n        /* \"#utility.yul\":5827:5828   */\n      0x00\n        /* \"#utility.yul\":5824:5825   */\n      0x00\n        /* \"#utility.yul\":5817:5829   */\n      revert\n        /* \"#utility.yul\":5768:5831   */\n    tag_357:\n        /* \"#utility.yul\":5715:5837   */\n      pop\n      jump\t// out\n        /* \"#utility.yul\":5843:5982   */\n    tag_262:\n        /* \"#utility.yul\":5889:5894   */\n      0x00\n        /* \"#utility.yul\":5927:5933   */\n      dup2\n        /* \"#utility.yul\":5914:5934   */\n      calldataload\n        /* \"#utility.yul\":5905:5934   */\n      swap1\n      pop\n        /* \"#utility.yul\":5943:5976   */\n      tag_359\n        /* \"#utility.yul\":5970:5975   */\n      dup2\n        /* \"#utility.yul\":5943:5976   */\n      tag_261\n      jump\t// in\n    tag_359:\n        /* \"#utility.yul\":5843:5982   */\n      swap3\n      swap2\n      pop\n      pop\n      jump\t// out\n        /* \"#utility.yul\":5988:6317   */\n    tag_53:\n        /* \"#utility.yul\":6047:6053   */\n      0x00\n        /* \"#utility.yul\":6096:6098   */\n      0x20\n        /* \"#utility.yul\":6084:6093   */\n      dup3\n        /* \"#utility.yul\":6075:6082   */\n      dup5\n        /* \"#utility.yul\":6071:6094   */\n      sub\n        /* \"#utility.yul\":6067:6099   */\n      slt\n        /* \"#utility.yul\":6064:6183   */\n      iszero\n      tag_361\n      jumpi\n        /* \"#utility.yul\":6102:6181   */\n      tag_362\n      tag_239\n      jump\t// in\n    tag_362:\n        /* \"#utility.yul\":6064:6183   */\n    tag_361:\n        /* \"#utility.yul\":6222:6223   */\n      0x00\n        /* \"#utility.yul\":6247:6300   */\n      tag_363\n        /* \"#utility.yul\":6292:6299   */\n      dup5\n        /* \"#utility.yul\":6283:6289   */\n      dup3\n        /* \"#utility.yul\":6272:6281   */\n      dup6\n        /* \"#utility.yul\":6268:6290   */\n      add\n        /* \"#utility.yul\":6247:6300   */\n      tag_262\n      jump\t// in\n    tag_363:\n        /* \"#utility.yul\":6237:6300   */\n      swap2\n      pop\n        /* \"#utility.yul\":6193:6310   */\n      pop\n        /* \"#utility.yul\":5988:6317   */\n      swap3\n      swap2\n      pop\n      pop\n      jump\t// out\n        /* \"#utility.yul\":6323:6797   */\n    tag_63:\n        /* \"#utility.yul\":6391:6397   */\n      0x00\n        /* \"#utility.yul\":6399:6405   */\n      0x00\n        /* \"#utility.yul\":6448:6450   */\n      0x40\n        /* \"#utility.yul\":6436:6445   */\n      dup4\n        /* \"#utility.yul\":6427:6434   */\n      dup6\n        /* \"#utility.yul\":6423:6446   */\n      sub\n        /* \"#utility.yul\":6419:6451   */\n      slt\n        /* \"#utility.yul\":6416:6535   */\n      iszero\n      tag_365\n      jumpi\n        /* \"#utility.yul\":6454:6533   */\n      tag_366\n      tag_239\n      jump\t// in\n    tag_366:\n        /* \"#utility.yul\":6416:6535   */\n    tag_365:\n        /* \"#utility.yul\":6574:6575   */\n      0x00\n        /* \"#utility.yul\":6599:6652   */\n      tag_367\n        /* \"#utility.yul\":6644:6651   */\n      dup6\n        /* \"#utility.yul\":6635:6641   */\n      dup3\n        /* \"#utility.yul\":6624:6633   */\n      dup7\n        /* \"#utility.yul\":6620:6642   */\n      add\n        /* \"#utility.yul\":6599:6652   */\n      tag_244\n      jump\t// in\n    tag_367:\n        /* \"#utility.yul\":6589:6652   */\n      swap3\n      pop\n        /* \"#utility.yul\":6545:6662   */\n      pop\n        /* \"#utility.yul\":6701:6703   */\n      0x20\n        /* \"#utility.yul\":6727:6780   */\n      tag_368\n        /* \"#utility.yul\":6772:6779   */\n      dup6\n        /* \"#utility.yul\":6763:6769   */\n      dup3\n        /* \"#utility.yul\":6752:6761   */\n      dup7\n        /* \"#utility.yul\":6748:6770   */\n      add\n        /* \"#utility.yul\":6727:6780   */\n      tag_262\n      jump\t// in\n    tag_368:\n        /* \"#utility.yul\":6717:6780   */\n      swap2\n      pop\n        /* \"#utility.yul\":6672:6790   */\n      pop\n        /* \"#utility.yul\":6323:6797   */\n      swap3\n      pop\n      swap3\n      swap1\n      pop\n      jump\t// out\n        /* \"#utility.yul\":6803:7025   */\n    tag_70:\n        /* \"#utility.yul\":6896:6900   */\n      0x00\n        /* \"#utility.yul\":6934:6936   */\n      0x20\n        /* \"#utility.yul\":6923:6932   */\n      dup3\n        /* \"#utility.yul\":6919:6937   */\n      add\n        /* \"#utility.yul\":6911:6937   */\n      swap1\n      pop\n        /* \"#utility.yul\":6947:7018   */\n      tag_370\n        /* \"#utility.yul\":7015:7016   */\n      0x00\n        /* \"#utility.yul\":7004:7013   */\n      dup4\n        /* \"#utility.yul\":7000:7017   */\n      add\n        /* \"#utility.yul\":6991:6997   */\n      dup5\n        /* \"#utility.yul\":6947:7018   */\n      tag_254\n      jump\t// in\n    tag_370:\n        /* \"#utility.yul\":6803:7025   */\n      swap3\n      swap2\n      pop\n      pop\n      jump\t// out\n        /* \"#utility.yul\":7031:7117   */\n    tag_263:\n        /* \"#utility.yul\":7066:7073   */\n      0x00\n        /* \"#utility.yul\":7106:7110   */\n      0xff\n        /* \"#utility.yul\":7099:7104   */\n      dup3\n        /* \"#utility.yul\":7095:7111   */\n      and\n        /* \"#utility.yul\":7084:7111   */\n      swap1\n      pop\n        /* \"#utility.yul\":7031:7117   */\n      swap2\n      swap1\n      pop\n      jump\t// out\n        /* \"#utility.yul\":7123:7235   */\n    tag_264:\n        /* \"#utility.yul\":7206:7228   */\n      tag_373\n        /* \"#utility.yul\":7222:7227   */\n      dup2\n        /* \"#utility.yul\":7206:7228   */\n      tag_263\n      jump\t// in\n    tag_373:\n        /* \"#utility.yul\":7201:7204   */\n      dup3\n        /* \"#utility.yul\":7194:7229   */\n      mstore\n        /* \"#utility.yul\":7123:7235   */\n      pop\n      pop\n      jump\t// out\n        /* \"#utility.yul\":7241:7455   */\n    tag_92:\n        /* \"#utility.yul\":7330:7334   */\n      0x00\n        /* \"#utility.yul\":7368:7370   */\n      0x20\n        /* \"#utility.yul\":7357:7366   */\n      dup3\n        /* \"#utility.yul\":7353:7371   */\n      add\n        /* \"#utility.yul\":7345:7371   */\n      swap1\n      pop\n        /* \"#utility.yul\":7381:7448   */\n      tag_375\n        /* \"#utility.yul\":7445:7446   */\n      0x00\n        /* \"#utility.yul\":7434:7443   */\n      dup4\n        /* \"#utility.yul\":7430:7447   */\n      add\n        /* \"#utility.yul\":7421:7427   */\n      dup5\n        /* \"#utility.yul\":7381:7448   */\n      tag_264\n      jump\t// in\n    tag_375:\n        /* \"#utility.yul\":7241:7455   */\n      swap3\n      swap2\n      pop\n      pop\n      jump\t// out\n        /* \"#utility.yul\":7461:7569   */\n    tag_265:\n        /* \"#utility.yul\":7538:7562   */\n      tag_377\n        /* \"#utility.yul\":7556:7561   */\n      dup2\n        /* \"#utility.yul\":7538:7562   */\n      tag_242\n      jump\t// in\n    tag_377:\n        /* \"#utility.yul\":7533:7536   */\n      dup3\n        /* \"#utility.yul\":7526:7563   */\n      mstore\n        /* \"#utility.yul\":7461:7569   */\n      pop\n      pop\n      jump\t// out\n        /* \"#utility.yul\":7575:7718   */\n    tag_266:\n        /* \"#utility.yul\":7663:7711   */\n      tag_379\n        /* \"#utility.yul\":7705:7710   */\n      dup2\n        /* \"#utility.yul\":7663:7711   */\n      tag_257\n      jump\t// in\n    tag_379:\n        /* \"#utility.yul\":7658:7661   */\n      dup3\n        /* \"#utility.yul\":7651:7712   */\n      mstore\n        /* \"#utility.yul\":7575:7718   */\n      pop\n      pop\n      jump\t// out\n        /* \"#utility.yul\":7724:7823   */\n    tag_267:\n        /* \"#utility.yul\":7795:7816   */\n      tag_381\n        /* \"#utility.yul\":7810:7815   */\n      dup2\n        /* \"#utility.yul\":7795:7816   */\n      tag_259\n      jump\t// in\n    tag_381:\n        /* \"#utility.yul\":7790:7793   */\n      dup3\n        /* \"#utility.yul\":7783:7817   */\n      mstore\n        /* \"#utility.yul\":7724:7823   */\n      pop\n      pop\n      jump\t// out\n        /* \"#utility.yul\":7887:9455   */\n    tag_268:\n        /* \"#utility.yul\":8026:8032   */\n      0x0100\n        /* \"#utility.yul\":8021:8024   */\n      dup3\n        /* \"#utility.yul\":8017:8033   */\n      add\n        /* \"#utility.yul\":8113:8117   */\n      0x00\n        /* \"#utility.yul\":8106:8111   */\n      dup3\n        /* \"#utility.yul\":8102:8118   */\n      add\n        /* \"#utility.yul\":8096:8119   */\n      mload\n        /* \"#utility.yul\":8132:8195   */\n      tag_383\n        /* \"#utility.yul\":8189:8193   */\n      0x00\n        /* \"#utility.yul\":8184:8187   */\n      dup6\n        /* \"#utility.yul\":8180:8194   */\n      add\n        /* \"#utility.yul\":8166:8178   */\n      dup3\n        /* \"#utility.yul\":8132:8195   */\n      tag_249\n      jump\t// in\n    tag_383:\n        /* \"#utility.yul\":8043:8205   */\n      pop\n        /* \"#utility.yul\":8288:8292   */\n      0x20\n        /* \"#utility.yul\":8281:8286   */\n      dup3\n        /* \"#utility.yul\":8277:8293   */\n      add\n        /* \"#utility.yul\":8271:8294   */\n      mload\n        /* \"#utility.yul\":8307:8370   */\n      tag_384\n        /* \"#utility.yul\":8364:8368   */\n      0x20\n        /* \"#utility.yul\":8359:8362   */\n      dup6\n        /* \"#utility.yul\":8355:8369   */\n      add\n        /* \"#utility.yul\":8341:8353   */\n      dup3\n        /* \"#utility.yul\":8307:8370   */\n      tag_265\n      jump\t// in\n    tag_384:\n        /* \"#utility.yul\":8215:8380   */\n      pop\n        /* \"#utility.yul\":8463:8467   */\n      0x40\n        /* \"#utility.yul\":8456:8461   */\n      dup3\n        /* \"#utility.yul\":8452:8468   */\n      add\n        /* \"#utility.yul\":8446:8469   */\n      mload\n        /* \"#utility.yul\":8482:8556   */\n      tag_385\n        /* \"#utility.yul\":8550:8554   */\n      0x40\n        /* \"#utility.yul\":8545:8548   */\n      dup6\n        /* \"#utility.yul\":8541:8555   */\n      add\n        /* \"#utility.yul\":8527:8539   */\n      dup3\n        /* \"#utility.yul\":8482:8556   */\n      tag_266\n      jump\t// in\n    tag_385:\n        /* \"#utility.yul\":8390:8566   */\n      pop\n        /* \"#utility.yul\":8654:8658   */\n      0x60\n        /* \"#utility.yul\":8647:8652   */\n      dup3\n        /* \"#utility.yul\":8643:8659   */\n      add\n        /* \"#utility.yul\":8637:8660   */\n      mload\n        /* \"#utility.yul\":8673:8736   */\n      tag_386\n        /* \"#utility.yul\":8730:8734   */\n      0x60\n        /* \"#utility.yul\":8725:8728   */\n      dup6\n        /* \"#utility.yul\":8721:8735   */\n      add\n        /* \"#utility.yul\":8707:8719   */\n      dup3\n        /* \"#utility.yul\":8673:8736   */\n      tag_249\n      jump\t// in\n    tag_386:\n        /* \"#utility.yul\":8576:8746   */\n      pop\n        /* \"#utility.yul\":8835:8839   */\n      0x80\n        /* \"#utility.yul\":8828:8833   */\n      dup3\n        /* \"#utility.yul\":8824:8840   */\n      add\n        /* \"#utility.yul\":8818:8841   */\n      mload\n        /* \"#utility.yul\":8854:8917   */\n      tag_387\n        /* \"#utility.yul\":8911:8915   */\n      0x80\n        /* \"#utility.yul\":8906:8909   */\n      dup6\n        /* \"#utility.yul\":8902:8916   */\n      add\n        /* \"#utility.yul\":8888:8900   */\n      dup3\n        /* \"#utility.yul\":8854:8917   */\n      tag_249\n      jump\t// in\n    tag_387:\n        /* \"#utility.yul\":8756:8927   */\n      pop\n        /* \"#utility.yul\":9016:9020   */\n      0xa0\n        /* \"#utility.yul\":9009:9014   */\n      dup3\n        /* \"#utility.yul\":9005:9021   */\n      add\n        /* \"#utility.yul\":8999:9022   */\n      mload\n        /* \"#utility.yul\":9035:9098   */\n      tag_388\n        /* \"#utility.yul\":9092:9096   */\n      0xa0\n        /* \"#utility.yul\":9087:9090   */\n      dup6\n        /* \"#utility.yul\":9083:9097   */\n      add\n        /* \"#utility.yul\":9069:9081   */\n      dup3\n        /* \"#utility.yul\":9035:9098   */\n      tag_249\n      jump\t// in\n    tag_388:\n        /* \"#utility.yul\":8937:9108   */\n      pop\n        /* \"#utility.yul\":9192:9196   */\n      0xc0\n        /* \"#utility.yul\":9185:9190   */\n      dup3\n        /* \"#utility.yul\":9181:9197   */\n      add\n        /* \"#utility.yul\":9175:9198   */\n      mload\n        /* \"#utility.yul\":9211:9268   */\n      tag_389\n        /* \"#utility.yul\":9262:9266   */\n      0xc0\n        /* \"#utility.yul\":9257:9260   */\n      dup6\n        /* \"#utility.yul\":9253:9267   */\n      add\n        /* \"#utility.yul\":9239:9251   */\n      dup3\n        /* \"#utility.yul\":9211:9268   */\n      tag_267\n      jump\t// in\n    tag_389:\n        /* \"#utility.yul\":9118:9278   */\n      pop\n        /* \"#utility.yul\":9362:9366   */\n      0xe0\n        /* \"#utility.yul\":9355:9360   */\n      dup3\n        /* \"#utility.yul\":9351:9367   */\n      add\n        /* \"#utility.yul\":9345:9368   */\n      mload\n        /* \"#utility.yul\":9381:9438   */\n      tag_390\n        /* \"#utility.yul\":9432:9436   */\n      0xe0\n        /* \"#utility.yul\":9427:9430   */\n      dup6\n        /* \"#utility.yul\":9423:9437   */\n      add\n        /* \"#utility.yul\":9409:9421   */\n      dup3\n        /* \"#utility.yul\":9381:9438   */\n      tag_267\n      jump\t// in\n    tag_390:\n        /* \"#utility.yul\":9288:9448   */\n      pop\n        /* \"#utility.yul\":7995:9455   */\n      pop\n        /* \"#utility.yul\":7887:9455   */\n      pop\n      pop\n      jump\t// out\n        /* \"#utility.yul\":9461:9768   */\n    tag_112:\n        /* \"#utility.yul\":9596:9600   */\n      0x00\n        /* \"#utility.yul\":9634:9637   */\n      0x0100\n        /* \"#utility.yul\":9623:9632   */\n      dup3\n        /* \"#utility.yul\":9619:9638   */\n      add\n        /* \"#utility.yul\":9611:9638   */\n      swap1\n      pop\n        /* \"#utility.yul\":9648:9761   */\n      tag_392\n        /* \"#utility.yul\":9758:9759   */\n      0x00\n        /* \"#utility.yul\":9747:9756   */\n      dup4\n        /* \"#utility.yul\":9743:9760   */\n      add\n        /* \"#utility.yul\":9734:9740   */\n      dup5\n        /* \"#utility.yul\":9648:9761   */\n      tag_268\n      jump\t// in\n    tag_392:\n        /* \"#utility.yul\":9461:9768   */\n      swap3\n      swap2\n      pop\n      pop\n      jump\t// out\n        /* \"#utility.yul\":9774:9943   */\n    tag_269:\n        /* \"#utility.yul\":9858:9869   */\n      0x00\n        /* \"#utility.yul\":9892:9898   */\n      dup3\n        /* \"#utility.yul\":9887:9890   */\n      dup3\n        /* \"#utility.yul\":9880:9899   */\n      mstore\n        /* \"#utility.yul\":9932:9936   */\n      0x20\n        /* \"#utility.yul\":9927:9930   */\n      dup3\n        /* \"#utility.yul\":9923:9937   */\n      add\n        /* \"#utility.yul\":9908:9937   */\n      swap1\n      pop\n        /* \"#utility.yul\":9774:9943   */\n      swap3\n      swap2\n      pop\n      pop\n      jump\t// out\n        /* \"#utility.yul\":9949:10110   */\n    tag_270:\n        /* \"#utility.yul\":10089:10102   */\n      0x42756b616e206f776e6572000000000000000000000000000000000000000000\n        /* \"#utility.yul\":10085:10086   */\n      0x00\n        /* \"#utility.yul\":10077:10083   */\n      dup3\n        /* \"#utility.yul\":10073:10087   */\n      add\n        /* \"#utility.yul\":10066:10103   */\n      mstore\n        /* \"#utility.yul\":9949:10110   */\n      pop\n      jump\t// out\n        /* \"#utility.yul\":10116:10482   */\n    tag_271:\n        /* \"#utility.yul\":10258:10261   */\n      0x00\n        /* \"#utility.yul\":10279:10346   */\n      tag_396\n        /* \"#utility.yul\":10343:10345   */\n      0x0b\n        /* \"#utility.yul\":10338:10341   */\n      dup4\n        /* \"#utility.yul\":10279:10346   */\n      tag_269\n      jump\t// in\n    tag_396:\n        /* \"#utility.yul\":10272:10346   */\n      swap2\n      pop\n        /* \"#utility.yul\":10355:10448   */\n      tag_397\n        /* \"#utility.yul\":10444:10447   */\n      dup3\n        /* \"#utility.yul\":10355:10448   */\n      tag_270\n      jump\t// in\n    tag_397:\n        /* \"#utility.yul\":10473:10475   */\n      0x20\n        /* \"#utility.yul\":10468:10471   */\n      dup3\n        /* \"#utility.yul\":10464:10476   */\n      add\n        /* \"#utility.yul\":10457:10476   */\n      swap1\n      pop\n        /* \"#utility.yul\":10116:10482   */\n      swap2\n      swap1\n      pop\n      jump\t// out\n        /* \"#utility.yul\":10488:10907   */\n    tag_119:\n        /* \"#utility.yul\":10654:10658   */\n      0x00\n        /* \"#utility.yul\":10692:10694   */\n      0x20\n        /* \"#utility.yul\":10681:10690   */\n      dup3\n        /* \"#utility.yul\":10677:10695   */\n      add\n        /* \"#utility.yul\":10669:10695   */\n      swap1\n      pop\n        /* \"#utility.yul\":10741:10750   */\n      dup2\n        /* \"#utility.yul\":10735:10739   */\n      dup2\n        /* \"#utility.yul\":10731:10751   */\n      sub\n        /* \"#utility.yul\":10727:10728   */\n      0x00\n        /* \"#utility.yul\":10716:10725   */\n      dup4\n        /* \"#utility.yul\":10712:10729   */\n      add\n        /* \"#utility.yul\":10705:10752   */\n      mstore\n        /* \"#utility.yul\":10769:10900   */\n      tag_399\n        /* \"#utility.yul\":10895:10899   */\n      dup2\n        /* \"#utility.yul\":10769:10900   */\n      tag_271\n      jump\t// in\n    tag_399:\n        /* \"#utility.yul\":10761:10900   */\n      swap1\n      pop\n        /* \"#utility.yul\":10488:10907   */\n      swap2\n      swap1\n      pop\n      jump\t// out\n        /* \"#utility.yul\":10913:11060   */\n    tag_272:\n        /* \"#utility.yul\":11014:11025   */\n      0x00\n        /* \"#utility.yul\":11051:11054   */\n      dup2\n        /* \"#utility.yul\":11036:11054   */\n      swap1\n      pop\n        /* \"#utility.yul\":10913:11060   */\n      swap3\n      swap2\n      pop\n      pop\n      jump\t// out\n        /* \"#utility.yul\":11066:11180   */\n    tag_273:\n      pop\n      jump\t// out\n        /* \"#utility.yul\":11186:11584   */\n    tag_274:\n        /* \"#utility.yul\":11345:11348   */\n      0x00\n        /* \"#utility.yul\":11366:11449   */\n      tag_403\n        /* \"#utility.yul\":11447:11448   */\n      0x00\n        /* \"#utility.yul\":11442:11445   */\n      dup4\n        /* \"#utility.yul\":11366:11449   */\n      tag_272\n      jump\t// in\n    tag_403:\n        /* \"#utility.yul\":11359:11449   */\n      swap2\n      pop\n        /* \"#utility.yul\":11458:11551   */\n      tag_404\n        /* \"#utility.yul\":11547:11550   */\n      dup3\n        /* \"#utility.yul\":11458:11551   */\n      tag_273\n      jump\t// in\n    tag_404:\n        /* \"#utility.yul\":11576:11577   */\n      0x00\n        /* \"#utility.yul\":11571:11574   */\n      dup3\n        /* \"#utility.yul\":11567:11578   */\n      add\n        /* \"#utility.yul\":11560:11578   */\n      swap1\n      pop\n        /* \"#utility.yul\":11186:11584   */\n      swap2\n      swap1\n      pop\n      jump\t// out\n        /* \"#utility.yul\":11590:11969   */\n    tag_121:\n        /* \"#utility.yul\":11774:11777   */\n      0x00\n        /* \"#utility.yul\":11796:11943   */\n      tag_406\n        /* \"#utility.yul\":11939:11942   */\n      dup3\n        /* \"#utility.yul\":11796:11943   */\n      tag_274\n      jump\t// in\n    tag_406:\n        /* \"#utility.yul\":11789:11943   */\n      swap2\n      pop\n        /* \"#utility.yul\":11960:11963   */\n      dup2\n        /* \"#utility.yul\":11953:11963   */\n      swap1\n      pop\n        /* \"#utility.yul\":11590:11969   */\n      swap2\n      swap1\n      pop\n      jump\t// out\n        /* \"#utility.yul\":11975:12139   */\n    tag_275:\n        /* \"#utility.yul\":12115:12131   */\n      0x5472616e7366657220676167616c000000000000000000000000000000000000\n        /* \"#utility.yul\":12111:12112   */\n      0x00\n        /* \"#utility.yul\":12103:12109   */\n      dup3\n        /* \"#utility.yul\":12099:12113   */\n      add\n        /* \"#utility.yul\":12092:12132   */\n      mstore\n        /* \"#utility.yul\":11975:12139   */\n      pop\n      jump\t// out\n        /* \"#utility.yul\":12145:12511   */\n    tag_276:\n        /* \"#utility.yul\":12287:12290   */\n      0x00\n        /* \"#utility.yul\":12308:12375   */\n      tag_409\n        /* \"#utility.yul\":12372:12374   */\n      0x0e\n        /* \"#utility.yul\":12367:12370   */\n      dup4\n        /* \"#utility.yul\":12308:12375   */\n      tag_269\n      jump\t// in\n    tag_409:\n        /* \"#utility.yul\":12301:12375   */\n      swap2\n      pop\n        /* \"#utility.yul\":12384:12477   */\n      tag_410\n        /* \"#utility.yul\":12473:12476   */\n      dup3\n        /* \"#utility.yul\":12384:12477   */\n      tag_275\n      jump\t// in\n    tag_410:\n        /* \"#utility.yul\":12502:12504   */\n      0x20\n        /* \"#utility.yul\":12497:12500   */\n      dup3\n        /* \"#utility.yul\":12493:12505   */\n      add\n        /* \"#utility.yul\":12486:12505   */\n      swap1\n      pop\n        /* \"#utility.yul\":12145:12511   */\n      swap2\n      swap1\n      pop\n      jump\t// out\n        /* \"#utility.yul\":12517:12936   */\n    tag_127:\n        /* \"#utility.yul\":12683:12687   */\n      0x00\n        /* \"#utility.yul\":12721:12723   */\n      0x20\n        /* \"#utility.yul\":12710:12719   */\n      dup3\n        /* \"#utility.yul\":12706:12724   */\n      add\n        /* \"#utility.yul\":12698:12724   */\n      swap1\n      pop\n        /* \"#utility.yul\":12770:12779   */\n      dup2\n        /* \"#utility.yul\":12764:12768   */\n      dup2\n        /* \"#utility.yul\":12760:12780   */\n      sub\n        /* \"#utility.yul\":12756:12757   */\n      0x00\n        /* \"#utility.yul\":12745:12754   */\n      dup4\n        /* \"#utility.yul\":12741:12758   */\n      add\n        /* \"#utility.yul\":12734:12781   */\n      mstore\n        /* \"#utility.yul\":12798:12929   */\n      tag_412\n        /* \"#utility.yul\":12924:12928   */\n      dup2\n        /* \"#utility.yul\":12798:12929   */\n      tag_276\n      jump\t// in\n    tag_412:\n        /* \"#utility.yul\":12790:12929   */\n      swap1\n      pop\n        /* \"#utility.yul\":12517:12936   */\n      swap2\n      swap1\n      pop\n      jump\t// out\n        /* \"#utility.yul\":12942:13124   */\n    tag_277:\n        /* \"#utility.yul\":13082:13116   */\n      0x496e73756666696369656e742066756e647320746f20706c616e742073656564\n        /* \"#utility.yul\":13078:13079   */\n      0x00\n        /* \"#utility.yul\":13070:13076   */\n      dup3\n        /* \"#utility.yul\":13066:13080   */\n      add\n        /* \"#utility.yul\":13059:13117   */\n      mstore\n        /* \"#utility.yul\":12942:13124   */\n      pop\n      jump\t// out\n        /* \"#utility.yul\":13130:13496   */\n    tag_278:\n        /* \"#utility.yul\":13272:13275   */\n      0x00\n        /* \"#utility.yul\":13293:13360   */\n      tag_415\n        /* \"#utility.yul\":13357:13359   */\n      0x20\n        /* \"#utility.yul\":13352:13355   */\n      dup4\n        /* \"#utility.yul\":13293:13360   */\n      tag_269\n      jump\t// in\n    tag_415:\n        /* \"#utility.yul\":13286:13360   */\n      swap2\n      pop\n        /* \"#utility.yul\":13369:13462   */\n      tag_416\n        /* \"#utility.yul\":13458:13461   */\n      dup3\n        /* \"#utility.yul\":13369:13462   */\n      tag_277\n      jump\t// in\n    tag_416:\n        /* \"#utility.yul\":13487:13489   */\n      0x20\n        /* \"#utility.yul\":13482:13485   */\n      dup3\n        /* \"#utility.yul\":13478:13490   */\n      add\n        /* \"#utility.yul\":13471:13490   */\n      swap1\n      pop\n        /* \"#utility.yul\":13130:13496   */\n      swap2\n      swap1\n      pop\n      jump\t// out\n        /* \"#utility.yul\":13502:13921   */\n    tag_131:\n        /* \"#utility.yul\":13668:13672   */\n      0x00\n        /* \"#utility.yul\":13706:13708   */\n      0x20\n        /* \"#utility.yul\":13695:13704   */\n      dup3\n        /* \"#utility.yul\":13691:13709   */\n      add\n        /* \"#utility.yul\":13683:13709   */\n      swap1\n      pop\n        /* \"#utility.yul\":13755:13764   */\n      dup2\n        /* \"#utility.yul\":13749:13753   */\n      dup2\n        /* \"#utility.yul\":13745:13765   */\n      sub\n        /* \"#utility.yul\":13741:13742   */\n      0x00\n        /* \"#utility.yul\":13730:13739   */\n      dup4\n        /* \"#utility.yul\":13726:13743   */\n      add\n        /* \"#utility.yul\":13719:13766   */\n      mstore\n        /* \"#utility.yul\":13783:13914   */\n      tag_418\n        /* \"#utility.yul\":13909:13913   */\n      dup2\n        /* \"#utility.yul\":13783:13914   */\n      tag_278\n      jump\t// in\n    tag_418:\n        /* \"#utility.yul\":13775:13914   */\n      swap1\n      pop\n        /* \"#utility.yul\":13502:13921   */\n      swap2\n      swap1\n      pop\n      jump\t// out\n        /* \"#utility.yul\":13927:14107   */\n    tag_279:\n        /* \"#utility.yul\":13975:14052   */\n      0x4e487b7100000000000000000000000000000000000000000000000000000000\n        /* \"#utility.yul\":13972:13973   */\n      0x00\n        /* \"#utility.yul\":13965:14053   */\n      mstore\n        /* \"#utility.yul\":14072:14076   */\n      0x11\n        /* \"#utility.yul\":14069:14070   */\n      0x04\n        /* \"#utility.yul\":14062:14077   */\n      mstore\n        /* \"#utility.yul\":14096:14100   */\n      0x24\n        /* \"#utility.yul\":14093:14094   */\n      0x00\n        /* \"#utility.yul\":14086:14101   */\n      revert\n        /* \"#utility.yul\":14113:14346   */\n    tag_133:\n        /* \"#utility.yul\":14152:14155   */\n      0x00\n        /* \"#utility.yul\":14175:14199   */\n      tag_421\n        /* \"#utility.yul\":14193:14198   */\n      dup3\n        /* \"#utility.yul\":14175:14199   */\n      tag_248\n      jump\t// in\n    tag_421:\n        /* \"#utility.yul\":14166:14199   */\n      swap2\n      pop\n        /* \"#utility.yul\":14221:14287   */\n      0xffffffffffffffffffffffffffffffffffffffffffffffffffffffffffffffff\n        /* \"#utility.yul\":14214:14219   */\n      dup3\n        /* \"#utility.yul\":14211:14288   */\n      sub\n        /* \"#utility.yul\":14208:14311   */\n      tag_422\n      jumpi\n        /* \"#utility.yul\":14291:14309   */\n      tag_423\n      tag_279\n      jump\t// in\n    tag_423:\n        /* \"#utility.yul\":14208:14311   */\n    tag_422:\n        /* \"#utility.yul\":14338:14339   */\n      0x01\n        /* \"#utility.yul\":14331:14336   */\n      dup3\n        /* \"#utility.yul\":14327:14340   */\n      add\n        /* \"#utility.yul\":14320:14340   */\n      swap1\n      pop\n        /* \"#utility.yul\":14113:14346   */\n      swap2\n      swap1\n      pop\n      jump\t// out\n        /* \"#utility.yul\":14352:14546   */\n    tag_146:\n        /* \"#utility.yul\":14392:14396   */\n      0x00\n        /* \"#utility.yul\":14412:14432   */\n      tag_425\n        /* \"#utility.yul\":14430:14431   */\n      dup3\n        /* \"#utility.yul\":14412:14432   */\n      tag_248\n      jump\t// in\n    tag_425:\n        /* \"#utility.yul\":14407:14432   */\n      swap2\n      pop\n        /* \"#utility.yul\":14446:14466   */\n      tag_426\n        /* \"#utility.yul\":14464:14465   */\n      dup4\n        /* \"#utility.yul\":14446:14466   */\n      tag_248\n      jump\t// in\n    tag_426:\n        /* \"#utility.yul\":14441:14466   */\n      swap3\n      pop\n        /* \"#utility.yul\":14490:14491   */\n      dup3\n        /* \"#utility.yul\":14487:14488   */\n      dup3\n        /* \"#utility.yul\":14483:14492   */\n      sub\n        /* \"#utility.yul\":14475:14492   */\n      swap1\n      pop\n        /* \"#utility.yul\":14514:14515   */\n      dup2\n        /* \"#utility.yul\":14508:14512   */\n      dup2\n        /* \"#utility.yul\":14505:14516   */\n      gt\n        /* \"#utility.yul\":14502:14539   */\n      iszero\n      tag_427\n      jumpi\n        /* \"#utility.yul\":14519:14537   */\n      tag_428\n      tag_279\n      jump\t// in\n    tag_428:\n        /* \"#utility.yul\":14502:14539   */\n    tag_427:\n        /* \"#utility.yul\":14352:14546   */\n      swap3\n      swap2\n      pop\n      pop\n      jump\t// out\n        /* \"#utility.yul\":14552:14732   */\n    tag_280:\n        /* \"#utility.yul\":14600:14677   */\n      0x4e487b7100000000000000000000000000000000000000000000000000000000\n        /* \"#utility.yul\":14597:14598   */\n      0x00\n        /* \"#utility.yul\":14590:14678   */\n      mstore\n        /* \"#utility.yul\":14697:14701   */\n      0x12\n        /* \"#utility.yul\":14694:14695   */\n      0x04\n        /* \"#utility.yul\":14687:14702   */\n      mstore\n        /* \"#utility.yul\":14721:14725   */\n      0x24\n        /* \"#utility.yul\":14718:14719   */\n      0x00\n        /* \"#utility.yul\":14711:14726   */\n      revert\n        /* \"#utility.yul\":14738:14923   */\n    tag_148:\n        /* \"#utility.yul\":14778:14779   */\n      0x00\n        /* \"#utility.yul\":14795:14815   */\n      tag_431\n        /* \"#utility.yul\":14813:14814   */\n      dup3\n        /* \"#utility.yul\":14795:14815   */\n      tag_248\n      jump\t// in\n    tag_431:\n        /* \"#utility.yul\":14790:14815   */\n      swap2\n      pop\n        /* \"#utility.yul\":14829:14849   */\n      tag_432\n        /* \"#utility.yul\":14847:14848   */\n      dup4\n        /* \"#utility.yul\":14829:14849   */\n      tag_248\n      jump\t// in\n    tag_432:\n        /* \"#utility.yul\":14824:14849   */\n      swap3\n      pop\n        /* \"#utility.yul\":14868:14869   */\n      dup3\n        /* \"#utility.yul\":14858:14893   */\n      tag_433\n      jumpi\n        /* \"#utility.yul\":14873:14891   */\n      tag_434\n      tag_280\n      jump\t// in\n    tag_434:\n        /* \"#utility.yul\":14858:14893   */\n    tag_433:\n        /* \"#utility.yul\":14915:14916   */\n      dup3\n        /* \"#utility.yul\":14912:14913   */\n      dup3\n        /* \"#utility.yul\":14908:14917   */\n      div\n        /* \"#utility.yul\":14903:14917   */\n      swap1\n      pop\n        /* \"#utility.yul\":14738:14923   */\n      swap3\n      swap2\n      pop\n      pop\n      jump\t// out\n        /* \"#utility.yul\":14929:15339   */\n    tag_150:\n        /* \"#utility.yul\":14969:14976   */\n      0x00\n        /* \"#utility.yul\":14992:15012   */\n      tag_436\n        /* \"#utility.yul\":15010:15011   */\n      dup3\n        /* \"#utility.yul\":14992:15012   */\n      tag_248\n      jump\t// in\n    tag_436:\n        /* \"#utility.yul\":14987:15012   */\n      swap2\n      pop\n        /* \"#utility.yul\":15026:15046   */\n      tag_437\n        /* \"#utility.yul\":15044:15045   */\n      dup4\n        /* \"#utility.yul\":15026:15046   */\n      tag_248\n      jump\t// in\n    tag_437:\n        /* \"#utility.yul\":15021:15046   */\n      swap3\n      pop\n        /* \"#utility.yul\":15081:15082   */\n      dup3\n        /* \"#utility.yul\":15078:15079   */\n      dup3\n        /* \"#utility.yul\":15074:15083   */\n      mul\n        /* \"#utility.yul\":15103:15133   */\n      tag_438\n        /* \"#utility.yul\":15121:15132   */\n      dup2\n        /* \"#utility.yul\":15103:15133   */\n      tag_248\n      jump\t// in\n    tag_438:\n        /* \"#utility.yul\":15092:15133   */\n      swap2\n      pop\n        /* \"#utility.yul\":15282:15283   */\n      dup3\n        /* \"#utility.yul\":15273:15280   */\n      dup3\n        /* \"#utility.yul\":15269:15284   */\n      div\n        /* \"#utility.yul\":15266:15267   */\n      dup5\n        /* \"#utility.yul\":15263:15285   */\n      eq\n        /* \"#utility.yul\":15243:15244   */\n      dup4\n        /* \"#utility.yul\":15236:15245   */\n      iszero\n        /* \"#utility.yul\":15216:15299   */\n      or\n        /* \"#utility.yul\":15193:15332   */\n      tag_439\n      jumpi\n        /* \"#utility.yul\":15312:15330   */\n      tag_440\n      tag_279\n      jump\t// in\n    tag_440:\n        /* \"#utility.yul\":15193:15332   */\n    tag_439:\n        /* \"#utility.yul\":14977:15339   */\n      pop\n        /* \"#utility.yul\":14929:15339   */\n      swap3\n      swap2\n      pop\n      pop\n      jump\t// out\n        /* \"#utility.yul\":15345:15507   */\n    tag_281:\n        /* \"#utility.yul\":15485:15499   */\n      0x54616e616d616e204d6174690000000000000000000000000000000000000000\n        /* \"#utility.yul\":15481:15482   */\n      0x00\n        /* \"#utility.yul\":15473:15479   */\n      dup3\n        /* \"#utility.yul\":15469:15483   */\n      add\n        /* \"#utility.yul\":15462:15500   */\n      mstore\n        /* \"#utility.yul\":15345:15507   */\n      pop\n      jump\t// out\n        /* \"#utility.yul\":15513:15879   */\n    tag_282:\n        /* \"#utility.yul\":15655:15658   */\n      0x00\n        /* \"#utility.yul\":15676:15743   */\n      tag_443\n        /* \"#utility.yul\":15740:15742   */\n      0x0c\n        /* \"#utility.yul\":15735:15738   */\n      dup4\n        /* \"#utility.yul\":15676:15743   */\n      tag_269\n      jump\t// in\n    tag_443:\n        /* \"#utility.yul\":15669:15743   */\n      swap2\n      pop\n        /* \"#utility.yul\":15752:15845   */\n      tag_444\n        /* \"#utility.yul\":15841:15844   */\n      dup3\n        /* \"#utility.yul\":15752:15845   */\n      tag_281\n      jump\t// in\n    tag_444:\n        /* \"#utility.yul\":15870:15872   */\n      0x20\n        /* \"#utility.yul\":15865:15868   */\n      dup3\n        /* \"#utility.yul\":15861:15873   */\n      add\n        /* \"#utility.yul\":15854:15873   */\n      swap1\n      pop\n        /* \"#utility.yul\":15513:15879   */\n      swap2\n      swap1\n      pop\n      jump\t// out\n        /* \"#utility.yul\":15885:16304   */\n    tag_158:\n        /* \"#utility.yul\":16051:16055   */\n      0x00\n        /* \"#utility.yul\":16089:16091   */\n      0x20\n        /* \"#utility.yul\":16078:16087   */\n      dup3\n        /* \"#utility.yul\":16074:16092   */\n      add\n        /* \"#utility.yul\":16066:16092   */\n      swap1\n      pop\n        /* \"#utility.yul\":16138:16147   */\n      dup2\n        /* \"#utility.yul\":16132:16136   */\n      dup2\n        /* \"#utility.yul\":16128:16148   */\n      sub\n        /* \"#utility.yul\":16124:16125   */\n      0x00\n        /* \"#utility.yul\":16113:16122   */\n      dup4\n        /* \"#utility.yul\":16109:16126   */\n      add\n        /* \"#utility.yul\":16102:16149   */\n      mstore\n        /* \"#utility.yul\":16166:16297   */\n      tag_446\n        /* \"#utility.yul\":16292:16296   */\n      dup2\n        /* \"#utility.yul\":16166:16297   */\n      tag_282\n      jump\t// in\n    tag_446:\n        /* \"#utility.yul\":16158:16297   */\n      swap1\n      pop\n        /* \"#utility.yul\":15885:16304   */\n      swap2\n      swap1\n      pop\n      jump\t// out\n        /* \"#utility.yul\":16310:16479   */\n    tag_283:\n        /* \"#utility.yul\":16450:16471   */\n      0x42756b616e2074616e616d616e20416e64612100000000000000000000000000\n        /* \"#utility.yul\":16446:16447   */\n      0x00\n        /* \"#utility.yul\":16438:16444   */\n      dup3\n        /* \"#utility.yul\":16434:16448   */\n      add\n        /* \"#utility.yul\":16427:16472   */\n      mstore\n        /* \"#utility.yul\":16310:16479   */\n      pop\n      jump\t// out\n        /* \"#utility.yul\":16485:16851   */\n    tag_284:\n        /* \"#utility.yul\":16627:16630   */\n      0x00\n        /* \"#utility.yul\":16648:16715   */\n      tag_449\n        /* \"#utility.yul\":16712:16714   */\n      0x13\n        /* \"#utility.yul\":16707:16710   */\n      dup4\n        /* \"#utility.yul\":16648:16715   */\n      tag_269\n      jump\t// in\n    tag_449:\n        /* \"#utility.yul\":16641:16715   */\n      swap2\n      pop\n        /* \"#utility.yul\":16724:16817   */\n      tag_450\n        /* \"#utility.yul\":16813:16816   */\n      dup3\n        /* \"#utility.yul\":16724:16817   */\n      tag_283\n      jump\t// in\n    tag_450:\n        /* \"#utility.yul\":16842:16844   */\n      0x20\n        /* \"#utility.yul\":16837:16840   */\n      dup3\n        /* \"#utility.yul\":16833:16845   */\n      add\n        /* \"#utility.yul\":16826:16845   */\n      swap1\n      pop\n        /* \"#utility.yul\":16485:16851   */\n      swap2\n      swap1\n      pop\n      jump\t// out\n        /* \"#utility.yul\":16857:17276   */\n    tag_161:\n        /* \"#utility.yul\":17023:17027   */\n      0x00\n        /* \"#utility.yul\":17061:17063   */\n      0x20\n        /* \"#utility.yul\":17050:17059   */\n      dup3\n        /* \"#utility.yul\":17046:17064   */\n      add\n        /* \"#utility.yul\":17038:17064   */\n      swap1\n      pop\n        /* \"#utility.yul\":17110:17119   */\n      dup2\n        /* \"#utility.yul\":17104:17108   */\n      dup2\n        /* \"#utility.yul\":17100:17120   */\n      sub\n        /* \"#utility.yul\":17096:17097   */\n      0x00\n        /* \"#utility.yul\":17085:17094   */\n      dup4\n        /* \"#utility.yul\":17081:17098   */\n      add\n        /* \"#utility.yul\":17074:17121   */\n      mstore\n        /* \"#utility.yul\":17138:17269   */\n      tag_452\n        /* \"#utility.yul\":17264:17268   */\n      dup2\n        /* \"#utility.yul\":17138:17269   */\n      tag_284\n      jump\t// in\n    tag_452:\n        /* \"#utility.yul\":17130:17269   */\n      swap1\n      pop\n        /* \"#utility.yul\":16857:17276   */\n      swap2\n      swap1\n      pop\n      jump\t// out\n        /* \"#utility.yul\":17282:17369   */\n    tag_285:\n        /* \"#utility.yul\":17329:17336   */\n      0x00\n        /* \"#utility.yul\":17358:17363   */\n      dup2\n        /* \"#utility.yul\":17347:17363   */\n      swap1\n      pop\n        /* \"#utility.yul\":17282:17369   */\n      swap2\n      swap1\n      pop\n      jump\t// out\n        /* \"#utility.yul\":17375:17435   */\n    tag_286:\n        /* \"#utility.yul\":17403:17406   */\n      0x00\n        /* \"#utility.yul\":17424:17429   */\n      dup2\n        /* \"#utility.yul\":17417:17429   */\n      swap1\n      pop\n        /* \"#utility.yul\":17375:17435   */\n      swap2\n      swap1\n      pop\n      jump\t// out\n        /* \"#utility.yul\":17441:17599   */\n    tag_287:\n        /* \"#utility.yul\":17499:17508   */\n      0x00\n        /* \"#utility.yul\":17532:17593   */\n      tag_456\n        /* \"#utility.yul\":17548:17592   */\n      tag_457\n        /* \"#utility.yul\":17557:17591   */\n      tag_458\n        /* \"#utility.yul\":17585:17590   */\n      dup5\n        /* \"#utility.yul\":17557:17591   */\n      tag_285\n      jump\t// in\n    tag_458:\n        /* \"#utility.yul\":17548:17592   */\n      tag_286\n      jump\t// in\n    tag_457:\n        /* \"#utility.yul\":17532:17593   */\n      tag_263\n      jump\t// in\n    tag_456:\n        /* \"#utility.yul\":17519:17593   */\n      swap1\n      pop\n        /* \"#utility.yul\":17441:17599   */\n      swap2\n      swap1\n      pop\n      jump\t// out\n        /* \"#utility.yul\":17605:17752   */\n    tag_288:\n        /* \"#utility.yul\":17700:17745   */\n      tag_460\n        /* \"#utility.yul\":17739:17744   */\n      dup2\n        /* \"#utility.yul\":17700:17745   */\n      tag_287\n      jump\t// in\n    tag_460:\n        /* \"#utility.yul\":17695:17698   */\n      dup3\n        /* \"#utility.yul\":17688:17746   */\n      mstore\n        /* \"#utility.yul\":17605:17752   */\n      pop\n      pop\n      jump\t// out\n        /* \"#utility.yul\":17758:17996   */\n    tag_165:\n        /* \"#utility.yul\":17859:17863   */\n      0x00\n        /* \"#utility.yul\":17897:17899   */\n      0x20\n        /* \"#utility.yul\":17886:17895   */\n      dup3\n        /* \"#utility.yul\":17882:17900   */\n      add\n        /* \"#utility.yul\":17874:17900   */\n      swap1\n      pop\n        /* \"#utility.yul\":17910:17989   */\n      tag_462\n        /* \"#utility.yul\":17986:17987   */\n      0x00\n        /* \"#utility.yul\":17975:17984   */\n      dup4\n        /* \"#utility.yul\":17971:17988   */\n      add\n        /* \"#utility.yul\":17962:17968   */\n      dup5\n        /* \"#utility.yul\":17910:17989   */\n      tag_288\n      jump\t// in\n    tag_462:\n        /* \"#utility.yul\":17758:17996   */\n      swap3\n      swap2\n      pop\n      pop\n      jump\t// out\n        /* \"#utility.yul\":18002:18246   */\n    tag_183:\n        /* \"#utility.yul\":18106:18110   */\n      0x00\n        /* \"#utility.yul\":18144:18146   */\n      0x20\n        /* \"#utility.yul\":18133:18142   */\n      dup3\n        /* \"#utility.yul\":18129:18147   */\n      add\n        /* \"#utility.yul\":18121:18147   */\n      swap1\n      pop\n        /* \"#utility.yul\":18157:18239   */\n      tag_464\n        /* \"#utility.yul\":18236:18237   */\n      0x00\n        /* \"#utility.yul\":18225:18234   */\n      dup4\n        /* \"#utility.yul\":18221:18238   */\n      add\n        /* \"#utility.yul\":18212:18218   */\n      dup5\n        /* \"#utility.yul\":18157:18239   */\n      tag_258\n      jump\t// in\n    tag_464:\n        /* \"#utility.yul\":18002:18246   */\n      swap3\n      swap2\n      pop\n      pop\n      jump\t// out\n        /* \"#utility.yul\":18252:18422   */\n    tag_289:\n        /* \"#utility.yul\":18392:18414   */\n      0x537461676520686172757320626c6f6f6d696e67000000000000000000000000\n        /* \"#utility.yul\":18388:18389   */\n      0x00\n        /* \"#utility.yul\":18380:18386   */\n      dup3\n        /* \"#utility.yul\":18376:18390   */\n      add\n        /* \"#utility.yul\":18369:18415   */\n      mstore\n        /* \"#utility.yul\":18252:18422   */\n      pop\n      jump\t// out\n        /* \"#utility.yul\":18428:18794   */\n    tag_290:\n        /* \"#utility.yul\":18570:18573   */\n      0x00\n        /* \"#utility.yul\":18591:18658   */\n      tag_467\n        /* \"#utility.yul\":18655:18657   */\n      0x14\n        /* \"#utility.yul\":18650:18653   */\n      dup4\n        /* \"#utility.yul\":18591:18658   */\n      tag_269\n      jump\t// in\n    tag_467:\n        /* \"#utility.yul\":18584:18658   */\n      swap2\n      pop\n        /* \"#utility.yul\":18667:18760   */\n      tag_468\n        /* \"#utility.yul\":18756:18759   */\n      dup3\n        /* \"#utility.yul\":18667:18760   */\n      tag_289\n      jump\t// in\n    tag_468:\n        /* \"#utility.yul\":18785:18787   */\n      0x20\n        /* \"#utility.yul\":18780:18783   */\n      dup3\n        /* \"#utility.yul\":18776:18788   */\n      add\n        /* \"#utility.yul\":18769:18788   */\n      swap1\n      pop\n        /* \"#utility.yul\":18428:18794   */\n      swap2\n      swap1\n      pop\n      jump\t// out\n        /* \"#utility.yul\":18800:19219   */\n    tag_216:\n        /* \"#utility.yul\":18966:18970   */\n      0x00\n        /* \"#utility.yul\":19004:19006   */\n      0x20\n        /* \"#utility.yul\":18993:19002   */\n      dup3\n        /* \"#utility.yul\":18989:19007   */\n      add\n        /* \"#utility.yul\":18981:19007   */\n      swap1\n      pop\n        /* \"#utility.yul\":19053:19062   */\n      dup2\n        /* \"#utility.yul\":19047:19051   */\n      dup2\n        /* \"#utility.yul\":19043:19063   */\n      sub\n        /* \"#utility.yul\":19039:19040   */\n      0x00\n        /* \"#utility.yul\":19028:19037   */\n      dup4\n        /* \"#utility.yul\":19024:19041   */\n      add\n        /* \"#utility.yul\":19017:19064   */\n      mstore\n        /* \"#utility.yul\":19081:19212   */\n      tag_470\n        /* \"#utility.yul\":19207:19211   */\n      dup2\n        /* \"#utility.yul\":19081:19212   */\n      tag_290\n      jump\t// in\n    tag_470:\n        /* \"#utility.yul\":19073:19212   */\n      swap1\n      pop\n        /* \"#utility.yul\":18800:19219   */\n      swap2\n      swap1\n      pop\n      jump\t// out\n\n    auxdata: 0xa264697066735822122067d1682b1e2fda4a76f7a9fcecb64abb0bc3920747ff8484088b098d27aac3fc64736f6c634300081e0033\n}\n",
				"bytecode": {
					"linkReferences": {},
					"object": "6080604052348015600e575f5ffd5b503360035f6101000a81548173ffffffffffffffffffffffffffffffffffffffff021916908373ffffffffffffffffffffffffffffffffffffffff160217905550611ed78061005c5f395ff3fe608060405260043610610117575f3560e01c80638dd2361c1161009f578063cfc9a5f811610063578063cfc9a5f8146103a2578063d0e30db0146103cc578063ddd42596146103d6578063e38f8448146103fe578063ed0b1f5f146104265761011e565b80638dd2361c146102b957806390fd1ed4146102fc5780639886bcfa146103265780639c4717491461034e578063bacb5ebd146103785761011e565b806374119a38116100e657806374119a38146101cf578063754e150d146101ed578063891c0785146102295780638aee578b146102535780638da5cb5b1461028f5761011e565b806330cec0eb146101225780633a8fdff01461015e5780633ccfd60b1461018f57806351f9efde146101a55761011e565b3661011e57005b5f5ffd5b34801561012d575f5ffd5b5061014860048036038101906101439190611615565b610462565b6040516101559190611700565b60405180910390f35b348015610169575f5ffd5b506101726104f5565b6040516101869897969594939291906117cb565b60405180910390f35b34801561019a575f5ffd5b506101a361056f565b005b3480156101b0575f5ffd5b506101b96106ca565b6040516101c69190611847565b60405180910390f35b6101d76106cf565b6040516101e49190611847565b60405180910390f35b3480156101f8575f5ffd5b50610213600480360381019061020e919061188a565b610aa5565b6040516102209190611847565b60405180910390f35b348015610234575f5ffd5b5061023d610b5b565b60405161024a9190611847565b60405180910390f35b34801561025e575f5ffd5b50610279600480360381019061027491906118b5565b610b66565b6040516102869190611847565b60405180910390f35b34801561029a575f5ffd5b506102a3610b91565b6040516102b091906118f3565b60405180910390f35b3480156102c4575f5ffd5b506102df60048036038101906102da919061188a565b610bb6565b6040516102f39897969594939291906117cb565b60405180910390f35b348015610307575f5ffd5b50610310610c3e565b60405161031d9190611847565b60405180910390f35b348015610331575f5ffd5b5061034c6004803603810190610347919061188a565b610c43565b005b348015610359575f5ffd5b50610362610de2565b60405161036f9190611847565b60405180910390f35b348015610383575f5ffd5b5061038c610de8565b6040516103999190611927565b60405180910390f35b3480156103ad575f5ffd5b506103b6610ded565b6040516103c39190611847565b60405180910390f35b6103d4610df8565b005b3480156103e1575f5ffd5b506103fc60048036038101906103f7919061188a565b610dfa565b005b348015610409575f5ffd5b50610424600480360381019061041f919061188a565b611074565b005b348015610431575f5ffd5b5061044c6004803603810190610447919061188a565b611385565b6040516104599190611a0d565b60405180910390f35b606060015f8373ffffffffffffffffffffffffffffffffffffffff1673ffffffffffffffffffffffffffffffffffffffff1681526020019081526020015f208054806020026020016040519081016040528092919081815260200182805480156104e957602002820191905f5260205f20905b8154815260200190600101908083116104d5575b50505050509050919050565b6004805f015490806001015f9054906101000a900473ffffffffffffffffffffffffffffffffffffffff16908060010160149054906101000a900460ff1690806002015490806003015490806004015490806005015f9054906101000a900460ff16908060050160019054906101000a900460ff16905088565b60035f9054906101000a900473ffffffffffffffffffffffffffffffffffffffff1673ffffffffffffffffffffffffffffffffffffffff163373ffffffffffffffffffffffffffffffffffffffff16146105fe576040517f08c379a00000000000000000000000000000000000000000000000000000000081526004016105f590611a81565b60405180910390fd5b5f60035f9054906101000a900473ffffffffffffffffffffffffffffffffffffffff1673ffffffffffffffffffffffffffffffffffffffff164760405161064490611acc565b5f6040518083038185875af1925050503d805f811461067e576040519150601f19603f3d011682016040523d82523d5f602084013e610683565b606091505b50509050806106c7576040517f08c379a00000000000000000000000000000000000000000000000000000000081526004016106be90611b2a565b60405180910390fd5b50565b603c81565b5f66038d7ea4c6800034101561071a576040517f08c379a000000000000000000000000000000000000000000000000000000000815260040161071190611b92565b60405180910390fd5b60025f81548092919061072c90611bdd565b919050555060405180610100016040528060025481526020013373ffffffffffffffffffffffffffffffffffffffff1681526020015f60038111156107745761077361173e565b5b8152602001603281526020014281526020014281526020016001151581526020015f151581525060045f820151815f01556020820151816001015f6101000a81548173ffffffffffffffffffffffffffffffffffffffff021916908373ffffffffffffffffffffffffffffffffffffffff16021790555060408201518160010160146101000a81548160ff021916908360038111156108165761081561173e565b5b0217905550606082015181600201556080820151816003015560a0820151816004015560c0820151816005015f6101000a81548160ff02191690831515021790555060e08201518160050160016101000a81548160ff02191690831515021790555090505060045f5f60025481526020019081526020015f205f820154815f0155600182015f9054906101000a900473ffffffffffffffffffffffffffffffffffffffff16816001015f6101000a81548173ffffffffffffffffffffffffffffffffffffffff021916908373ffffffffffffffffffffffffffffffffffffffff1602179055506001820160149054906101000a900460ff168160010160146101000a81548160ff021916908360038111156109345761093361173e565b5b0217905550600282015481600201556003820154816003015560048201548160040155600582015f9054906101000a900460ff16816005015f6101000a81548160ff0219169083151502179055506005820160019054906101000a900460ff168160050160016101000a81548160ff02191690831515021790555090505060015f60035f9054906101000a900473ffffffffffffffffffffffffffffffffffffffff1673ffffffffffffffffffffffffffffffffffffffff1673ffffffffffffffffffffffffffffffffffffffff1681526020019081526020015f20600254908060018154018082558091505060019003905f5260205f20015f909190919091505560025460035f9054906101000a900473ffffffffffffffffffffffffffffffffffffffff1673ffffffffffffffffffffffffffffffffffffffff167f4f5b22082ac57121703b0b6c1203ef527cfbfa5069616fee6deb979d124adbf060405160405180910390a3600254905090565b5f5f5f5f8481526020019081526020015f209050806005015f9054906101000a900460ff161580610ae457508060050160019054906101000a900460ff165b15610af2575f915050610b56565b5f816004015442610b039190611c24565b90505f601e82610b139190611c84565b90505f600260ff1682610b269190611cb4565b905083600201548110610b3f575f945050505050610b56565b808460020154610b4f9190611c24565b9450505050505b919050565b660aa87bee53800081565b6001602052815f5260405f208181548110610b7f575f80fd5b905f5260205f20015f91509150505481565b60035f9054906101000a900473ffffffffffffffffffffffffffffffffffffffff1681565b5f602052805f5260405f205f91509050805f015490806001015f9054906101000a900473ffffffffffffffffffffffffffffffffffffffff16908060010160149054906101000a900460ff1690806002015490806003015490806004015490806005015f9054906101000a900460ff16908060050160019054906101000a900460ff16905088565b601e81565b5f5f5f8381526020019081526020015f209050806005015f9054906101000a900460ff16610ca6576040517f08c379a0000000000000000000000000000000000000000000000000000000008152600401610c9d90611d3f565b60405180910390fd5b3373ffffffffffffffffffffffffffffffffffffffff16816001015f9054906101000a900473ffffffffffffffffffffffffffffffffffffffff1673ffffffffffffffffffffffffffffffffffffffff1614610d37576040517f08c379a0000000000000000000000000000000000000000000000000000000008152600401610d2e90611da7565b60405180910390fd5b8060050160019054906101000a900460ff1615610d89576040517f08c379a0000000000000000000000000000000000000000000000000000000008152600401610d8090611d3f565b60405180910390fd5b60648160020181905550428160040181905550817fd4b742b9ba48fffa1f14267075a7793851770764117c423fd0a6550dfc8cb5746064604051610dcd9190611e07565b60405180910390a2610dde82610dfa565b5050565b60025481565b600281565b66038d7ea4c6800081565b565b5f5f5f8381526020019081526020015f209050806005015f9054906101000a900460ff16610e5d576040517f08c379a0000000000000000000000000000000000000000000000000000000008152600401610e5490611d3f565b60405180910390fd5b610e66826114b3565b8060050160019054906101000a900460ff1615610e835750611071565b5f816003015442610e949190611c24565b90505f8260010160149054906101000a900460ff1690505f6003811115610ebe57610ebd61173e565b5b816003811115610ed157610ed061173e565b5b03610f415760018360010160146101000a81548160ff02191690836003811115610efe57610efd61173e565b5b0217905550837f338b8976706f9da67298dddfa1ea4ff7d99cce68b9ca39c4f348994f8e2124a86001604051610f349190611e20565b60405180910390a261106d565b60016003811115610f5557610f5461173e565b5b816003811115610f6857610f6761173e565b5b03610fd85760028360010160146101000a81548160ff02191690836003811115610f9557610f9461173e565b5b0217905550837f338b8976706f9da67298dddfa1ea4ff7d99cce68b9ca39c4f348994f8e2124a86002604051610fcb9190611e20565b60405180910390a261106c565b60026003811115610fec57610feb61173e565b5b816003811115610fff57610ffe61173e565b5b0361106b5760038360010160146101000a81548160ff0219169083600381111561102c5761102b61173e565b5b0217905550837f338b8976706f9da67298dddfa1ea4ff7d99cce68b9ca39c4f348994f8e2124a860036040516110629190611e20565b60405180910390a25b5b5b5050505b50565b5f5f5f8381526020019081526020015f209050806005015f9054906101000a900460ff166110d7576040517f08c379a00000000000000000000000000000000000000000000000000000000081526004016110ce90611d3f565b60405180910390fd5b3373ffffffffffffffffffffffffffffffffffffffff16816001015f9054906101000a900473ffffffffffffffffffffffffffffffffffffffff1673ffffffffffffffffffffffffffffffffffffffff1614611168576040517f08c379a000000000000000000000000000000000000000000000000000000000815260040161115f90611da7565b60405180910390fd5b8060050160019054906101000a900460ff16156111ba576040517f08c379a00000000000000000000000000000000000000000000000000000000081526004016111b190611d3f565b60405180910390fd5b6111c382610dfa565b6003808111156111d6576111d561173e565b5b8160010160149054906101000a900460ff1660038111156111fa576111f961173e565b5b1461123a576040517f08c379a000000000000000000000000000000000000000000000000000000000815260040161123190611e83565b60405180910390fd5b5f816005015f6101000a81548160ff0219169083151502179055505f660aa87bee538000905060035f9054906101000a900473ffffffffffffffffffffffffffffffffffffffff1673ffffffffffffffffffffffffffffffffffffffff16837f79f2138ea100070ff95b59c265da7aa3c7a0f61595fe1bb2f5fda2762f398847836040516112c89190611847565b60405180910390a35f3373ffffffffffffffffffffffffffffffffffffffff16660aa87bee5380006040516112fc90611acc565b5f6040518083038185875af1925050503d805f8114611336576040519150601f19603f3d011682016040523d82523d5f602084013e61133b565b606091505b505090508061137f576040517f08c379a000000000000000000000000000000000000000000000000000000000815260040161137690611b2a565b60405180910390fd5b50505050565b61138d61154e565b5f5f5f8481526020019081526020015f20604051806101000160405290815f8201548152602001600182015f9054906101000a900473ffffffffffffffffffffffffffffffffffffffff1673ffffffffffffffffffffffffffffffffffffffff1673ffffffffffffffffffffffffffffffffffffffff1681526020016001820160149054906101000a900460ff16600381111561142d5761142c61173e565b5b600381111561143f5761143e61173e565b5b8152602001600282015481526020016003820154815260200160048201548152602001600582015f9054906101000a900460ff161515151581526020016005820160019054906101000a900460ff16151515158152505090506114a183610aa5565b81606001818152505080915050919050565b5f5f5f8381526020019081526020015f2090505f6114d083610aa5565b90508082600201819055505f811480156114f957508160050160019054906101000a900460ff16155b1561151c5760018260050160016101000a81548160ff0219169083151502179055505b827fcc296a21951f3e57f21afb08547d835a0a9f0f06cc2867009cbe0cae44d36be960405160405180910390a2505050565b6040518061010001604052805f81526020015f73ffffffffffffffffffffffffffffffffffffffff1681526020015f600381111561158f5761158e61173e565b5b81526020015f81526020015f81526020015f81526020015f151581526020015f151581525090565b5f5ffd5b5f73ffffffffffffffffffffffffffffffffffffffff82169050919050565b5f6115e4826115bb565b9050919050565b6115f4816115da565b81146115fe575f5ffd5b50565b5f8135905061160f816115eb565b92915050565b5f6020828403121561162a576116296115b7565b5b5f61163784828501611601565b91505092915050565b5f81519050919050565b5f82825260208201905092915050565b5f819050602082019050919050565b5f819050919050565b61167b81611669565b82525050565b5f61168c8383611672565b60208301905092915050565b5f602082019050919050565b5f6116ae82611640565b6116b8818561164a565b93506116c38361165a565b805f5b838110156116f35781516116da8882611681565b97506116e583611698565b9250506001810190506116c6565b5085935050505092915050565b5f6020820190508181035f83015261171881846116a4565b905092915050565b61172981611669565b82525050565b611738816115da565b82525050565b7f4e487b71000000000000000000000000000000000000000000000000000000005f52602160045260245ffd5b6004811061177c5761177b61173e565b5b50565b5f81905061178c8261176b565b919050565b5f61179b8261177f565b9050919050565b6117ab81611791565b82525050565b5f8115159050919050565b6117c5816117b1565b82525050565b5f610100820190506117df5f83018b611720565b6117ec602083018a61172f565b6117f960408301896117a2565b6118066060830188611720565b6118136080830187611720565b61182060a0830186611720565b61182d60c08301856117bc565b61183a60e08301846117bc565b9998505050505050505050565b5f60208201905061185a5f830184611720565b92915050565b61186981611669565b8114611873575f5ffd5b50565b5f8135905061188481611860565b92915050565b5f6020828403121561189f5761189e6115b7565b5b5f6118ac84828501611876565b91505092915050565b5f5f604083850312156118cb576118ca6115b7565b5b5f6118d885828601611601565b92505060206118e985828601611876565b9150509250929050565b5f6020820190506119065f83018461172f565b92915050565b5f60ff82169050919050565b6119218161190c565b82525050565b5f60208201905061193a5f830184611918565b92915050565b611949816115da565b82525050565b61195881611791565b82525050565b611967816117b1565b82525050565b61010082015f8201516119825f850182611672565b5060208201516119956020850182611940565b5060408201516119a8604085018261194f565b5060608201516119bb6060850182611672565b5060808201516119ce6080850182611672565b5060a08201516119e160a0850182611672565b5060c08201516119f460c085018261195e565b5060e0820151611a0760e085018261195e565b50505050565b5f61010082019050611a215f83018461196d565b92915050565b5f82825260208201905092915050565b7f42756b616e206f776e65720000000000000000000000000000000000000000005f82015250565b5f611a6b600b83611a27565b9150611a7682611a37565b602082019050919050565b5f6020820190508181035f830152611a9881611a5f565b9050919050565b5f81905092915050565b50565b5f611ab75f83611a9f565b9150611ac282611aa9565b5f82019050919050565b5f611ad682611aac565b9150819050919050565b7f5472616e7366657220676167616c0000000000000000000000000000000000005f82015250565b5f611b14600e83611a27565b9150611b1f82611ae0565b602082019050919050565b5f6020820190508181035f830152611b4181611b08565b9050919050565b7f496e73756666696369656e742066756e647320746f20706c616e7420736565645f82015250565b5f611b7c602083611a27565b9150611b8782611b48565b602082019050919050565b5f6020820190508181035f830152611ba981611b70565b9050919050565b7f4e487b71000000000000000000000000000000000000000000000000000000005f52601160045260245ffd5b5f611be782611669565b91507fffffffffffffffffffffffffffffffffffffffffffffffffffffffffffffffff8203611c1957611c18611bb0565b5b600182019050919050565b5f611c2e82611669565b9150611c3983611669565b9250828203905081811115611c5157611c50611bb0565b5b92915050565b7f4e487b71000000000000000000000000000000000000000000000000000000005f52601260045260245ffd5b5f611c8e82611669565b9150611c9983611669565b925082611ca957611ca8611c57565b5b828204905092915050565b5f611cbe82611669565b9150611cc983611669565b9250828202611cd781611669565b91508282048414831517611cee57611ced611bb0565b5b5092915050565b7f54616e616d616e204d61746900000000000000000000000000000000000000005f82015250565b5f611d29600c83611a27565b9150611d3482611cf5565b602082019050919050565b5f6020820190508181035f830152611d5681611d1d565b9050919050565b7f42756b616e2074616e616d616e20416e646121000000000000000000000000005f82015250565b5f611d91601383611a27565b9150611d9c82611d5d565b602082019050919050565b5f6020820190508181035f830152611dbe81611d85565b9050919050565b5f819050919050565b5f819050919050565b5f611df1611dec611de784611dc5565b611dce565b61190c565b9050919050565b611e0181611dd7565b82525050565b5f602082019050611e1a5f830184611df8565b92915050565b5f602082019050611e335f8301846117a2565b92915050565b7f537461676520686172757320626c6f6f6d696e670000000000000000000000005f82015250565b5f611e6d601483611a27565b9150611e7882611e39565b602082019050919050565b5f6020820190508181035f830152611e9a81611e61565b905091905056fea264697066735822122067d1682b1e2fda4a76f7a9fcecb64abb0bc3920747ff8484088b098d27aac3fc64736f6c634300081e0033",
					"opcodes": "PUSH1 0x80 PUSH1 0x40 MSTORE CALLVALUE DUP1 ISZERO PUSH1 0xE JUMPI PUSH0 PUSH0 REVERT JUMPDEST POP CALLER PUSH1 0x3 PUSH0 PUSH2 0x100 EXP DUP2 SLOAD DUP2 PUSH20 0xFFFFFFFFFFFFFFFFFFFFFFFFFFFFFFFFFFFFFFFF MUL NOT AND SWAP1 DUP4 PUSH20 0xFFFFFFFFFFFFFFFFFFFFFFFFFFFFFFFFFFFFFFFF AND MUL OR SWAP1 SSTORE POP PUSH2 0x1ED7 DUP1 PUSH2 0x5C PUSH0 CODECOPY PUSH0 RETURN INVALID PUSH1 0x80 PUSH1 0x40 MSTORE PUSH1 0x4 CALLDATASIZE LT PUSH2 0x117 JUMPI PUSH0 CALLDATALOAD PUSH1 0xE0 SHR DUP1 PUSH4 0x8DD2361C GT PUSH2 0x9F JUMPI DUP1 PUSH4 0xCFC9A5F8 GT PUSH2 0x63 JUMPI DUP1 PUSH4 0xCFC9A5F8 EQ PUSH2 0x3A2 JUMPI DUP1 PUSH4 0xD0E30DB0 EQ PUSH2 0x3CC JUMPI DUP1 PUSH4 0xDDD42596 EQ PUSH2 0x3D6 JUMPI DUP1 PUSH4 0xE38F8448 EQ PUSH2 0x3FE JUMPI DUP1 PUSH4 0xED0B1F5F EQ PUSH2 0x426 JUMPI PUSH2 0x11E JUMP JUMPDEST DUP1 PUSH4 0x8DD2361C EQ PUSH2 0x2B9 JUMPI DUP1 PUSH4 0x90FD1ED4 EQ PUSH2 0x2FC JUMPI DUP1 PUSH4 0x9886BCFA EQ PUSH2 0x326 JUMPI DUP1 PUSH4 0x9C471749 EQ PUSH2 0x34E JUMPI DUP1 PUSH4 0xBACB5EBD EQ PUSH2 0x378 JUMPI PUSH2 0x11E JUMP JUMPDEST DUP1 PUSH4 0x74119A38 GT PUSH2 0xE6 JUMPI DUP1 PUSH4 0x74119A38 EQ PUSH2 0x1CF JUMPI DUP1 PUSH4 0x754E150D EQ PUSH2 0x1ED JUMPI DUP1 PUSH4 0x891C0785 EQ PUSH2 0x229 JUMPI DUP1 PUSH4 0x8AEE578B EQ PUSH2 0x253 JUMPI DUP1 PUSH4 0x8DA5CB5B EQ PUSH2 0x28F JUMPI PUSH2 0x11E JUMP JUMPDEST DUP1 PUSH4 0x30CEC0EB EQ PUSH2 0x122 JUMPI DUP1 PUSH4 0x3A8FDFF0 EQ PUSH2 0x15E JUMPI DUP1 PUSH4 0x3CCFD60B EQ PUSH2 0x18F JUMPI DUP1 PUSH4 0x51F9EFDE EQ PUSH2 0x1A5 JUMPI PUSH2 0x11E JUMP JUMPDEST CALLDATASIZE PUSH2 0x11E JUMPI STOP JUMPDEST PUSH0 PUSH0 REVERT JUMPDEST CALLVALUE DUP1 ISZERO PUSH2 0x12D JUMPI PUSH0 PUSH0 REVERT JUMPDEST POP PUSH2 0x148 PUSH1 0x4 DUP1 CALLDATASIZE SUB DUP2 ADD SWAP1 PUSH2 0x143 SWAP2 SWAP1 PUSH2 0x1615 JUMP JUMPDEST PUSH2 0x462 JUMP JUMPDEST PUSH1 0x40 MLOAD PUSH2 0x155 SWAP2 SWAP1 PUSH2 0x1700 JUMP JUMPDEST PUSH1 0x40 MLOAD DUP1 SWAP2 SUB SWAP1 RETURN JUMPDEST CALLVALUE DUP1 ISZERO PUSH2 0x169 JUMPI PUSH0 PUSH0 REVERT JUMPDEST POP PUSH2 0x172 PUSH2 0x4F5 JUMP JUMPDEST PUSH1 0x40 MLOAD PUSH2 0x186 SWAP9 SWAP8 SWAP7 SWAP6 SWAP5 SWAP4 SWAP3 SWAP2 SWAP1 PUSH2 0x17CB JUMP JUMPDEST PUSH1 0x40 MLOAD DUP1 SWAP2 SUB SWAP1 RETURN JUMPDEST CALLVALUE DUP1 ISZERO PUSH2 0x19A JUMPI PUSH0 PUSH0 REVERT JUMPDEST POP PUSH2 0x1A3 PUSH2 0x56F JUMP JUMPDEST STOP JUMPDEST CALLVALUE DUP1 ISZERO PUSH2 0x1B0 JUMPI PUSH0 PUSH0 REVERT JUMPDEST POP PUSH2 0x1B9 PUSH2 0x6CA JUMP JUMPDEST PUSH1 0x40 MLOAD PUSH2 0x1C6 SWAP2 SWAP1 PUSH2 0x1847 JUMP JUMPDEST PUSH1 0x40 MLOAD DUP1 SWAP2 SUB SWAP1 RETURN JUMPDEST PUSH2 0x1D7 PUSH2 0x6CF JUMP JUMPDEST PUSH1 0x40 MLOAD PUSH2 0x1E4 SWAP2 SWAP1 PUSH2 0x1847 JUMP JUMPDEST PUSH1 0x40 MLOAD DUP1 SWAP2 SUB SWAP1 RETURN JUMPDEST CALLVALUE DUP1 ISZERO PUSH2 0x1F8 JUMPI PUSH0 PUSH0 REVERT JUMPDEST POP PUSH2 0x213 PUSH1 0x4 DUP1 CALLDATASIZE SUB DUP2 ADD SWAP1 PUSH2 0x20E SWAP2 SWAP1 PUSH2 0x188A JUMP JUMPDEST PUSH2 0xAA5 JUMP JUMPDEST PUSH1 0x40 MLOAD PUSH2 0x220 SWAP2 SWAP1 PUSH2 0x1847 JUMP JUMPDEST PUSH1 0x40 MLOAD DUP1 SWAP2 SUB SWAP1 RETURN JUMPDEST CALLVALUE DUP1 ISZERO PUSH2 0x234 JUMPI PUSH0 PUSH0 REVERT JUMPDEST POP PUSH2 0x23D PUSH2 0xB5B JUMP JUMPDEST PUSH1 0x40 MLOAD PUSH2 0x24A SWAP2 SWAP1 PUSH2 0x1847 JUMP JUMPDEST PUSH1 0x40 MLOAD DUP1 SWAP2 SUB SWAP1 RETURN JUMPDEST CALLVALUE DUP1 ISZERO PUSH2 0x25E JUMPI PUSH0 PUSH0 REVERT JUMPDEST POP PUSH2 0x279 PUSH1 0x4 DUP1 CALLDATASIZE SUB DUP2 ADD SWAP1 PUSH2 0x274 SWAP2 SWAP1 PUSH2 0x18B5 JUMP JUMPDEST PUSH2 0xB66 JUMP JUMPDEST PUSH1 0x40 MLOAD PUSH2 0x286 SWAP2 SWAP1 PUSH2 0x1847 JUMP JUMPDEST PUSH1 0x40 MLOAD DUP1 SWAP2 SUB SWAP1 RETURN JUMPDEST CALLVALUE DUP1 ISZERO PUSH2 0x29A JUMPI PUSH0 PUSH0 REVERT JUMPDEST POP PUSH2 0x2A3 PUSH2 0xB91 JUMP JUMPDEST PUSH1 0x40 MLOAD PUSH2 0x2B0 SWAP2 SWAP1 PUSH2 0x18F3 JUMP JUMPDEST PUSH1 0x40 MLOAD DUP1 SWAP2 SUB SWAP1 RETURN JUMPDEST CALLVALUE DUP1 ISZERO PUSH2 0x2C4 JUMPI PUSH0 PUSH0 REVERT JUMPDEST POP PUSH2 0x2DF PUSH1 0x4 DUP1 CALLDATASIZE SUB DUP2 ADD SWAP1 PUSH2 0x2DA SWAP2 SWAP1 PUSH2 0x188A JUMP JUMPDEST PUSH2 0xBB6 JUMP JUMPDEST PUSH1 0x40 MLOAD PUSH2 0x2F3 SWAP9 SWAP8 SWAP7 SWAP6 SWAP5 SWAP4 SWAP3 SWAP2 SWAP1 PUSH2 0x17CB JUMP JUMPDEST PUSH1 0x40 MLOAD DUP1 SWAP2 SUB SWAP1 RETURN JUMPDEST CALLVALUE DUP1 ISZERO PUSH2 0x307 JUMPI PUSH0 PUSH0 REVERT JUMPDEST POP PUSH2 0x310 PUSH2 0xC3E JUMP JUMPDEST PUSH1 0x40 MLOAD PUSH2 0x31D SWAP2 SWAP1 PUSH2 0x1847 JUMP JUMPDEST PUSH1 0x40 MLOAD DUP1 SWAP2 SUB SWAP1 RETURN JUMPDEST CALLVALUE DUP1 ISZERO PUSH2 0x331 JUMPI PUSH0 PUSH0 REVERT JUMPDEST POP PUSH2 0x34C PUSH1 0x4 DUP1 CALLDATASIZE SUB DUP2 ADD SWAP1 PUSH2 0x347 SWAP2 SWAP1 PUSH2 0x188A JUMP JUMPDEST PUSH2 0xC43 JUMP JUMPDEST STOP JUMPDEST CALLVALUE DUP1 ISZERO PUSH2 0x359 JUMPI PUSH0 PUSH0 REVERT JUMPDEST POP PUSH2 0x362 PUSH2 0xDE2 JUMP JUMPDEST PUSH1 0x40 MLOAD PUSH2 0x36F SWAP2 SWAP1 PUSH2 0x1847 JUMP JUMPDEST PUSH1 0x40 MLOAD DUP1 SWAP2 SUB SWAP1 RETURN JUMPDEST CALLVALUE DUP1 ISZERO PUSH2 0x383 JUMPI PUSH0 PUSH0 REVERT JUMPDEST POP PUSH2 0x38C PUSH2 0xDE8 JUMP JUMPDEST PUSH1 0x40 MLOAD PUSH2 0x399 SWAP2 SWAP1 PUSH2 0x1927 JUMP JUMPDEST PUSH1 0x40 MLOAD DUP1 SWAP2 SUB SWAP1 RETURN JUMPDEST CALLVALUE DUP1 ISZERO PUSH2 0x3AD JUMPI PUSH0 PUSH0 REVERT JUMPDEST POP PUSH2 0x3B6 PUSH2 0xDED JUMP JUMPDEST PUSH1 0x40 MLOAD PUSH2 0x3C3 SWAP2 SWAP1 PUSH2 0x1847 JUMP JUMPDEST PUSH1 0x40 MLOAD DUP1 SWAP2 SUB SWAP1 RETURN JUMPDEST PUSH2 0x3D4 PUSH2 0xDF8 JUMP JUMPDEST STOP JUMPDEST CALLVALUE DUP1 ISZERO PUSH2 0x3E1 JUMPI PUSH0 PUSH0 REVERT JUMPDEST POP PUSH2 0x3FC PUSH1 0x4 DUP1 CALLDATASIZE SUB DUP2 ADD SWAP1 PUSH2 0x3F7 SWAP2 SWAP1 PUSH2 0x188A JUMP JUMPDEST PUSH2 0xDFA JUMP JUMPDEST STOP JUMPDEST CALLVALUE DUP1 ISZERO PUSH2 0x409 JUMPI PUSH0 PUSH0 REVERT JUMPDEST POP PUSH2 0x424 PUSH1 0x4 DUP1 CALLDATASIZE SUB DUP2 ADD SWAP1 PUSH2 0x41F SWAP2 SWAP1 PUSH2 0x188A JUMP JUMPDEST PUSH2 0x1074 JUMP JUMPDEST STOP JUMPDEST CALLVALUE DUP1 ISZERO PUSH2 0x431 JUMPI PUSH0 PUSH0 REVERT JUMPDEST POP PUSH2 0x44C PUSH1 0x4 DUP1 CALLDATASIZE SUB DUP2 ADD SWAP1 PUSH2 0x447 SWAP2 SWAP1 PUSH2 0x188A JUMP JUMPDEST PUSH2 0x1385 JUMP JUMPDEST PUSH1 0x40 MLOAD PUSH2 0x459 SWAP2 SWAP1 PUSH2 0x1A0D JUMP JUMPDEST PUSH1 0x40 MLOAD DUP1 SWAP2 SUB SWAP1 RETURN JUMPDEST PUSH1 0x60 PUSH1 0x1 PUSH0 DUP4 PUSH20 0xFFFFFFFFFFFFFFFFFFFFFFFFFFFFFFFFFFFFFFFF AND PUSH20 0xFFFFFFFFFFFFFFFFFFFFFFFFFFFFFFFFFFFFFFFF AND DUP2 MSTORE PUSH1 0x20 ADD SWAP1 DUP2 MSTORE PUSH1 0x20 ADD PUSH0 KECCAK256 DUP1 SLOAD DUP1 PUSH1 0x20 MUL PUSH1 0x20 ADD PUSH1 0x40 MLOAD SWAP1 DUP2 ADD PUSH1 0x40 MSTORE DUP1 SWAP3 SWAP2 SWAP1 DUP2 DUP2 MSTORE PUSH1 0x20 ADD DUP3 DUP1 SLOAD DUP1 ISZERO PUSH2 0x4E9 JUMPI PUSH1 0x20 MUL DUP3 ADD SWAP2 SWAP1 PUSH0 MSTORE PUSH1 0x20 PUSH0 KECCAK256 SWAP1 JUMPDEST DUP2 SLOAD DUP2 MSTORE PUSH1 0x20 ADD SWAP1 PUSH1 0x1 ADD SWAP1 DUP1 DUP4 GT PUSH2 0x4D5 JUMPI JUMPDEST POP POP POP POP POP SWAP1 POP SWAP2 SWAP1 POP JUMP JUMPDEST PUSH1 0x4 DUP1 PUSH0 ADD SLOAD SWAP1 DUP1 PUSH1 0x1 ADD PUSH0 SWAP1 SLOAD SWAP1 PUSH2 0x100 EXP SWAP1 DIV PUSH20 0xFFFFFFFFFFFFFFFFFFFFFFFFFFFFFFFFFFFFFFFF AND SWAP1 DUP1 PUSH1 0x1 ADD PUSH1 0x14 SWAP1 SLOAD SWAP1 PUSH2 0x100 EXP SWAP1 DIV PUSH1 0xFF AND SWAP1 DUP1 PUSH1 0x2 ADD SLOAD SWAP1 DUP1 PUSH1 0x3 ADD SLOAD SWAP1 DUP1 PUSH1 0x4 ADD SLOAD SWAP1 DUP1 PUSH1 0x5 ADD PUSH0 SWAP1 SLOAD SWAP1 PUSH2 0x100 EXP SWAP1 DIV PUSH1 0xFF AND SWAP1 DUP1 PUSH1 0x5 ADD PUSH1 0x1 SWAP1 SLOAD SWAP1 PUSH2 0x100 EXP SWAP1 DIV PUSH1 0xFF AND SWAP1 POP DUP9 JUMP JUMPDEST PUSH1 0x3 PUSH0 SWAP1 SLOAD SWAP1 PUSH2 0x100 EXP SWAP1 DIV PUSH20 0xFFFFFFFFFFFFFFFFFFFFFFFFFFFFFFFFFFFFFFFF AND PUSH20 0xFFFFFFFFFFFFFFFFFFFFFFFFFFFFFFFFFFFFFFFF AND CALLER PUSH20 0xFFFFFFFFFFFFFFFFFFFFFFFFFFFFFFFFFFFFFFFF AND EQ PUSH2 0x5FE JUMPI PUSH1 0x40 MLOAD PUSH32 0x8C379A000000000000000000000000000000000000000000000000000000000 DUP2 MSTORE PUSH1 0x4 ADD PUSH2 0x5F5 SWAP1 PUSH2 0x1A81 JUMP JUMPDEST PUSH1 0x40 MLOAD DUP1 SWAP2 SUB SWAP1 REVERT JUMPDEST PUSH0 PUSH1 0x3 PUSH0 SWAP1 SLOAD SWAP1 PUSH2 0x100 EXP SWAP1 DIV PUSH20 0xFFFFFFFFFFFFFFFFFFFFFFFFFFFFFFFFFFFFFFFF AND PUSH20 0xFFFFFFFFFFFFFFFFFFFFFFFFFFFFFFFFFFFFFFFF AND SELFBALANCE PUSH1 0x40 MLOAD PUSH2 0x644 SWAP1 PUSH2 0x1ACC JUMP JUMPDEST PUSH0 PUSH1 0x40 MLOAD DUP1 DUP4 SUB DUP2 DUP6 DUP8 GAS CALL SWAP3 POP POP POP RETURNDATASIZE DUP1 PUSH0 DUP2 EQ PUSH2 0x67E JUMPI PUSH1 0x40 MLOAD SWAP2 POP PUSH1 0x1F NOT PUSH1 0x3F RETURNDATASIZE ADD AND DUP3 ADD PUSH1 0x40 MSTORE RETURNDATASIZE DUP3 MSTORE RETURNDATASIZE PUSH0 PUSH1 0x20 DUP5 ADD RETURNDATACOPY PUSH2 0x683 JUMP JUMPDEST PUSH1 0x60 SWAP2 POP JUMPDEST POP POP SWAP1 POP DUP1 PUSH2 0x6C7 JUMPI PUSH1 0x40 MLOAD PUSH32 0x8C379A000000000000000000000000000000000000000000000000000000000 DUP2 MSTORE PUSH1 0x4 ADD PUSH2 0x6BE SWAP1 PUSH2 0x1B2A JUMP JUMPDEST PUSH1 0x40 MLOAD DUP1 SWAP2 SUB SWAP1 REVERT JUMPDEST POP JUMP JUMPDEST PUSH1 0x3C DUP2 JUMP JUMPDEST PUSH0 PUSH7 0x38D7EA4C68000 CALLVALUE LT ISZERO PUSH2 0x71A JUMPI PUSH1 0x40 MLOAD PUSH32 0x8C379A000000000000000000000000000000000000000000000000000000000 DUP2 MSTORE PUSH1 0x4 ADD PUSH2 0x711 SWAP1 PUSH2 0x1B92 JUMP JUMPDEST PUSH1 0x40 MLOAD DUP1 SWAP2 SUB SWAP1 REVERT JUMPDEST PUSH1 0x2 PUSH0 DUP2 SLOAD DUP1 SWAP3 SWAP2 SWAP1 PUSH2 0x72C SWAP1 PUSH2 0x1BDD JUMP JUMPDEST SWAP2 SWAP1 POP SSTORE POP PUSH1 0x40 MLOAD DUP1 PUSH2 0x100 ADD PUSH1 0x40 MSTORE DUP1 PUSH1 0x2 SLOAD DUP2 MSTORE PUSH1 0x20 ADD CALLER PUSH20 0xFFFFFFFFFFFFFFFFFFFFFFFFFFFFFFFFFFFFFFFF AND DUP2 MSTORE PUSH1 0x20 ADD PUSH0 PUSH1 0x3 DUP2 GT ISZERO PUSH2 0x774 JUMPI PUSH2 0x773 PUSH2 0x173E JUMP JUMPDEST JUMPDEST DUP2 MSTORE PUSH1 0x20 ADD PUSH1 0x32 DUP2 MSTORE PUSH1 0x20 ADD TIMESTAMP DUP2 MSTORE PUSH1 0x20 ADD TIMESTAMP DUP2 MSTORE PUSH1 0x20 ADD PUSH1 0x1 ISZERO ISZERO DUP2 MSTORE PUSH1 0x20 ADD PUSH0 ISZERO ISZERO DUP2 MSTORE POP PUSH1 0x4 PUSH0 DUP3 ADD MLOAD DUP2 PUSH0 ADD SSTORE PUSH1 0x20 DUP3 ADD MLOAD DUP2 PUSH1 0x1 ADD PUSH0 PUSH2 0x100 EXP DUP2 SLOAD DUP2 PUSH20 0xFFFFFFFFFFFFFFFFFFFFFFFFFFFFFFFFFFFFFFFF MUL NOT AND SWAP1 DUP4 PUSH20 0xFFFFFFFFFFFFFFFFFFFFFFFFFFFFFFFFFFFFFFFF AND MUL OR SWAP1 SSTORE POP PUSH1 0x40 DUP3 ADD MLOAD DUP2 PUSH1 0x1 ADD PUSH1 0x14 PUSH2 0x100 EXP DUP2 SLOAD DUP2 PUSH1 0xFF MUL NOT AND SWAP1 DUP4 PUSH1 0x3 DUP2 GT ISZERO PUSH2 0x816 JUMPI PUSH2 0x815 PUSH2 0x173E JUMP JUMPDEST JUMPDEST MUL OR SWAP1 SSTORE POP PUSH1 0x60 DUP3 ADD MLOAD DUP2 PUSH1 0x2 ADD SSTORE PUSH1 0x80 DUP3 ADD MLOAD DUP2 PUSH1 0x3 ADD SSTORE PUSH1 0xA0 DUP3 ADD MLOAD DUP2 PUSH1 0x4 ADD SSTORE PUSH1 0xC0 DUP3 ADD MLOAD DUP2 PUSH1 0x5 ADD PUSH0 PUSH2 0x100 EXP DUP2 SLOAD DUP2 PUSH1 0xFF MUL NOT AND SWAP1 DUP4 ISZERO ISZERO MUL OR SWAP1 SSTORE POP PUSH1 0xE0 DUP3 ADD MLOAD DUP2 PUSH1 0x5 ADD PUSH1 0x1 PUSH2 0x100 EXP DUP2 SLOAD DUP2 PUSH1 0xFF MUL NOT AND SWAP1 DUP4 ISZERO ISZERO MUL OR SWAP1 SSTORE POP SWAP1 POP POP PUSH1 0x4 PUSH0 PUSH0 PUSH1 0x2 SLOAD DUP2 MSTORE PUSH1 0x20 ADD SWAP1 DUP2 MSTORE PUSH1 0x20 ADD PUSH0 KECCAK256 PUSH0 DUP3 ADD SLOAD DUP2 PUSH0 ADD SSTORE PUSH1 0x1 DUP3 ADD PUSH0 SWAP1 SLOAD SWAP1 PUSH2 0x100 EXP SWAP1 DIV PUSH20 0xFFFFFFFFFFFFFFFFFFFFFFFFFFFFFFFFFFFFFFFF AND DUP2 PUSH1 0x1 ADD PUSH0 PUSH2 0x100 EXP DUP2 SLOAD DUP2 PUSH20 0xFFFFFFFFFFFFFFFFFFFFFFFFFFFFFFFFFFFFFFFF MUL NOT AND SWAP1 DUP4 PUSH20 0xFFFFFFFFFFFFFFFFFFFFFFFFFFFFFFFFFFFFFFFF AND MUL OR SWAP1 SSTORE POP PUSH1 0x1 DUP3 ADD PUSH1 0x14 SWAP1 SLOAD SWAP1 PUSH2 0x100 EXP SWAP1 DIV PUSH1 0xFF AND DUP2 PUSH1 0x1 ADD PUSH1 0x14 PUSH2 0x100 EXP DUP2 SLOAD DUP2 PUSH1 0xFF MUL NOT AND SWAP1 DUP4 PUSH1 0x3 DUP2 GT ISZERO PUSH2 0x934 JUMPI PUSH2 0x933 PUSH2 0x173E JUMP JUMPDEST JUMPDEST MUL OR SWAP1 SSTORE POP PUSH1 0x2 DUP3 ADD SLOAD DUP2 PUSH1 0x2 ADD SSTORE PUSH1 0x3 DUP3 ADD SLOAD DUP2 PUSH1 0x3 ADD SSTORE PUSH1 0x4 DUP3 ADD SLOAD DUP2 PUSH1 0x4 ADD SSTORE PUSH1 0x5 DUP3 ADD PUSH0 SWAP1 SLOAD SWAP1 PUSH2 0x100 EXP SWAP1 DIV PUSH1 0xFF AND DUP2 PUSH1 0x5 ADD PUSH0 PUSH2 0x100 EXP DUP2 SLOAD DUP2 PUSH1 0xFF MUL NOT AND SWAP1 DUP4 ISZERO ISZERO MUL OR SWAP1 SSTORE POP PUSH1 0x5 DUP3 ADD PUSH1 0x1 SWAP1 SLOAD SWAP1 PUSH2 0x100 EXP SWAP1 DIV PUSH1 0xFF AND DUP2 PUSH1 0x5 ADD PUSH1 0x1 PUSH2 0x100 EXP DUP2 SLOAD DUP2 PUSH1 0xFF MUL NOT AND SWAP1 DUP4 ISZERO ISZERO MUL OR SWAP1 SSTORE POP SWAP1 POP POP PUSH1 0x1 PUSH0 PUSH1 0x3 PUSH0 SWAP1 SLOAD SWAP1 PUSH2 0x100 EXP SWAP1 DIV PUSH20 0xFFFFFFFFFFFFFFFFFFFFFFFFFFFFFFFFFFFFFFFF AND PUSH20 0xFFFFFFFFFFFFFFFFFFFFFFFFFFFFFFFFFFFFFFFF AND PUSH20 0xFFFFFFFFFFFFFFFFFFFFFFFFFFFFFFFFFFFFFFFF AND DUP2 MSTORE PUSH1 0x20 ADD SWAP1 DUP2 MSTORE PUSH1 0x20 ADD PUSH0 KECCAK256 PUSH1 0x2 SLOAD SWAP1 DUP1 PUSH1 0x1 DUP2 SLOAD ADD DUP1 DUP3 SSTORE DUP1 SWAP2 POP POP PUSH1 0x1 SWAP1 SUB SWAP1 PUSH0 MSTORE PUSH1 0x20 PUSH0 KECCAK256 ADD PUSH0 SWAP1 SWAP2 SWAP1 SWAP2 SWAP1 SWAP2 POP SSTORE PUSH1 0x2 SLOAD PUSH1 0x3 PUSH0 SWAP1 SLOAD SWAP1 PUSH2 0x100 EXP SWAP1 DIV PUSH20 0xFFFFFFFFFFFFFFFFFFFFFFFFFFFFFFFFFFFFFFFF AND PUSH20 0xFFFFFFFFFFFFFFFFFFFFFFFFFFFFFFFFFFFFFFFF AND PUSH32 0x4F5B22082AC57121703B0B6C1203EF527CFBFA5069616FEE6DEB979D124ADBF0 PUSH1 0x40 MLOAD PUSH1 0x40 MLOAD DUP1 SWAP2 SUB SWAP1 LOG3 PUSH1 0x2 SLOAD SWAP1 POP SWAP1 JUMP JUMPDEST PUSH0 PUSH0 PUSH0 PUSH0 DUP5 DUP2 MSTORE PUSH1 0x20 ADD SWAP1 DUP2 MSTORE PUSH1 0x20 ADD PUSH0 KECCAK256 SWAP1 POP DUP1 PUSH1 0x5 ADD PUSH0 SWAP1 SLOAD SWAP1 PUSH2 0x100 EXP SWAP1 DIV PUSH1 0xFF AND ISZERO DUP1 PUSH2 0xAE4 JUMPI POP DUP1 PUSH1 0x5 ADD PUSH1 0x1 SWAP1 SLOAD SWAP1 PUSH2 0x100 EXP SWAP1 DIV PUSH1 0xFF AND JUMPDEST ISZERO PUSH2 0xAF2 JUMPI PUSH0 SWAP2 POP POP PUSH2 0xB56 JUMP JUMPDEST PUSH0 DUP2 PUSH1 0x4 ADD SLOAD TIMESTAMP PUSH2 0xB03 SWAP2 SWAP1 PUSH2 0x1C24 JUMP JUMPDEST SWAP1 POP PUSH0 PUSH1 0x1E DUP3 PUSH2 0xB13 SWAP2 SWAP1 PUSH2 0x1C84 JUMP JUMPDEST SWAP1 POP PUSH0 PUSH1 0x2 PUSH1 0xFF AND DUP3 PUSH2 0xB26 SWAP2 SWAP1 PUSH2 0x1CB4 JUMP JUMPDEST SWAP1 POP DUP4 PUSH1 0x2 ADD SLOAD DUP2 LT PUSH2 0xB3F JUMPI PUSH0 SWAP5 POP POP POP POP POP PUSH2 0xB56 JUMP JUMPDEST DUP1 DUP5 PUSH1 0x2 ADD SLOAD PUSH2 0xB4F SWAP2 SWAP1 PUSH2 0x1C24 JUMP JUMPDEST SWAP5 POP POP POP POP POP JUMPDEST SWAP2 SWAP1 POP JUMP JUMPDEST PUSH7 0xAA87BEE538000 DUP2 JUMP JUMPDEST PUSH1 0x1 PUSH1 0x20 MSTORE DUP2 PUSH0 MSTORE PUSH1 0x40 PUSH0 KECCAK256 DUP2 DUP2 SLOAD DUP2 LT PUSH2 0xB7F JUMPI PUSH0 DUP1 REVERT JUMPDEST SWAP1 PUSH0 MSTORE PUSH1 0x20 PUSH0 KECCAK256 ADD PUSH0 SWAP2 POP SWAP2 POP POP SLOAD DUP2 JUMP JUMPDEST PUSH1 0x3 PUSH0 SWAP1 SLOAD SWAP1 PUSH2 0x100 EXP SWAP1 DIV PUSH20 0xFFFFFFFFFFFFFFFFFFFFFFFFFFFFFFFFFFFFFFFF AND DUP2 JUMP JUMPDEST PUSH0 PUSH1 0x20 MSTORE DUP1 PUSH0 MSTORE PUSH1 0x40 PUSH0 KECCAK256 PUSH0 SWAP2 POP SWAP1 POP DUP1 PUSH0 ADD SLOAD SWAP1 DUP1 PUSH1 0x1 ADD PUSH0 SWAP1 SLOAD SWAP1 PUSH2 0x100 EXP SWAP1 DIV PUSH20 0xFFFFFFFFFFFFFFFFFFFFFFFFFFFFFFFFFFFFFFFF AND SWAP1 DUP1 PUSH1 0x1 ADD PUSH1 0x14 SWAP1 SLOAD SWAP1 PUSH2 0x100 EXP SWAP1 DIV PUSH1 0xFF AND SWAP1 DUP1 PUSH1 0x2 ADD SLOAD SWAP1 DUP1 PUSH1 0x3 ADD SLOAD SWAP1 DUP1 PUSH1 0x4 ADD SLOAD SWAP1 DUP1 PUSH1 0x5 ADD PUSH0 SWAP1 SLOAD SWAP1 PUSH2 0x100 EXP SWAP1 DIV PUSH1 0xFF AND SWAP1 DUP1 PUSH1 0x5 ADD PUSH1 0x1 SWAP1 SLOAD SWAP1 PUSH2 0x100 EXP SWAP1 DIV PUSH1 0xFF AND SWAP1 POP DUP9 JUMP JUMPDEST PUSH1 0x1E DUP2 JUMP JUMPDEST PUSH0 PUSH0 PUSH0 DUP4 DUP2 MSTORE PUSH1 0x20 ADD SWAP1 DUP2 MSTORE PUSH1 0x20 ADD PUSH0 KECCAK256 SWAP1 POP DUP1 PUSH1 0x5 ADD PUSH0 SWAP1 SLOAD SWAP1 PUSH2 0x100 EXP SWAP1 DIV PUSH1 0xFF AND PUSH2 0xCA6 JUMPI PUSH1 0x40 MLOAD PUSH32 0x8C379A000000000000000000000000000000000000000000000000000000000 DUP2 MSTORE PUSH1 0x4 ADD PUSH2 0xC9D SWAP1 PUSH2 0x1D3F JUMP JUMPDEST PUSH1 0x40 MLOAD DUP1 SWAP2 SUB SWAP1 REVERT JUMPDEST CALLER PUSH20 0xFFFFFFFFFFFFFFFFFFFFFFFFFFFFFFFFFFFFFFFF AND DUP2 PUSH1 0x1 ADD PUSH0 SWAP1 SLOAD SWAP1 PUSH2 0x100 EXP SWAP1 DIV PUSH20 0xFFFFFFFFFFFFFFFFFFFFFFFFFFFFFFFFFFFFFFFF AND PUSH20 0xFFFFFFFFFFFFFFFFFFFFFFFFFFFFFFFFFFFFFFFF AND EQ PUSH2 0xD37 JUMPI PUSH1 0x40 MLOAD PUSH32 0x8C379A000000000000000000000000000000000000000000000000000000000 DUP2 MSTORE PUSH1 0x4 ADD PUSH2 0xD2E SWAP1 PUSH2 0x1DA7 JUMP JUMPDEST PUSH1 0x40 MLOAD DUP1 SWAP2 SUB SWAP1 REVERT JUMPDEST DUP1 PUSH1 0x5 ADD PUSH1 0x1 SWAP1 SLOAD SWAP1 PUSH2 0x100 EXP SWAP1 DIV PUSH1 0xFF AND ISZERO PUSH2 0xD89 JUMPI PUSH1 0x40 MLOAD PUSH32 0x8C379A000000000000000000000000000000000000000000000000000000000 DUP2 MSTORE PUSH1 0x4 ADD PUSH2 0xD80 SWAP1 PUSH2 0x1D3F JUMP JUMPDEST PUSH1 0x40 MLOAD DUP1 SWAP2 SUB SWAP1 REVERT JUMPDEST PUSH1 0x64 DUP2 PUSH1 0x2 ADD DUP2 SWAP1 SSTORE POP TIMESTAMP DUP2 PUSH1 0x4 ADD DUP2 SWAP1 SSTORE POP DUP2 PUSH32 0xD4B742B9BA48FFFA1F14267075A7793851770764117C423FD0A6550DFC8CB574 PUSH1 0x64 PUSH1 0x40 MLOAD PUSH2 0xDCD SWAP2 SWAP1 PUSH2 0x1E07 JUMP JUMPDEST PUSH1 0x40 MLOAD DUP1 SWAP2 SUB SWAP1 LOG2 PUSH2 0xDDE DUP3 PUSH2 0xDFA JUMP JUMPDEST POP POP JUMP JUMPDEST PUSH1 0x2 SLOAD DUP2 JUMP JUMPDEST PUSH1 0x2 DUP2 JUMP JUMPDEST PUSH7 0x38D7EA4C68000 DUP2 JUMP JUMPDEST JUMP JUMPDEST PUSH0 PUSH0 PUSH0 DUP4 DUP2 MSTORE PUSH1 0x20 ADD SWAP1 DUP2 MSTORE PUSH1 0x20 ADD PUSH0 KECCAK256 SWAP1 POP DUP1 PUSH1 0x5 ADD PUSH0 SWAP1 SLOAD SWAP1 PUSH2 0x100 EXP SWAP1 DIV PUSH1 0xFF AND PUSH2 0xE5D JUMPI PUSH1 0x40 MLOAD PUSH32 0x8C379A000000000000000000000000000000000000000000000000000000000 DUP2 MSTORE PUSH1 0x4 ADD PUSH2 0xE54 SWAP1 PUSH2 0x1D3F JUMP JUMPDEST PUSH1 0x40 MLOAD DUP1 SWAP2 SUB SWAP1 REVERT JUMPDEST PUSH2 0xE66 DUP3 PUSH2 0x14B3 JUMP JUMPDEST DUP1 PUSH1 0x5 ADD PUSH1 0x1 SWAP1 SLOAD SWAP1 PUSH2 0x100 EXP SWAP1 DIV PUSH1 0xFF AND ISZERO PUSH2 0xE83 JUMPI POP PUSH2 0x1071 JUMP JUMPDEST PUSH0 DUP2 PUSH1 0x3 ADD SLOAD TIMESTAMP PUSH2 0xE94 SWAP2 SWAP1 PUSH2 0x1C24 JUMP JUMPDEST SWAP1 POP PUSH0 DUP3 PUSH1 0x1 ADD PUSH1 0x14 SWAP1 SLOAD SWAP1 PUSH2 0x100 EXP SWAP1 DIV PUSH1 0xFF AND SWAP1 POP PUSH0 PUSH1 0x3 DUP2 GT ISZERO PUSH2 0xEBE JUMPI PUSH2 0xEBD PUSH2 0x173E JUMP JUMPDEST JUMPDEST DUP2 PUSH1 0x3 DUP2 GT ISZERO PUSH2 0xED1 JUMPI PUSH2 0xED0 PUSH2 0x173E JUMP JUMPDEST JUMPDEST SUB PUSH2 0xF41 JUMPI PUSH1 0x1 DUP4 PUSH1 0x1 ADD PUSH1 0x14 PUSH2 0x100 EXP DUP2 SLOAD DUP2 PUSH1 0xFF MUL NOT AND SWAP1 DUP4 PUSH1 0x3 DUP2 GT ISZERO PUSH2 0xEFE JUMPI PUSH2 0xEFD PUSH2 0x173E JUMP JUMPDEST JUMPDEST MUL OR SWAP1 SSTORE POP DUP4 PUSH32 0x338B8976706F9DA67298DDDFA1EA4FF7D99CCE68B9CA39C4F348994F8E2124A8 PUSH1 0x1 PUSH1 0x40 MLOAD PUSH2 0xF34 SWAP2 SWAP1 PUSH2 0x1E20 JUMP JUMPDEST PUSH1 0x40 MLOAD DUP1 SWAP2 SUB SWAP1 LOG2 PUSH2 0x106D JUMP JUMPDEST PUSH1 0x1 PUSH1 0x3 DUP2 GT ISZERO PUSH2 0xF55 JUMPI PUSH2 0xF54 PUSH2 0x173E JUMP JUMPDEST JUMPDEST DUP2 PUSH1 0x3 DUP2 GT ISZERO PUSH2 0xF68 JUMPI PUSH2 0xF67 PUSH2 0x173E JUMP JUMPDEST JUMPDEST SUB PUSH2 0xFD8 JUMPI PUSH1 0x2 DUP4 PUSH1 0x1 ADD PUSH1 0x14 PUSH2 0x100 EXP DUP2 SLOAD DUP2 PUSH1 0xFF MUL NOT AND SWAP1 DUP4 PUSH1 0x3 DUP2 GT ISZERO PUSH2 0xF95 JUMPI PUSH2 0xF94 PUSH2 0x173E JUMP JUMPDEST JUMPDEST MUL OR SWAP1 SSTORE POP DUP4 PUSH32 0x338B8976706F9DA67298DDDFA1EA4FF7D99CCE68B9CA39C4F348994F8E2124A8 PUSH1 0x2 PUSH1 0x40 MLOAD PUSH2 0xFCB SWAP2 SWAP1 PUSH2 0x1E20 JUMP JUMPDEST PUSH1 0x40 MLOAD DUP1 SWAP2 SUB SWAP1 LOG2 PUSH2 0x106C JUMP JUMPDEST PUSH1 0x2 PUSH1 0x3 DUP2 GT ISZERO PUSH2 0xFEC JUMPI PUSH2 0xFEB PUSH2 0x173E JUMP JUMPDEST JUMPDEST DUP2 PUSH1 0x3 DUP2 GT ISZERO PUSH2 0xFFF JUMPI PUSH2 0xFFE PUSH2 0x173E JUMP JUMPDEST JUMPDEST SUB PUSH2 0x106B JUMPI PUSH1 0x3 DUP4 PUSH1 0x1 ADD PUSH1 0x14 PUSH2 0x100 EXP DUP2 SLOAD DUP2 PUSH1 0xFF MUL NOT AND SWAP1 DUP4 PUSH1 0x3 DUP2 GT ISZERO PUSH2 0x102C JUMPI PUSH2 0x102B PUSH2 0x173E JUMP JUMPDEST JUMPDEST MUL OR SWAP1 SSTORE POP DUP4 PUSH32 0x338B8976706F9DA67298DDDFA1EA4FF7D99CCE68B9CA39C4F348994F8E2124A8 PUSH1 0x3 PUSH1 0x40 MLOAD PUSH2 0x1062 SWAP2 SWAP1 PUSH2 0x1E20 JUMP JUMPDEST PUSH1 0x40 MLOAD DUP1 SWAP2 SUB SWAP1 LOG2 JUMPDEST JUMPDEST JUMPDEST POP POP POP JUMPDEST POP JUMP JUMPDEST PUSH0 PUSH0 PUSH0 DUP4 DUP2 MSTORE PUSH1 0x20 ADD SWAP1 DUP2 MSTORE PUSH1 0x20 ADD PUSH0 KECCAK256 SWAP1 POP DUP1 PUSH1 0x5 ADD PUSH0 SWAP1 SLOAD SWAP1 PUSH2 0x100 EXP SWAP1 DIV PUSH1 0xFF AND PUSH2 0x10D7 JUMPI PUSH1 0x40 MLOAD PUSH32 0x8C379A000000000000000000000000000000000000000000000000000000000 DUP2 MSTORE PUSH1 0x4 ADD PUSH2 0x10CE SWAP1 PUSH2 0x1D3F JUMP JUMPDEST PUSH1 0x40 MLOAD DUP1 SWAP2 SUB SWAP1 REVERT JUMPDEST CALLER PUSH20 0xFFFFFFFFFFFFFFFFFFFFFFFFFFFFFFFFFFFFFFFF AND DUP2 PUSH1 0x1 ADD PUSH0 SWAP1 SLOAD SWAP1 PUSH2 0x100 EXP SWAP1 DIV PUSH20 0xFFFFFFFFFFFFFFFFFFFFFFFFFFFFFFFFFFFFFFFF AND PUSH20 0xFFFFFFFFFFFFFFFFFFFFFFFFFFFFFFFFFFFFFFFF AND EQ PUSH2 0x1168 JUMPI PUSH1 0x40 MLOAD PUSH32 0x8C379A000000000000000000000000000000000000000000000000000000000 DUP2 MSTORE PUSH1 0x4 ADD PUSH2 0x115F SWAP1 PUSH2 0x1DA7 JUMP JUMPDEST PUSH1 0x40 MLOAD DUP1 SWAP2 SUB SWAP1 REVERT JUMPDEST DUP1 PUSH1 0x5 ADD PUSH1 0x1 SWAP1 SLOAD SWAP1 PUSH2 0x100 EXP SWAP1 DIV PUSH1 0xFF AND ISZERO PUSH2 0x11BA JUMPI PUSH1 0x40 MLOAD PUSH32 0x8C379A000000000000000000000000000000000000000000000000000000000 DUP2 MSTORE PUSH1 0x4 ADD PUSH2 0x11B1 SWAP1 PUSH2 0x1D3F JUMP JUMPDEST PUSH1 0x40 MLOAD DUP1 SWAP2 SUB SWAP1 REVERT JUMPDEST PUSH2 0x11C3 DUP3 PUSH2 0xDFA JUMP JUMPDEST PUSH1 0x3 DUP1 DUP2 GT ISZERO PUSH2 0x11D6 JUMPI PUSH2 0x11D5 PUSH2 0x173E JUMP JUMPDEST JUMPDEST DUP2 PUSH1 0x1 ADD PUSH1 0x14 SWAP1 SLOAD SWAP1 PUSH2 0x100 EXP SWAP1 DIV PUSH1 0xFF AND PUSH1 0x3 DUP2 GT ISZERO PUSH2 0x11FA JUMPI PUSH2 0x11F9 PUSH2 0x173E JUMP JUMPDEST JUMPDEST EQ PUSH2 0x123A JUMPI PUSH1 0x40 MLOAD PUSH32 0x8C379A000000000000000000000000000000000000000000000000000000000 DUP2 MSTORE PUSH1 0x4 ADD PUSH2 0x1231 SWAP1 PUSH2 0x1E83 JUMP JUMPDEST PUSH1 0x40 MLOAD DUP1 SWAP2 SUB SWAP1 REVERT JUMPDEST PUSH0 DUP2 PUSH1 0x5 ADD PUSH0 PUSH2 0x100 EXP DUP2 SLOAD DUP2 PUSH1 0xFF MUL NOT AND SWAP1 DUP4 ISZERO ISZERO MUL OR SWAP1 SSTORE POP PUSH0 PUSH7 0xAA87BEE538000 SWAP1 POP PUSH1 0x3 PUSH0 SWAP1 SLOAD SWAP1 PUSH2 0x100 EXP SWAP1 DIV PUSH20 0xFFFFFFFFFFFFFFFFFFFFFFFFFFFFFFFFFFFFFFFF AND PUSH20 0xFFFFFFFFFFFFFFFFFFFFFFFFFFFFFFFFFFFFFFFF AND DUP4 PUSH32 0x79F2138EA100070FF95B59C265DA7AA3C7A0F61595FE1BB2F5FDA2762F398847 DUP4 PUSH1 0x40 MLOAD PUSH2 0x12C8 SWAP2 SWAP1 PUSH2 0x1847 JUMP JUMPDEST PUSH1 0x40 MLOAD DUP1 SWAP2 SUB SWAP1 LOG3 PUSH0 CALLER PUSH20 0xFFFFFFFFFFFFFFFFFFFFFFFFFFFFFFFFFFFFFFFF AND PUSH7 0xAA87BEE538000 PUSH1 0x40 MLOAD PUSH2 0x12FC SWAP1 PUSH2 0x1ACC JUMP JUMPDEST PUSH0 PUSH1 0x40 MLOAD DUP1 DUP4 SUB DUP2 DUP6 DUP8 GAS CALL SWAP3 POP POP POP RETURNDATASIZE DUP1 PUSH0 DUP2 EQ PUSH2 0x1336 JUMPI PUSH1 0x40 MLOAD SWAP2 POP PUSH1 0x1F NOT PUSH1 0x3F RETURNDATASIZE ADD AND DUP3 ADD PUSH1 0x40 MSTORE RETURNDATASIZE DUP3 MSTORE RETURNDATASIZE PUSH0 PUSH1 0x20 DUP5 ADD RETURNDATACOPY PUSH2 0x133B JUMP JUMPDEST PUSH1 0x60 SWAP2 POP JUMPDEST POP POP SWAP1 POP DUP1 PUSH2 0x137F JUMPI PUSH1 0x40 MLOAD PUSH32 0x8C379A000000000000000000000000000000000000000000000000000000000 DUP2 MSTORE PUSH1 0x4 ADD PUSH2 0x1376 SWAP1 PUSH2 0x1B2A JUMP JUMPDEST PUSH1 0x40 MLOAD DUP1 SWAP2 SUB SWAP1 REVERT JUMPDEST POP POP POP POP JUMP JUMPDEST PUSH2 0x138D PUSH2 0x154E JUMP JUMPDEST PUSH0 PUSH0 PUSH0 DUP5 DUP2 MSTORE PUSH1 0x20 ADD SWAP1 DUP2 MSTORE PUSH1 0x20 ADD PUSH0 KECCAK256 PUSH1 0x40 MLOAD DUP1 PUSH2 0x100 ADD PUSH1 0x40 MSTORE SWAP1 DUP2 PUSH0 DUP3 ADD SLOAD DUP2 MSTORE PUSH1 0x20 ADD PUSH1 0x1 DUP3 ADD PUSH0 SWAP1 SLOAD SWAP1 PUSH2 0x100 EXP SWAP1 DIV PUSH20 0xFFFFFFFFFFFFFFFFFFFFFFFFFFFFFFFFFFFFFFFF AND PUSH20 0xFFFFFFFFFFFFFFFFFFFFFFFFFFFFFFFFFFFFFFFF AND PUSH20 0xFFFFFFFFFFFFFFFFFFFFFFFFFFFFFFFFFFFFFFFF AND DUP2 MSTORE PUSH1 0x20 ADD PUSH1 0x1 DUP3 ADD PUSH1 0x14 SWAP1 SLOAD SWAP1 PUSH2 0x100 EXP SWAP1 DIV PUSH1 0xFF AND PUSH1 0x3 DUP2 GT ISZERO PUSH2 0x142D JUMPI PUSH2 0x142C PUSH2 0x173E JUMP JUMPDEST JUMPDEST PUSH1 0x3 DUP2 GT ISZERO PUSH2 0x143F JUMPI PUSH2 0x143E PUSH2 0x173E JUMP JUMPDEST JUMPDEST DUP2 MSTORE PUSH1 0x20 ADD PUSH1 0x2 DUP3 ADD SLOAD DUP2 MSTORE PUSH1 0x20 ADD PUSH1 0x3 DUP3 ADD SLOAD DUP2 MSTORE PUSH1 0x20 ADD PUSH1 0x4 DUP3 ADD SLOAD DUP2 MSTORE PUSH1 0x20 ADD PUSH1 0x5 DUP3 ADD PUSH0 SWAP1 SLOAD SWAP1 PUSH2 0x100 EXP SWAP1 DIV PUSH1 0xFF AND ISZERO ISZERO ISZERO ISZERO DUP2 MSTORE PUSH1 0x20 ADD PUSH1 0x5 DUP3 ADD PUSH1 0x1 SWAP1 SLOAD SWAP1 PUSH2 0x100 EXP SWAP1 DIV PUSH1 0xFF AND ISZERO ISZERO ISZERO ISZERO DUP2 MSTORE POP POP SWAP1 POP PUSH2 0x14A1 DUP4 PUSH2 0xAA5 JUMP JUMPDEST DUP2 PUSH1 0x60 ADD DUP2 DUP2 MSTORE POP POP DUP1 SWAP2 POP POP SWAP2 SWAP1 POP JUMP JUMPDEST PUSH0 PUSH0 PUSH0 DUP4 DUP2 MSTORE PUSH1 0x20 ADD SWAP1 DUP2 MSTORE PUSH1 0x20 ADD PUSH0 KECCAK256 SWAP1 POP PUSH0 PUSH2 0x14D0 DUP4 PUSH2 0xAA5 JUMP JUMPDEST SWAP1 POP DUP1 DUP3 PUSH1 0x2 ADD DUP2 SWAP1 SSTORE POP PUSH0 DUP2 EQ DUP1 ISZERO PUSH2 0x14F9 JUMPI POP DUP2 PUSH1 0x5 ADD PUSH1 0x1 SWAP1 SLOAD SWAP1 PUSH2 0x100 EXP SWAP1 DIV PUSH1 0xFF AND ISZERO JUMPDEST ISZERO PUSH2 0x151C JUMPI PUSH1 0x1 DUP3 PUSH1 0x5 ADD PUSH1 0x1 PUSH2 0x100 EXP DUP2 SLOAD DUP2 PUSH1 0xFF MUL NOT AND SWAP1 DUP4 ISZERO ISZERO MUL OR SWAP1 SSTORE POP JUMPDEST DUP3 PUSH32 0xCC296A21951F3E57F21AFB08547D835A0A9F0F06CC2867009CBE0CAE44D36BE9 PUSH1 0x40 MLOAD PUSH1 0x40 MLOAD DUP1 SWAP2 SUB SWAP1 LOG2 POP POP POP JUMP JUMPDEST PUSH1 0x40 MLOAD DUP1 PUSH2 0x100 ADD PUSH1 0x40 MSTORE DUP1 PUSH0 DUP2 MSTORE PUSH1 0x20 ADD PUSH0 PUSH20 0xFFFFFFFFFFFFFFFFFFFFFFFFFFFFFFFFFFFFFFFF AND DUP2 MSTORE PUSH1 0x20 ADD PUSH0 PUSH1 0x3 DUP2 GT ISZERO PUSH2 0x158F JUMPI PUSH2 0x158E PUSH2 0x173E JUMP JUMPDEST JUMPDEST DUP2 MSTORE PUSH1 0x20 ADD PUSH0 DUP2 MSTORE PUSH1 0x20 ADD PUSH0 DUP2 MSTORE PUSH1 0x20 ADD PUSH0 DUP2 MSTORE PUSH1 0x20 ADD PUSH0 ISZERO ISZERO DUP2 MSTORE PUSH1 0x20 ADD PUSH0 ISZERO ISZERO DUP2 MSTORE POP SWAP1 JUMP JUMPDEST PUSH0 PUSH0 REVERT JUMPDEST PUSH0 PUSH20 0xFFFFFFFFFFFFFFFFFFFFFFFFFFFFFFFFFFFFFFFF DUP3 AND SWAP1 POP SWAP2 SWAP1 POP JUMP JUMPDEST PUSH0 PUSH2 0x15E4 DUP3 PUSH2 0x15BB JUMP JUMPDEST SWAP1 POP SWAP2 SWAP1 POP JUMP JUMPDEST PUSH2 0x15F4 DUP2 PUSH2 0x15DA JUMP JUMPDEST DUP2 EQ PUSH2 0x15FE JUMPI PUSH0 PUSH0 REVERT JUMPDEST POP JUMP JUMPDEST PUSH0 DUP2 CALLDATALOAD SWAP1 POP PUSH2 0x160F DUP2 PUSH2 0x15EB JUMP JUMPDEST SWAP3 SWAP2 POP POP JUMP JUMPDEST PUSH0 PUSH1 0x20 DUP3 DUP5 SUB SLT ISZERO PUSH2 0x162A JUMPI PUSH2 0x1629 PUSH2 0x15B7 JUMP JUMPDEST JUMPDEST PUSH0 PUSH2 0x1637 DUP5 DUP3 DUP6 ADD PUSH2 0x1601 JUMP JUMPDEST SWAP2 POP POP SWAP3 SWAP2 POP POP JUMP JUMPDEST PUSH0 DUP2 MLOAD SWAP1 POP SWAP2 SWAP1 POP JUMP JUMPDEST PUSH0 DUP3 DUP3 MSTORE PUSH1 0x20 DUP3 ADD SWAP1 POP SWAP3 SWAP2 POP POP JUMP JUMPDEST PUSH0 DUP2 SWAP1 POP PUSH1 0x20 DUP3 ADD SWAP1 POP SWAP2 SWAP1 POP JUMP JUMPDEST PUSH0 DUP2 SWAP1 POP SWAP2 SWAP1 POP JUMP JUMPDEST PUSH2 0x167B DUP2 PUSH2 0x1669 JUMP JUMPDEST DUP3 MSTORE POP POP JUMP JUMPDEST PUSH0 PUSH2 0x168C DUP4 DUP4 PUSH2 0x1672 JUMP JUMPDEST PUSH1 0x20 DUP4 ADD SWAP1 POP SWAP3 SWAP2 POP POP JUMP JUMPDEST PUSH0 PUSH1 0x20 DUP3 ADD SWAP1 POP SWAP2 SWAP1 POP JUMP JUMPDEST PUSH0 PUSH2 0x16AE DUP3 PUSH2 0x1640 JUMP JUMPDEST PUSH2 0x16B8 DUP2 DUP6 PUSH2 0x164A JUMP JUMPDEST SWAP4 POP PUSH2 0x16C3 DUP4 PUSH2 0x165A JUMP JUMPDEST DUP1 PUSH0 JUMPDEST DUP4 DUP2 LT ISZERO PUSH2 0x16F3 JUMPI DUP2 MLOAD PUSH2 0x16DA DUP9 DUP3 PUSH2 0x1681 JUMP JUMPDEST SWAP8 POP PUSH2 0x16E5 DUP4 PUSH2 0x1698 JUMP JUMPDEST SWAP3 POP POP PUSH1 0x1 DUP2 ADD SWAP1 POP PUSH2 0x16C6 JUMP JUMPDEST POP DUP6 SWAP4 POP POP POP POP SWAP3 SWAP2 POP POP JUMP JUMPDEST PUSH0 PUSH1 0x20 DUP3 ADD SWAP1 POP DUP2 DUP2 SUB PUSH0 DUP4 ADD MSTORE PUSH2 0x1718 DUP2 DUP5 PUSH2 0x16A4 JUMP JUMPDEST SWAP1 POP SWAP3 SWAP2 POP POP JUMP JUMPDEST PUSH2 0x1729 DUP2 PUSH2 0x1669 JUMP JUMPDEST DUP3 MSTORE POP POP JUMP JUMPDEST PUSH2 0x1738 DUP2 PUSH2 0x15DA JUMP JUMPDEST DUP3 MSTORE POP POP JUMP JUMPDEST PUSH32 0x4E487B7100000000000000000000000000000000000000000000000000000000 PUSH0 MSTORE PUSH1 0x21 PUSH1 0x4 MSTORE PUSH1 0x24 PUSH0 REVERT JUMPDEST PUSH1 0x4 DUP2 LT PUSH2 0x177C JUMPI PUSH2 0x177B PUSH2 0x173E JUMP JUMPDEST JUMPDEST POP JUMP JUMPDEST PUSH0 DUP2 SWAP1 POP PUSH2 0x178C DUP3 PUSH2 0x176B JUMP JUMPDEST SWAP2 SWAP1 POP JUMP JUMPDEST PUSH0 PUSH2 0x179B DUP3 PUSH2 0x177F JUMP JUMPDEST SWAP1 POP SWAP2 SWAP1 POP JUMP JUMPDEST PUSH2 0x17AB DUP2 PUSH2 0x1791 JUMP JUMPDEST DUP3 MSTORE POP POP JUMP JUMPDEST PUSH0 DUP2 ISZERO ISZERO SWAP1 POP SWAP2 SWAP1 POP JUMP JUMPDEST PUSH2 0x17C5 DUP2 PUSH2 0x17B1 JUMP JUMPDEST DUP3 MSTORE POP POP JUMP JUMPDEST PUSH0 PUSH2 0x100 DUP3 ADD SWAP1 POP PUSH2 0x17DF PUSH0 DUP4 ADD DUP12 PUSH2 0x1720 JUMP JUMPDEST PUSH2 0x17EC PUSH1 0x20 DUP4 ADD DUP11 PUSH2 0x172F JUMP JUMPDEST PUSH2 0x17F9 PUSH1 0x40 DUP4 ADD DUP10 PUSH2 0x17A2 JUMP JUMPDEST PUSH2 0x1806 PUSH1 0x60 DUP4 ADD DUP9 PUSH2 0x1720 JUMP JUMPDEST PUSH2 0x1813 PUSH1 0x80 DUP4 ADD DUP8 PUSH2 0x1720 JUMP JUMPDEST PUSH2 0x1820 PUSH1 0xA0 DUP4 ADD DUP7 PUSH2 0x1720 JUMP JUMPDEST PUSH2 0x182D PUSH1 0xC0 DUP4 ADD DUP6 PUSH2 0x17BC JUMP JUMPDEST PUSH2 0x183A PUSH1 0xE0 DUP4 ADD DUP5 PUSH2 0x17BC JUMP JUMPDEST SWAP10 SWAP9 POP POP POP POP POP POP POP POP POP JUMP JUMPDEST PUSH0 PUSH1 0x20 DUP3 ADD SWAP1 POP PUSH2 0x185A PUSH0 DUP4 ADD DUP5 PUSH2 0x1720 JUMP JUMPDEST SWAP3 SWAP2 POP POP JUMP JUMPDEST PUSH2 0x1869 DUP2 PUSH2 0x1669 JUMP JUMPDEST DUP2 EQ PUSH2 0x1873 JUMPI PUSH0 PUSH0 REVERT JUMPDEST POP JUMP JUMPDEST PUSH0 DUP2 CALLDATALOAD SWAP1 POP PUSH2 0x1884 DUP2 PUSH2 0x1860 JUMP JUMPDEST SWAP3 SWAP2 POP POP JUMP JUMPDEST PUSH0 PUSH1 0x20 DUP3 DUP5 SUB SLT ISZERO PUSH2 0x189F JUMPI PUSH2 0x189E PUSH2 0x15B7 JUMP JUMPDEST JUMPDEST PUSH0 PUSH2 0x18AC DUP5 DUP3 DUP6 ADD PUSH2 0x1876 JUMP JUMPDEST SWAP2 POP POP SWAP3 SWAP2 POP POP JUMP JUMPDEST PUSH0 PUSH0 PUSH1 0x40 DUP4 DUP6 SUB SLT ISZERO PUSH2 0x18CB JUMPI PUSH2 0x18CA PUSH2 0x15B7 JUMP JUMPDEST JUMPDEST PUSH0 PUSH2 0x18D8 DUP6 DUP3 DUP7 ADD PUSH2 0x1601 JUMP JUMPDEST SWAP3 POP POP PUSH1 0x20 PUSH2 0x18E9 DUP6 DUP3 DUP7 ADD PUSH2 0x1876 JUMP JUMPDEST SWAP2 POP POP SWAP3 POP SWAP3 SWAP1 POP JUMP JUMPDEST PUSH0 PUSH1 0x20 DUP3 ADD SWAP1 POP PUSH2 0x1906 PUSH0 DUP4 ADD DUP5 PUSH2 0x172F JUMP JUMPDEST SWAP3 SWAP2 POP POP JUMP JUMPDEST PUSH0 PUSH1 0xFF DUP3 AND SWAP1 POP SWAP2 SWAP1 POP JUMP JUMPDEST PUSH2 0x1921 DUP2 PUSH2 0x190C JUMP JUMPDEST DUP3 MSTORE POP POP JUMP JUMPDEST PUSH0 PUSH1 0x20 DUP3 ADD SWAP1 POP PUSH2 0x193A PUSH0 DUP4 ADD DUP5 PUSH2 0x1918 JUMP JUMPDEST SWAP3 SWAP2 POP POP JUMP JUMPDEST PUSH2 0x1949 DUP2 PUSH2 0x15DA JUMP JUMPDEST DUP3 MSTORE POP POP JUMP JUMPDEST PUSH2 0x1958 DUP2 PUSH2 0x1791 JUMP JUMPDEST DUP3 MSTORE POP POP JUMP JUMPDEST PUSH2 0x1967 DUP2 PUSH2 0x17B1 JUMP JUMPDEST DUP3 MSTORE POP POP JUMP JUMPDEST PUSH2 0x100 DUP3 ADD PUSH0 DUP3 ADD MLOAD PUSH2 0x1982 PUSH0 DUP6 ADD DUP3 PUSH2 0x1672 JUMP JUMPDEST POP PUSH1 0x20 DUP3 ADD MLOAD PUSH2 0x1995 PUSH1 0x20 DUP6 ADD DUP3 PUSH2 0x1940 JUMP JUMPDEST POP PUSH1 0x40 DUP3 ADD MLOAD PUSH2 0x19A8 PUSH1 0x40 DUP6 ADD DUP3 PUSH2 0x194F JUMP JUMPDEST POP PUSH1 0x60 DUP3 ADD MLOAD PUSH2 0x19BB PUSH1 0x60 DUP6 ADD DUP3 PUSH2 0x1672 JUMP JUMPDEST POP PUSH1 0x80 DUP3 ADD MLOAD PUSH2 0x19CE PUSH1 0x80 DUP6 ADD DUP3 PUSH2 0x1672 JUMP JUMPDEST POP PUSH1 0xA0 DUP3 ADD MLOAD PUSH2 0x19E1 PUSH1 0xA0 DUP6 ADD DUP3 PUSH2 0x1672 JUMP JUMPDEST POP PUSH1 0xC0 DUP3 ADD MLOAD PUSH2 0x19F4 PUSH1 0xC0 DUP6 ADD DUP3 PUSH2 0x195E JUMP JUMPDEST POP PUSH1 0xE0 DUP3 ADD MLOAD PUSH2 0x1A07 PUSH1 0xE0 DUP6 ADD DUP3 PUSH2 0x195E JUMP JUMPDEST POP POP POP POP JUMP JUMPDEST PUSH0 PUSH2 0x100 DUP3 ADD SWAP1 POP PUSH2 0x1A21 PUSH0 DUP4 ADD DUP5 PUSH2 0x196D JUMP JUMPDEST SWAP3 SWAP2 POP POP JUMP JUMPDEST PUSH0 DUP3 DUP3 MSTORE PUSH1 0x20 DUP3 ADD SWAP1 POP SWAP3 SWAP2 POP POP JUMP JUMPDEST PUSH32 0x42756B616E206F776E6572000000000000000000000000000000000000000000 PUSH0 DUP3 ADD MSTORE POP JUMP JUMPDEST PUSH0 PUSH2 0x1A6B PUSH1 0xB DUP4 PUSH2 0x1A27 JUMP JUMPDEST SWAP2 POP PUSH2 0x1A76 DUP3 PUSH2 0x1A37 JUMP JUMPDEST PUSH1 0x20 DUP3 ADD SWAP1 POP SWAP2 SWAP1 POP JUMP JUMPDEST PUSH0 PUSH1 0x20 DUP3 ADD SWAP1 POP DUP2 DUP2 SUB PUSH0 DUP4 ADD MSTORE PUSH2 0x1A98 DUP2 PUSH2 0x1A5F JUMP JUMPDEST SWAP1 POP SWAP2 SWAP1 POP JUMP JUMPDEST PUSH0 DUP2 SWAP1 POP SWAP3 SWAP2 POP POP JUMP JUMPDEST POP JUMP JUMPDEST PUSH0 PUSH2 0x1AB7 PUSH0 DUP4 PUSH2 0x1A9F JUMP JUMPDEST SWAP2 POP PUSH2 0x1AC2 DUP3 PUSH2 0x1AA9 JUMP JUMPDEST PUSH0 DUP3 ADD SWAP1 POP SWAP2 SWAP1 POP JUMP JUMPDEST PUSH0 PUSH2 0x1AD6 DUP3 PUSH2 0x1AAC JUMP JUMPDEST SWAP2 POP DUP2 SWAP1 POP SWAP2 SWAP1 POP JUMP JUMPDEST PUSH32 0x5472616E7366657220676167616C000000000000000000000000000000000000 PUSH0 DUP3 ADD MSTORE POP JUMP JUMPDEST PUSH0 PUSH2 0x1B14 PUSH1 0xE DUP4 PUSH2 0x1A27 JUMP JUMPDEST SWAP2 POP PUSH2 0x1B1F DUP3 PUSH2 0x1AE0 JUMP JUMPDEST PUSH1 0x20 DUP3 ADD SWAP1 POP SWAP2 SWAP1 POP JUMP JUMPDEST PUSH0 PUSH1 0x20 DUP3 ADD SWAP1 POP DUP2 DUP2 SUB PUSH0 DUP4 ADD MSTORE PUSH2 0x1B41 DUP2 PUSH2 0x1B08 JUMP JUMPDEST SWAP1 POP SWAP2 SWAP1 POP JUMP JUMPDEST PUSH32 0x496E73756666696369656E742066756E647320746F20706C616E742073656564 PUSH0 DUP3 ADD MSTORE POP JUMP JUMPDEST PUSH0 PUSH2 0x1B7C PUSH1 0x20 DUP4 PUSH2 0x1A27 JUMP JUMPDEST SWAP2 POP PUSH2 0x1B87 DUP3 PUSH2 0x1B48 JUMP JUMPDEST PUSH1 0x20 DUP3 ADD SWAP1 POP SWAP2 SWAP1 POP JUMP JUMPDEST PUSH0 PUSH1 0x20 DUP3 ADD SWAP1 POP DUP2 DUP2 SUB PUSH0 DUP4 ADD MSTORE PUSH2 0x1BA9 DUP2 PUSH2 0x1B70 JUMP JUMPDEST SWAP1 POP SWAP2 SWAP1 POP JUMP JUMPDEST PUSH32 0x4E487B7100000000000000000000000000000000000000000000000000000000 PUSH0 MSTORE PUSH1 0x11 PUSH1 0x4 MSTORE PUSH1 0x24 PUSH0 REVERT JUMPDEST PUSH0 PUSH2 0x1BE7 DUP3 PUSH2 0x1669 JUMP JUMPDEST SWAP2 POP PUSH32 0xFFFFFFFFFFFFFFFFFFFFFFFFFFFFFFFFFFFFFFFFFFFFFFFFFFFFFFFFFFFFFFFF DUP3 SUB PUSH2 0x1C19 JUMPI PUSH2 0x1C18 PUSH2 0x1BB0 JUMP JUMPDEST JUMPDEST PUSH1 0x1 DUP3 ADD SWAP1 POP SWAP2 SWAP1 POP JUMP JUMPDEST PUSH0 PUSH2 0x1C2E DUP3 PUSH2 0x1669 JUMP JUMPDEST SWAP2 POP PUSH2 0x1C39 DUP4 PUSH2 0x1669 JUMP JUMPDEST SWAP3 POP DUP3 DUP3 SUB SWAP1 POP DUP2 DUP2 GT ISZERO PUSH2 0x1C51 JUMPI PUSH2 0x1C50 PUSH2 0x1BB0 JUMP JUMPDEST JUMPDEST SWAP3 SWAP2 POP POP JUMP JUMPDEST PUSH32 0x4E487B7100000000000000000000000000000000000000000000000000000000 PUSH0 MSTORE PUSH1 0x12 PUSH1 0x4 MSTORE PUSH1 0x24 PUSH0 REVERT JUMPDEST PUSH0 PUSH2 0x1C8E DUP3 PUSH2 0x1669 JUMP JUMPDEST SWAP2 POP PUSH2 0x1C99 DUP4 PUSH2 0x1669 JUMP JUMPDEST SWAP3 POP DUP3 PUSH2 0x1CA9 JUMPI PUSH2 0x1CA8 PUSH2 0x1C57 JUMP JUMPDEST JUMPDEST DUP3 DUP3 DIV SWAP1 POP SWAP3 SWAP2 POP POP JUMP JUMPDEST PUSH0 PUSH2 0x1CBE DUP3 PUSH2 0x1669 JUMP JUMPDEST SWAP2 POP PUSH2 0x1CC9 DUP4 PUSH2 0x1669 JUMP JUMPDEST SWAP3 POP DUP3 DUP3 MUL PUSH2 0x1CD7 DUP2 PUSH2 0x1669 JUMP JUMPDEST SWAP2 POP DUP3 DUP3 DIV DUP5 EQ DUP4 ISZERO OR PUSH2 0x1CEE JUMPI PUSH2 0x1CED PUSH2 0x1BB0 JUMP JUMPDEST JUMPDEST POP SWAP3 SWAP2 POP POP JUMP JUMPDEST PUSH32 0x54616E616D616E204D6174690000000000000000000000000000000000000000 PUSH0 DUP3 ADD MSTORE POP JUMP JUMPDEST PUSH0 PUSH2 0x1D29 PUSH1 0xC DUP4 PUSH2 0x1A27 JUMP JUMPDEST SWAP2 POP PUSH2 0x1D34 DUP3 PUSH2 0x1CF5 JUMP JUMPDEST PUSH1 0x20 DUP3 ADD SWAP1 POP SWAP2 SWAP1 POP JUMP JUMPDEST PUSH0 PUSH1 0x20 DUP3 ADD SWAP1 POP DUP2 DUP2 SUB PUSH0 DUP4 ADD MSTORE PUSH2 0x1D56 DUP2 PUSH2 0x1D1D JUMP JUMPDEST SWAP1 POP SWAP2 SWAP1 POP JUMP JUMPDEST PUSH32 0x42756B616E2074616E616D616E20416E64612100000000000000000000000000 PUSH0 DUP3 ADD MSTORE POP JUMP JUMPDEST PUSH0 PUSH2 0x1D91 PUSH1 0x13 DUP4 PUSH2 0x1A27 JUMP JUMPDEST SWAP2 POP PUSH2 0x1D9C DUP3 PUSH2 0x1D5D JUMP JUMPDEST PUSH1 0x20 DUP3 ADD SWAP1 POP SWAP2 SWAP1 POP JUMP JUMPDEST PUSH0 PUSH1 0x20 DUP3 ADD SWAP1 POP DUP2 DUP2 SUB PUSH0 DUP4 ADD MSTORE PUSH2 0x1DBE DUP2 PUSH2 0x1D85 JUMP JUMPDEST SWAP1 POP SWAP2 SWAP1 POP JUMP JUMPDEST PUSH0 DUP2 SWAP1 POP SWAP2 SWAP1 POP JUMP JUMPDEST PUSH0 DUP2 SWAP1 POP SWAP2 SWAP1 POP JUMP JUMPDEST PUSH0 PUSH2 0x1DF1 PUSH2 0x1DEC PUSH2 0x1DE7 DUP5 PUSH2 0x1DC5 JUMP JUMPDEST PUSH2 0x1DCE JUMP JUMPDEST PUSH2 0x190C JUMP JUMPDEST SWAP1 POP SWAP2 SWAP1 POP JUMP JUMPDEST PUSH2 0x1E01 DUP2 PUSH2 0x1DD7 JUMP JUMPDEST DUP3 MSTORE POP POP JUMP JUMPDEST PUSH0 PUSH1 0x20 DUP3 ADD SWAP1 POP PUSH2 0x1E1A PUSH0 DUP4 ADD DUP5 PUSH2 0x1DF8 JUMP JUMPDEST SWAP3 SWAP2 POP POP JUMP JUMPDEST PUSH0 PUSH1 0x20 DUP3 ADD SWAP1 POP PUSH2 0x1E33 PUSH0 DUP4 ADD DUP5 PUSH2 0x17A2 JUMP JUMPDEST SWAP3 SWAP2 POP POP JUMP JUMPDEST PUSH32 0x537461676520686172757320626C6F6F6D696E67000000000000000000000000 PUSH0 DUP3 ADD MSTORE POP JUMP JUMPDEST PUSH0 PUSH2 0x1E6D PUSH1 0x14 DUP4 PUSH2 0x1A27 JUMP JUMPDEST SWAP2 POP PUSH2 0x1E78 DUP3 PUSH2 0x1E39 JUMP JUMPDEST PUSH1 0x20 DUP3 ADD SWAP1 POP SWAP2 SWAP1 POP JUMP JUMPDEST PUSH0 PUSH1 0x20 DUP3 ADD SWAP1 POP DUP2 DUP2 SUB PUSH0 DUP4 ADD MSTORE PUSH2 0x1E9A DUP2 PUSH2 0x1E61 JUMP JUMPDEST SWAP1 POP SWAP2 SWAP1 POP JUMP INVALID LOG2 PUSH5 0x6970667358 0x22 SLT KECCAK256 PUSH8 0xD1682B1E2FDA4A76 0xF7 0xA9 0xFC EOFCREATE 0xB6 BLOBBASEFEE 0xBB SIGNEXTEND 0xC3 SWAP3 SMOD SELFBALANCE SELFDESTRUCT DUP5 DUP5 ADDMOD DUP12 MULMOD DUP14 0x27 0xAA 0xC3 0xFC PUSH5 0x736F6C6343 STOP ADDMOD 0x1E STOP CALLER "
				},
				"gasEstimates": {
					"creation": {
						"codeDepositCost": "1579000",
						"executionCost": "25915",
						"totalCost": "1604915"
					},
					"external": {
						"HARVEST_REWARD()": "392",
						"PLANT_PRICE()": "347",
						"STAGE_DURATION()": "415",
						"WATER_DEPLETION_INTERVAL()": "370",
						"WATER_DEPLETION_RATE()": "442",
						"calculateWaterLevel(uint256)": "infinite",
						"deposit()": "163",
						"getPlant(uint256)": "infinite",
						"getUserPlants(address)": "infinite",
						"harvestPlant(uint256)": "infinite",
						"myPlant()": "infinite",
						"owner()": "2619",
						"plantCounter()": "2514",
						"plantSeed()": "infinite",
						"plants(uint256)": "infinite",
						"updatePlantStage(uint256)": "infinite",
						"userPlants(address,uint256)": "infinite",
						"waterPlant(uint256)": "infinite",
						"withdraw()": "infinite"
					},
					"internal": {
						"updateWaterLevel(uint256)": "infinite"
					}
				},
				"methodIdentifiers": {
					"HARVEST_REWARD()": "891c0785",
					"PLANT_PRICE()": "cfc9a5f8",
					"STAGE_DURATION()": "51f9efde",
					"WATER_DEPLETION_INTERVAL()": "90fd1ed4",
					"WATER_DEPLETION_RATE()": "bacb5ebd",
					"calculateWaterLevel(uint256)": "754e150d",
					"deposit()": "d0e30db0",
					"getPlant(uint256)": "ed0b1f5f",
					"getUserPlants(address)": "30cec0eb",
					"harvestPlant(uint256)": "e38f8448",
					"myPlant()": "3a8fdff0",
					"owner()": "8da5cb5b",
					"plantCounter()": "9c471749",
					"plantSeed()": "74119a38",
					"plants(uint256)": "8dd2361c",
					"updatePlantStage(uint256)": "ddd42596",
					"userPlants(address,uint256)": "8aee578b",
					"waterPlant(uint256)": "9886bcfa",
					"withdraw()": "3ccfd60b"
				}
			},
			"storageLayout": {
				"storage": [
					{
						"astId": 29,
						"contract": "contracts/LiskGarden.sol:LiskGarden",
						"label": "plants",
						"offset": 0,
						"slot": "0",
						"type": "t_mapping(t_uint256,t_struct(Plant)24_storage)"
					},
					{
						"astId": 34,
						"contract": "contracts/LiskGarden.sol:LiskGarden",
						"label": "userPlants",
						"offset": 0,
						"slot": "1",
						"type": "t_mapping(t_address,t_array(t_uint256)dyn_storage)"
					},
					{
						"astId": 36,
						"contract": "contracts/LiskGarden.sol:LiskGarden",
						"label": "plantCounter",
						"offset": 0,
						"slot": "2",
						"type": "t_uint256"
					},
					{
						"astId": 38,
						"contract": "contracts/LiskGarden.sol:LiskGarden",
						"label": "owner",
						"offset": 0,
						"slot": "3",
						"type": "t_address"
					},
					{
						"astId": 96,
						"contract": "contracts/LiskGarden.sol:LiskGarden",
						"label": "myPlant",
						"offset": 0,
						"slot": "4",
						"type": "t_struct(Plant)24_storage"
					}
				],
				"types": {
					"t_address": {
						"encoding": "inplace",
						"label": "address",
						"numberOfBytes": "20"
					},
					"t_array(t_uint256)dyn_storage": {
						"base": "t_uint256",
						"encoding": "dynamic_array",
						"label": "uint256[]",
						"numberOfBytes": "32"
					},
					"t_bool": {
						"encoding": "inplace",
						"label": "bool",
						"numberOfBytes": "1"
					},
					"t_enum(GrowthStage)6": {
						"encoding": "inplace",
						"label": "enum LiskGarden.GrowthStage",
						"numberOfBytes": "1"
					},
					"t_mapping(t_address,t_array(t_uint256)dyn_storage)": {
						"encoding": "mapping",
						"key": "t_address",
						"label": "mapping(address => uint256[])",
						"numberOfBytes": "32",
						"value": "t_array(t_uint256)dyn_storage"
					},
					"t_mapping(t_uint256,t_struct(Plant)24_storage)": {
						"encoding": "mapping",
						"key": "t_uint256",
						"label": "mapping(uint256 => struct LiskGarden.Plant)",
						"numberOfBytes": "32",
						"value": "t_struct(Plant)24_storage"
					},
					"t_struct(Plant)24_storage": {
						"encoding": "inplace",
						"label": "struct LiskGarden.Plant",
						"members": [
							{
								"astId": 8,
								"contract": "contracts/LiskGarden.sol:LiskGarden",
								"label": "id",
								"offset": 0,
								"slot": "0",
								"type": "t_uint256"
							},
							{
								"astId": 10,
								"contract": "contracts/LiskGarden.sol:LiskGarden",
								"label": "owner",
								"offset": 0,
								"slot": "1",
								"type": "t_address"
							},
							{
								"astId": 13,
								"contract": "contracts/LiskGarden.sol:LiskGarden",
								"label": "stage",
								"offset": 20,
								"slot": "1",
								"type": "t_enum(GrowthStage)6"
							},
							{
								"astId": 15,
								"contract": "contracts/LiskGarden.sol:LiskGarden",
								"label": "waterLevel",
								"offset": 0,
								"slot": "2",
								"type": "t_uint256"
							},
							{
								"astId": 17,
								"contract": "contracts/LiskGarden.sol:LiskGarden",
								"label": "plantedDate",
								"offset": 0,
								"slot": "3",
								"type": "t_uint256"
							},
							{
								"astId": 19,
								"contract": "contracts/LiskGarden.sol:LiskGarden",
								"label": "lastWatered",
								"offset": 0,
								"slot": "4",
								"type": "t_uint256"
							},
							{
								"astId": 21,
								"contract": "contracts/LiskGarden.sol:LiskGarden",
								"label": "exists",
								"offset": 0,
								"slot": "5",
								"type": "t_bool"
							},
							{
								"astId": 23,
								"contract": "contracts/LiskGarden.sol:LiskGarden",
								"label": "isDead",
								"offset": 1,
								"slot": "5",
								"type": "t_bool"
							}
						],
						"numberOfBytes": "192"
					},
					"t_uint256": {
						"encoding": "inplace",
						"label": "uint256",
						"numberOfBytes": "32"
					}
				}
			},
			"userdoc": {
				"kind": "user",
				"methods": {},
				"version": 1
			}
		}
	}
}